:020000040800F2
:10000000B80800205D020008292E0008C32A000855
:10001000652D00086903000809360008000000008B
:100020000000000000000000000000009D0100082A
:10003000F306000800000000F90100082D2E00085A
:1000400077020008770200087702000877020008AC
:10005000770200087702000877020008770200089C
:10006000770200087702000877020008770200088C
:10007000B905000877020008770200087702000837
:10008000770200087702000877020008770200086C
:100090006D03000877020008770200087702000865
:1000A000770200087702000877020008770200084C
:1000B000770200087702000877020008770200083C
:1000C000770200087702000877020008770200082C
:1000D000770200087702000877020008E53500087B
:1000E000770200087702000877020008770200080C
:1000F00077020008792F00087702000877020008CD
:1001000077020008770200087702000877020008EB
:1001100077020008770200087702000877020008DB
:1001200077020008C9050008770200087702000876
:1001300077020008000000000000000077020008BD
:100140007D030008770200087702000877020008A4
:1001500077020008D905000877020008F935000881
:10016000770200087702000877020008770200088B
:10017000770200087702000800000000000000007D
:100180007702000877020008DFF80CD000F0DAF8F8
:1001900000480047C5360008B80800202C4B1968F5
:1001A0000868B0E8F04F80F30988BFF36F8F4FF015
:1001B000000080F3118870470000000008480068C4
:1001C000006880F308884FF0000080F3148862B65E
:1001D00061B6BFF34F8FBFF36F8F00DF00BF00BF6B
:1001E00008ED00E0DFF80C00016841F470010160E7
:1001F000704700BF88ED00E0EFF30980BFF36F8F19
:10020000134B1A681EF0100F08BF20ED108A20E96A
:10021000F04F106009B44FF0500080F31188BFF325
:100220004F8FBFF36F8F03F09DFA4FF0000080F304
:10023000118809BC19680868B0E8F04F1EF0100F6B
:1002400008BFB0EC108A80F30988BFF36F8F704746
:1002500014000020EFF30580704700000648804737
:1002600006480047FEE7FEE7FEE7FEE7FEE7FEE79B
:10027000FEE7FEE7FEE7FEE7152F0008890100080C
:100280002DE9F05F0546002092469B4688460646CB
:10029000814640241BE0284641464746224600F05E
:1002A00041F853465A46C01A914110D31146184698
:1002B000224600F028F82D1A67EB01084F46224627
:1002C0000120002100F01FF817EB00094E41201E0D
:1002D000A4F10104DFDC484631462A464346BDE826
:1002E000F09FD2B201E000F8012B491EFBD270470B
:1002F0000022F6E710B513460A4604461946FFF7F2
:10030000F0FF204610BD202A04DB203A00FA02F15B
:10031000002070479140C2F1200320FA03F31943F3
:1003200090407047202A04DB203A21FA02F0002195
:10033000704721FA02F3D040C2F1200291400843F5
:1003400019467047064C074D06E0E06840F001038F
:1003500094E8070098471034AC42F6D3FFF718FF33
:10036000583900087839000800BFFEE710B5024888
:1003700000F03BFB10BD00005000002010B502480B
:1003800000F033FB10BD00007800002008B51248D3
:100390000068006800F0100010281BD10E4802F021
:1003A0002AF900F01FF80D4A517A107A02F0DCFCAD
:1003B00000BF0020009008480068006800900648D0
:1003C00000684068009000BF00BF1922044902483D
:1003D00002F012FB08BD0000F8000020F20200202D
:1003E000D8020020724800787149497840EA01201B
:1003F000C0F30A00A0F580606E4908806C48407820
:10040000C0106B49897840EA4110C0F30A00A0F59A
:100410008060684948806648807880116449C9785E
:1004200040EA81006249097940EA8120C0F30A006C
:10043000A0F580605F4988805D48007940105C4984
:10044000497940EAC110C0F30A00A0F5806059491B
:10045000C880574840790011800808725448407994
:10046000C0F3011048725248007C5149497C40EA6F
:100470000120C0F30A004F49488108464089A0F591
:10048000806000B248814A4880794949C97940EA88
:10049000012000B2474988814548007A4449497A99
:1004A00040EA012001B24348C1814148807A404975
:1004B000C97A40EA012001B23E4801823C48017BF2
:1004C0003C4881743A48417B3A48C1743848807B43
:1004D0003749C97B40EA0120364988823448807B0D
:1004E00000F00101334881753148807BC0F3400141
:1004F0003048C1752E48807BC0F380012D480176BD
:100500002B48807BC0F3C0012A4841762848807B75
:10051000C0F30011274881762548807BC0F3401145
:100520002448C1762248807BC0F38011214801779E
:100530001F48807BC1091F4841771D48C07B00F0E0
:1005400001011C4881771A48C07BC0F3400119485B
:10055000C1771748C07BC0F38001164880F820108F
:100560001348C07BC0F3C001124880F82110104826
:10057000C07BC0F300110F4880F822100C48C07BEC
:10058000C0F340110B4880F823100948C07BC0F32A
:100590008011084880F824100548C07BC10905482F
:1005A00080F825100120034981F8260000207047BB
:1005B000D8020020F202002010B5024800F012FF1D
:1005C00010BD00007801002010B5024800F00AFFBD
:1005D00010BD0000D801002010B5024800F002FF55
:1005E00010BD00003802002001460878103818239A
:1005F000B0FBF3F20848805CC865032A05D9086897
:100600006FF30900001D886503E008686FF30900B7
:100610008865886D70470000383900080146002061
:100620008A6A8B69CBB932B1012A0DD0022A03D074
:10063000032A10D10EE000BFCB6A03F08073B3F140
:10064000807F00D1012007E0CB6AB3F1C07F00D1E9
:10065000012001E000E000BF34E08B69B3F5005FEA
:100660001AD132B1012A07D0022A03D0032A11D1AC
:100670000AE000BF01200EE0CB6A03F08073B3F103
:10068000807F00D1012006E0CB6AB3F1C07F00D1AA
:10069000012000E000BF15E032B1012A05D0022A96
:1006A00004D0032A0CD103E000BF00BF012008E002
:1006B000CB6A03F08073B3F1807F00D1012000E0AA
:1006C00000BF00BF704730B50468246824F480245C
:1006D00005682C60046863608468402C04D1046859
:1006E000A2600468E16003E00468A1600468E2605D
:1006F00030BD7047704710B5024692F82030012B8C
:1007000001D0022B06D1106840690843146860616B
:10071000002010BD506A40F4802050620120F8E7AC
:10072000F0B504460A46216894F82050012D01D006
:10073000022D7ED1424901F50071086840F00100A8
:100740000860086820F47C5008600868566A40EA2F
:1007500006200860107D00F01F06012000FA06F355
:10076000C8699843C861A1F50071D069C8B9D1F8CA
:100770000C029843C1F80C02908880B2968940EA36
:10078000064601F51070576940F83760108880B24E
:10079000168940EA064601F51070576900EBC7005C
:1007A0004660D069012819D1D1F80C021843C1F86C
:1007B0000C02908880B2168840EA064601F5107057
:1007C000576940F83760908980B2168940EA06463A
:1007D00001F51070576900EBC7004660906928B9B1
:1007E000D1F804029843C1F8040204E0D1F80402ED
:1007F0001843C1F80402106928B9D1F814029843CB
:10080000C1F8140204E0D1F814021843C1F814022C
:10081000106A012804D1D1F81C021843C1F81C0247
:10082000D1F8000220F00100C1F800020020F0BD64
:10083000FFE7606A40F4802060620120F7E7000073
:1008400000640040704710B50246002092F8203046
:10085000012B01D0022B09D121B91468E46804F0FE
:10086000030003E01468246904F0030010BD70B5B0
:10087000044694F82050012D01D0022D7CD151B9AD
:100880002068C06800F0030080B9606A40F400107E
:100890006062012070BD2068006900F0030028B983
:1008A000606A40F4001060620120F3E7206800F500
:1008B000D87000EB0110006800F0040090609068B0
:1008C00040B9206800F5D87000EB01100068400DB9
:1008D000106007E0206800F5D87000EB0110006898
:1008E000C0085060206800F5D87000EB0110006867
:1008F00000F002004008D060206800F5D87000EBDE
:100900000110406800F00F001061206800F5D870F9
:1009100000EB0110406800F47F40000A90612068FD
:1009200000F5D87000EB01104068000C50612068A1
:1009300000F5D87000EB011080681870206800F591
:10094000D87000EB0110806800F47F40000A5870F6
:10095000206800F5D87000EB0110806800F47F007B
:10096000000C9870206800F5D87000EB01108068CA
:10097000000ED870206800E031E000F5D87000EB80
:100980000110C0681871206800F5D87000EB0110E4
:10099000C06800F47F40000A5871206800F5D870E4
:1009A00000EB0110C06800F47F00000C9871206813
:1009B00000F5D87000EB0110C068000ED87131B995
:1009C0002068C06840F020002668F06005E02068DC
:1009D000006940F020002668306100205AE7606A14
:1009E00040F480206062012054E72DE9F05F044666
:1009F0000025206846692068D0F804902068876840
:100A00002068D0F80CA02068D0F810B02068D0F88A
:100A1000188006F00100002855D007F00100C0B191
:100A200001202168886007F0020018B1204600F01C
:100A30006AFC0EE007F0040010B145F4006508E020
:100A400007F0080010B145F4805502E0204600F0A0
:100A500059FC07F48070C8B14FF480702168886039
:100A600007F4007018B1204600F04FFC0EE007F4C8
:100A7000806010B145F4005508E007F4006010B143
:100A800045F4804502E0204600F03EFC07F480304B
:100A9000C8B14FF480302168886007F4003018B185
:100AA000204600F034FC0EE007F4802010B145F43D
:100AB000004508E007F4002010B145F4803502E05D
:100AC000204600F023FC06F0080038B10AF01000C0
:100AD00020B145F4007510202168C86006F00400BC
:100AE00040B10AF0080028B108202168C8602046FB
:100AF00000F00EFA06F0020038B12068C06800F07D
:100B0000030010B1204600F005FA06F0400038B1AD
:100B10000BF0100020B145F48065102021680861B9
:100B200006F0200040B10BF0080028B10820216831
:100B30000861204600F0B4FB06F0100038B12068D0
:100B4000006900F0030010B1204600F0AAFB06F493
:100B5000003040B109F0100028B110202168486031
:100B6000204600F09FFB06F4803040B109F00800F9
:100B700028B1082021684860204600F0C9FB06F42F
:100B8000004088B309F0040078B306F4807020B107
:100B900008F0010008B145F0010506F4007020B12D
:100BA00008F0020008B145F0020506F4806020B1AB
:100BB00008F0040008B145F0040506F40060A0B197
:100BC00008F0700088B108F07000402817D006DCEB
:100BD00010280BD020280CD0302819D10CE0502838
:100BE00010D0602814D110E01DE019E045F0080590
:100BF0000FE045F010050CE045F0200509E045F058
:100C0000400506E045F0800503E045F4807500E00E
:100C100000BF00BF2068806920F0700021688861F3
:100C20000420216848602DB1606A28436062204634
:100C3000FFF708FEBDE8F09F70B504460CB901202F
:100C400070BD94F8200010B9204600F0AFF820687D
:100C5000006820F002002168086000F0AFFE054641
:100C60000DE000F0ABFE401B0A2808D9606A40F492
:100C700000306062052084F820000120E0E7206851
:100C8000406800F002000028EBD12068006840F0C6
:100C900001002168086000F091FE05460DE000F0BB
:100CA0008DFE401B0A2808D9606A40F4003060625B
:100CB000052084F820000120C2E72068406800F089
:100CC00001000028EBD0207E012806D120680068B2
:100CD00040F080002168086005E02068006820F08E
:100CE000800021680860607E012806D120680068C5
:100CF00040F040002168086005E02068006820F0AE
:100D0000400021680860A07E012806D120680068A4
:100D100040F020002168086005E02068006820F0AD
:100D2000200021680860E07E012806D12068006864
:100D300020F010002168086005E02068006840F09D
:100D4000100021680860207F012806D12068006813
:100D500040F008002168086005E02068006820F085
:100D6000080021680860607F012806D120680068BB
:100D700040F004002168086005E02068006820F069
:100D8000040021680860D4E902010843216908438E
:100D9000616908436168491E08432168C8610020F1
:100DA0006062012084F82000002049E710B586B079
:100DB0000446142101A8FFF79BFA4F492068884296
:100DC00042D14E480068401C4C4908600846006803
:100DD00001280FD100BF002000904948006840F072
:100DE0000070474908600846006800F000700090F5
:100DF00000BF00BF00BF00200090414810380068CD
:100E000040F001003E49103908600846006800F0D3
:100E10000100009000BF00BF4FF4C05001900220BD
:100E2000029000200390032004900920059001A95E
:100E3000344800F0BDFC00220521142000F06EFEB5
:100E4000142000F05BFE55E02F492068884251D104
:100E500000BF002000902A48006840F080602849C8
:100E600008600846006800F08060009000BF00BF86
:100E700022480068401C2149086008460068012893
:100E80000FD100BF002000901D48006840F00070A6
:100E90001B4908600846006800F00070009000BF21
:100EA00000BF00BF0020009015481038006840F0D7
:100EB00002001349103908600846006800F002007B
:100EC000009000BF00BF4FF44050019002200290FC
:100ED00000200390032004900920059001A90B48ED
:100EE00000F066FC00220521402000F017FE4020A3
:100EF00000F004FE06B010BD0064004000000020B9
:100F000040380240000002400068004000040240F7
:100F1000704700001CB5044600212046FFF793FCF3
:100F200000287CD06B46DC4A00212046FFF79FFC5E
:100F3000D9480068A0F20120072871D2DFE800F04C
:100F4000043D79B2F2F0EF009DF80000000200B21B
:100F50009DF80110084300EE100AB8EEC00ACF4811
:100F600080ED010A9DF80200000200B29DF8031016
:100F7000084300EE100AB8EEC00AC84880ED000A27
:100F80009DF80400000200B29DF80510084300EE31
:100F9000100AB8EEC00AC14880ED020A9DF80600AA
:100FA000000200B29DF80710084300EE100AB8EEE8
:100FB000C00ABA4880ED030A6CE19DF80000000207
:100FC00000B29DF80110084300EE100AB8EEC00A06
:100FD000B24880ED060A9DF80200000200B29DF8BA
:100FE0000310084300EE100AB8EEC00AAB4880EDCB
:100FF000050A9DF80400000200B29DF805100843A0
:1010000000EE100AB8EEC00AA44880ED070A9DF869
:101010000600000200B29DF80710084301E03AE123
:1010200037E100EE100AB8EEC00A9C4880ED080ACD
:1010300030E19DF80000000200B29DF80110084365
:1010400000EE100AB8EEC00A944880ED0B0A9DF835
:101050000200000200B29DF80310084300EE100ADF
:10106000B8EEC00A8D4880ED0A0A9DF8040000021F
:1010700000B29DF80510084300EE100AB8EEC00A51
:10108000864880ED0C0A9DF80600000200B29DF82B
:101090000710084300EE100AB8EEC00A7F4880ED42
:1010A0000D0AF7E004217D48A0F84C109DF80000DF
:1010B000000200B29DF80110084300EE100AB8EEDD
:1010C000C00A764880ED100A9DF80200000200B2C6
:1010D0009DF80310084300EE100AB8EEC00A6F48EE
:1010E00080ED0F0A9DF80400000200B29DF8051083
:1010F000084300EE100AB8EEC00A684880ED110AF5
:101100009DF80600000200B29DF80710084300EEAB
:10111000100AB8EEC00A614880ED120ABAE07BE01E
:101120003DE0FFE705215D48A0F860109DF8000054
:10113000000200B29DF80110084300EE100AB8EE5C
:10114000C00A564880ED150A9DF80200000200B260
:101150009DF80310084300EE100AB8EEC00A4F488D
:1011600080ED140A9DF80400000200B29DF80510FD
:10117000084300EE100AB8EEC00A484880ED160A8F
:101180009DF80600000200B29DF80710084300EE2B
:10119000100AB8EEC00A414880ED170A7AE006212D
:1011A0003E48A0F874109DF80000000200B29DF8BF
:1011B0000110084300EE100AB8EEC00A374880ED6F
:1011C0001A0A9DF80200000200B29DF803100843BD
:1011D00000EE100AB8EEC00A304880ED190A9DF8FA
:1011E0000400000200B29DF80510084300EE100A4A
:1011F000B8EEC00A294880ED1B0A9DF806000002DF
:1012000000B29DF80710084300EE100AB8EEC00ABD
:10121000224880ED1C0A3DE007212048A0F88810F4
:101220009DF80000000200B29DF80110084300EE96
:10123000100AB8EEC00A194880ED1F0A9DF8020096
:10124000000200B29DF80310084300EE100AB8EE49
:10125000C00A124880ED1E0A9DF80400000200B288
:101260009DF80510084300EE100AB8EEC00A0B48BE
:1012700080ED200A9DF80600000200B29DF80710DC
:10128000084300EE100AB8EEC00A044880ED210AB7
:1012900000E000BF00BF1CBDA80300201C0300200D
:1012A00070477047704770B5044694F820000128D5
:1012B00022D1022084F820002068006820F001007C
:1012C0002168086000F07AFB05460DE000F076FB2F
:1012D000401B0A2808D9606A40F40030606205208B
:1012E00084F82000012070BD2068406800F00100F3
:1012F0000028EBD16062F6E7606A40F4002060628B
:101300000120F0E77047704770477047704770479B
:10131000704770B50446A56D00F050FB064694F882
:101320003500022808D08020606500BF002084F8C6
:10133000340000BF012070BD2068006820F0160056
:10134000216808602068406920F0800021684861B9
:10135000206C08B9A06C28B12068006820F0080053
:10136000216808602068006820F00100216808609A
:101370000FE000F023FB801B05280AD920206065C0
:1013800000BF002084F8340000BF032084F835003B
:10139000D1E72068006800F001000028E9D194F846
:1013A0005C103F208840A86000BF002084F8340013
:1013B00000BF012084F835000020BCE7014691F809
:1013C0003500022803D080204865012070470520A1
:1013D00081F835000868006820F001000A68106094
:1013E0000020F3E7F8B50446002000908C48006820
:1013F0004FF41651B0FBF1F7A56D2E6894F85C1010
:1014000008208840304098B12068006800F004004F
:1014100070B12068006820F004002168086094F82A
:101420005C1008208840A860606D40F00100606595
:1014300094F85C1001208840304068B12068406911
:1014400000F0800040B194F85C1001208840A86052
:10145000606D40F00200606594F85C1004208840E4
:10146000304068B12068006800F0020040B194F894
:101470005C1004208840A860606D40F00400606546
:1014800094F85C1010208840304078B320680068E1
:1014900000F0080050B394F85C1010208840A86059
:1014A0002068006800F4802080B12068006800F4A3
:1014B000002028B9206CC8B12046216C884715E06F
:1014C000A06C98B12046A16C88470FE020680068A6
:1014D00000F4807028B92068006820F008002168B6
:1014E0000860206C10B12046216C884794F85C108D
:1014F000202088403040002865D02068006800F037
:10150000100000285FD094F85C1020208840A8606C
:1015100094F83500052828D12068006820F01600CE
:10152000216808602068406920F0800021684861D7
:10153000206C08B9A06C28B12068006820F0080071
:101540002168086094F85C103F208840A86000BFC4
:10155000002084F8340000BF012084F83500206D9D
:1015600010B12046216D8847F8BD2068006800F45E
:10157000802080B12068006800F4002028B9606CE9
:1015800010B12046616C88471DE0E06BD8B1204661
:10159000E16B884717E02068006800F4807068B944
:1015A0002068006820F010002168086000BF00205B
:1015B00084F8340000BF012084F83500E06B10B1DE
:1015C0002046E16B8847606D38B3606D00F0010024
:1015D000F0B1052084F835002068006820F0010093
:1015E0002168086000BF0098401C0090B84200D9F4
:1015F00005E02068006800F001000028F3D100BF7A
:1016000000BF002084F8340000BF012084F83500BA
:10161000E06C10B12046E16C884700BFA4E70000F1
:10162000100000202DE9F0410446002500F0C6F925
:10163000074614B90120BDE8F081606A00B100BF1F
:1016400000BF002084F8340000BF022084F8350079
:101650002068006820F00100216808600AE000F0BE
:10166000ADF9C01B052805D920206065032084F84A
:101670003500E0E72068006800F001000028EED1A6
:101680002068056821480540D4E901010843E16864
:1016900008432169084361690843A1690843E16976
:1016A0000843216A08430543606A042803D1D4E94A
:1016B0000B0108430543206805602068456925F053
:1016C0000705606A0543606A04280DD1A06A0543D6
:1016D000E06A48B12046FEF7A1FF28B140206065CE
:1016E000012084F83500A6E7206845612046FEF712
:1016F0007BFF064694F85C103F208840B0600020D5
:101700006065012084F83500002094E73F8010F0E8
:101710002DE9F04704460D4616461F464FF00008D7
:10172000D4F8589000BF94F83400012802D1022068
:10173000BDE8F087012084F8340000BF94F835003C
:1017400001282BD1022084F83500002060653B463B
:10175000324629462046FEF7B6FF94F85C103F203B
:101760008840C9F808002068006840F01600216829
:1017700008602068406940F0800021684861206C62
:1017800028B12068006840F00800216808602068DF
:10179000006840F001002168086006E000BF0020FA
:1017A00084F8340000BF4FF002084046C0E7000054
:1017B000F8B502460B460025002400200021DCE09D
:1017C000012606FA01F51E6806EA0504AC4273D14B
:1017D0005E68022E02D05E68122E13D1CF0802F18D
:1017E000200656F827004E07F70E0F26BE40B043DE
:1017F0004F07FF0E1E69BE403043CF0802F120069E
:1018000046F8270010684F000326BE40B0431E79FB
:1018100006F003064F00BE40304310605E68012EA4
:1018200008D05E68022E05D05E68112E02D05E6878
:10183000122E13D190684F000326BE40B0434F00D4
:10184000DE68BE4030439060506801268E40B04351
:101850001E79C6F300168E4030435060D0684F00AA
:101860000326BE40B0434F009E68BE403043D06068
:101870005E6806F08056B6F1805F7DD100BF00261D
:101880000096404E366846F480463E4F3E603E46E7
:10189000366806F48046009600BF00BF3A4E8F08B7
:1018A00056F827008E07370F0F26BE40B043374E3D
:1018B000B24202D1002624E05EE0354EB24201D1B0
:1018C00001261EE0334EB24201D1022619E0324E0B
:1018D000B24201D1032614E0304EB24201D10426B7
:1018E0000FE02F4EB24201D105260AE02D4EB24242
:1018F00001D1062605E02C4EB24201D1072600E0B8
:1019000008268F073F0FBE4030431F4E8F0846F812
:101910002700264E3068A0435E6806F48036B6F590
:10192000803F00D12043214E3060361D3068A043F7
:101930005E6806F40036B6F5003F00D120431B4E2A
:10194000361D3060361D3068A0435E6806F4801690
:10195000B6F5801F00D12043144E08363060361D86
:101960003068A0435E6806F40016B6F5001F00D18B
:1019700020430E4E0C363060491C1029FFF420AF76
:10198000F8BD000044380240083801400000024021
:101990000004024000080240000C02400010024017
:1019A0000014024000180240001C0240003C0140AC
:1019B0000AB1816101E00B0483617047014800684E
:1019C00070470000040000200348006803490978BC
:1019D0000844014908607047040000200C00002002
:1019E00010B50D48006840F400700B4908600846C7
:1019F000006840F4806008600846006840F4807029
:101A00000860032000F0C8F8002000F007F800F09C
:101A10004BF8002010BD0000003C024070B588B0BB
:101A2000044600250026002221462D2000F076F8ED
:101A30002D2000F063F800BF0020019016480068D8
:101A400040F48070144908600846006800F4807013
:101A5000019000BF00BF02A903A800F071F900F0D7
:101A600097F945000D48B5FBF0F0461E0C480D49AE
:101A7000086040F2E7310B48C16046600021016117
:101A8000816000F0ADFC20B9064800F0C4FC08B04D
:101A900070BD0120FBE700004038024040420F00CB
:101AA000002000409802002008B500BF00200090F0
:101AB0001148006840F480400F49086008460068FB
:101AC00000F48040009000BF00BF00BF00200090E5
:101AD000081F006840F08050091F08600846006831
:101AE00000F08050009000BF00BF00220F21901E28
:101AF00000F014F808BD00004438024001460846D2
:101B0000002809DB00F01F0301229A4043099B00D3
:101B100003F1E023C3F8002100BF70472DE9F05F17
:101B200080460D461646002701F070FD07463946EF
:101B30002A46334601F00700C0F1070ABAF1040F44
:101B400002D94FF0040A01E0C0F1070AD14600F1C2
:101B5000040ABAF1070F02D24FF0000A01E0A0F127
:101B6000030AD4464FF0010A0AFA09FAAAF1010A57
:101B70000AEA020A0AFA0CFA4FF0010B0BFA0CFB04
:101B8000ABF1010B0BEA030B4AEA0B04214640467A
:101B900001F044FDBDE8F09F00BF00F00702064BD6
:101BA00019684FF6FF031940044B0B4343EA022127
:101BB000014B196000BF70470CED00E00000FA0512
:101BC00070B504460D460CB9012070BD5848006838
:101BD00000F00F00A84209D255490D700846006870
:101BE00000F00F00A84201D00120EEE7207800F0BD
:101BF000020002281DD1207800F00400042805D13D
:101C00004C48006840F4E0504A490860207800F0F1
:101C10000800082805D14748006840F4604045495D
:101C200008604448006820F0F000A168084341497A
:101C30000860207800F00100A8B36068012807D18F
:101C40003C4808380068C0F34040B8B90120BCE700
:101C50006068022802D06068032807D13548083838
:101C60000068C0F3406048B90120AEE73148083849
:101C70000068C0F3400008B90120A6E72D480068BD
:101C800020F00300616808432A490860FFF796FEC8
:101C9000064609E0FFF792FE801B41F28831884238
:101CA00002D9032091E707E02248006800F00C0009
:101CB0006168B0EB810FEDD11D48006800F00F00A6
:101CC000A84209D91A490D700846006800F00F00B3
:101CD000A84201D0012078E7207800F00400042811
:101CE00007D11448006820F4E050E1680843114926
:101CF0000860207800F00800082808D10D48006826
:101D000020F46040216940EAC1000A49086000F0FF
:101D10005FF808490968C1F30311074A515CC840DC
:101D2000064908600020FFF779FE00204DE700001B
:101D3000003C0240083802404039000810000020F2
:101D40000F2202600D4A126802F0030242600B4A41
:101D5000126802F0F0028260084A126802F4E0524F
:101D6000C260064A126802F46042D2080261044A64
:101D7000126802F00F020A60704700000838024043
:101D8000003C02400148006870470000100000203D
:101D900000B5FFF7F7FF04490968C1F38221034A40
:101DA000515CC84000BD00000838024050390008AE
:101DB00000B5FFF7E7FF04490968C1F34231034A60
:101DC000515CC84000BD000008380240503900088E
:101DD0002DE9F047002400250026A146254800688B
:101DE00000F00C0020B1042805D008283AD105E005
:101DF000DFF8849039E0DFF8849036E01D48001F5A
:101E0000006800F03F041B48001F006800F48000D9
:101E100078B11A481749091F0968C1F38811A0FB56
:101E200001700146224600233846FEF729FA05468E
:101E30000EE011480F49091F0968C1F38811A0FB82
:101E400001700146224600233846FEF719FA05467E
:101E50000848001F0068C0F30140401C4600B5FB65
:101E6000F6F902E0DFF8109000BF00BF4846BDE879
:101E7000F0870000083802400024F40000127A00C5
:101E8000F8B504460CB90120F8BD207800F0010037
:101E9000002874D0F948006800F00C0004280DD028
:101EA000F648006800F00C00082813D1F348001F22
:101EB000006800F48000B0F5800F0BD1EF480838BF
:101EC0000068C0F34040002859D06068002856D10F
:101ED0000120D9E700BF6068B0F5803F08D1E7482E
:101EE0000838006840F48030E449083908601EE092
:101EF0006068B0F5A02F0DD1E0480838006840F4C4
:101F00008020DE49083908600846006840F48030C7
:101F100008600CE0D9480838006820F48030D749C0
:101F2000083908600846006820F48020086000BF77
:101F3000606890B1FFF742FD054606E0FFF73EFD01
:101F4000401B642801D903209EE7CC48083800686C
:101F5000C0F340400028F1D011E0FFF72FFD054607
:101F600006E0FFF72BFD401B642801D903208BE717
:101F7000C24808380068C0F340400028F1D12078FA
:101F800000F0020002285FD1BC48006800F00C009D
:101F900058B1BA48006800F00C0008281CD1B748B6
:101FA000001F006800F48000B0B9B4480838006829
:101FB000C0F3400020B1E068012801D0012063E7B0
:101FC000AE480838006820F0F800216940EAC100F6
:101FD000AA490839086037E0E06800B30120A84941
:101FE0000860FFF7EBFC054606E0FFF7E7FC401B47
:101FF000022801D9032047E7A04808380068C0F349
:1020000040000028F1D09D480838006820F0F80012
:10201000216940EAC10099490839086014E00020AC
:1020200097490860FFF7CAFC054606E0FFF7C6FCC3
:10203000401B022801D9032026E790480838006891
:10204000C0F340000028F1D1207800F008000828F3
:102050002CD16069A8B101208A490860FFF7AEFC65
:10206000054606E0FFF7AAFC401B022801D9032021
:102070000AE782486C300068C0F340000028F1D0C5
:1020800014E000207F490860FFF798FC054606E051
:10209000FFF794FC401B022801D90320F4E677489F
:1020A0006C300068C0F340000028F1D1207800F0C7
:1020B0000400042870D1002670483830006800F011
:1020C000805090B900BF002000906C483830006804
:1020D00040F080506949383108600846006800F0D7
:1020E0008050009000BF00BF01266748006800F4E0
:1020F0008070B0B96448006840F48070624908603C
:10210000FFF75CFC054606E0FFF758FC401B022881
:1021100001D90320B8E65C48006800F4807000280C
:10212000F2D000BFA068012808D154486830006888
:1021300040F001005149683108601DE0A0680528A1
:102140000DD14E486830006840F004004B496831BA
:1021500008600846006840F0010008600CE047484D
:102160006830006820F00100444968310860084682
:10217000006820F00400086000BFA068A8B1FFF765
:102180001DFC054609E0FFF719FC401B41F28831B0
:10219000884202D9032077E626E038486830006894
:1021A000C0F340000028EED013E0FFF707FC05461F
:1021B00008E0FFF703FC401B41F28831884201D957
:1021C000032061E62D4868300068C0F34000002815
:1021D000EFD1012E07D129483830006820F0805017
:1021E00026493831086000BFA069B8B323480068A9
:1021F00000F00C0008285ED0A069022846D100201B
:102200001F490866FFF7DAFB054606E0FFF7D6FB35
:10221000401B022801D9032036E618480838006818
:10222000C0F340600028F1D1D4E907010843616A96
:1022300040EA81110122A06AC2EB500041EA00414C
:102240002C20005D41EA00600C49091F0860012054
:102250000B490866FFF7B2FB054607E02DE0FFF7E4
:10226000ADFB401B022801D903200DE603480838C6
:102270000068C0F340600028F1D01EE0083802403A
:1022800000004742800E47420070004000200C4989
:102290000866FFF793FB054606E0FFF78FFB401B40
:1022A000022801D90320EFE506480068C0F340602A
:1022B0000028F2D101E00120E6E50020E4E500007D
:1022C000000047420038024010B504460CB9012016
:1022D00010BD606A00B900BF0021A16294F85100EE
:1022E00028B9002084F85000204600F033F802207E
:1022F00084F851002068006820F0400021680860E0
:10230000D4E901010843E168084321690843616990
:102310000843218B01F400710843E1690843216AF5
:102320000843A16A0843216808600421A06901EA02
:102330001040616A0843216848602068C06920F441
:1023400000602168C86100206065012084F85100A8
:102350000020BDE710B586B00446142101A8FDF7A2
:10236000C7FF1B49206888422FD100BF0020009082
:102370001848006840F48050164908600846006814
:1023800000F48050009000BF00BF00BF002000900C
:1023900010481438006840F001000E4914390860F4
:1023A0000846006800F00100009000BF00BFE02078
:1023B0000190022002900020039003200490052049
:1023C000059001A90448FFF7F3F906B010BD00001D
:1023D000003001404438024000000240704770471E
:1023E00010B504460CB9012010BD94F83D0028B981
:1023F000002084F83C00204600F00CF8022084F80D
:102400003D00211D206800F0BFFD012084F83D0043
:102410000020E9E7704701460868C06840F0010005
:102420000B68D8600868806800F00702062A05D0AB
:102430000868006840F001000B68186000207047D1
:10244000704710B5044620680069C0F34000D8B159
:102450002068C068C0F34000B0B16FF0020021688E
:102460000861012020772068806900F0030018B11E
:102470002046FFF7E5FF05E0204600F0ADF82046D6
:1024800000F0ABF80020207720680069C0F38000DE
:10249000D8B12068C068C0F38000B0B16FF004000C
:1024A00021680861022020772068806900F440706C
:1024B00018B12046FFF7C4FF05E0204600F08CF875
:1024C000204600F08AF80020207720680069C0F3D9
:1024D000C000D8B12068C068C0F3C000B0B16FF0D0
:1024E000080021680861042020772068C06900F096
:1024F000030018B12046FFF7A3FF05E0204600F0D7
:102500006BF8204600F069F8002020772068006909
:10251000C0F30010D8B12068C068C0F30010B0B19B
:102520006FF0100021680861082020772068C069DA
:1025300000F4407018B12046FFF782FF05E0204606
:1025400000F04AF8204600F048F800202077206884
:10255000006900F0010058B12068C06800F0010077
:1025600030B16FF0010021680861204600F036F8B4
:1025700020680069C0F3C01058B12068C068C0F37B
:10258000C01030B16FF08000216808612046FFF76D
:1025900025FF20680069C0F3801058B12068C0682A
:1025A000C0F3801030B16FF0400021680861204610
:1025B00000F020F820680069C0F3401058B120688E
:1025C000C068C0F3401030B16FF02000216808618E
:1025D0002046FFF704FF10BD7047704710B5044652
:1025E00003492068884201D1FFF7EEF910BD0000D1
:1025F00000200040704770B50446002520684069FF
:10260000C0F3C01594F8390021280ED16DB12068AF
:10261000406920F0800021684861206B10B1206B78
:10262000FEF777FE204600F097FD20684069C0F372
:10263000801594F83A0022280ED16DB120684069C7
:1026400020F0400021684861606B10B1606BFEF7BC
:1026500060FE204600F060FD002070BD7047000065
:102660002DE9F0470446206805682068C6682068A0
:1026700047694FF00008C14605F00F08B8F1000F98
:102680000AD105F0200038B106F0200020B1204624
:1026900000F06CFDBDE8F087B8F1000F6ED007F0D8
:1026A000010018B906F49070002867D005F0010009
:1026B00030B106F4807018B1E06B40F00100E063C7
:1026C00005F0040030B107F0010018B1E06B40F0F4
:1026D0000200E06305F0020030B107F0010018B11C
:1026E000E06B40F00400E06305F0080030B107F053
:1026F000010018B1E06B40F00800E063E06B70B3DC
:1027000005F0200028B106F0200010B1204600F0AE
:102710002DFD20684069C0F38019E06B00F00800CF
:1027200010B9B9F1000F23D0204600F0F5FC206865
:10273000406900F04000402816D12068406920F030
:10274000400021684861606B50B11748616B0865B3
:10275000606BFEF733FE10B1606B016D88470CE0D3
:102760002046FFF77BFF08E02046FFF777FF04E0F5
:102770002046FFF773FF0020E0638BE705F0800041
:1027800030B106F0800018B1204600F0F7FE81E776
:1027900005F0400030B106F0400018B1204600F0CE
:1027A000CBFC77E700BF75E76130000810B5044641
:1027B0000CB9012010BDA06900B100E000BF94F881
:1027C000390028B9002084F83800204600F028F8A5
:1027D000242084F839002068C06820F40050216863
:1027E000C860204600F016FD2068006920F4904083
:1027F000216808612068406920F02A00216848614A
:102800002068C06840F400502168C8600020E06380
:10281000202084F8390084F83A000020CAE700003C
:1028200010B586B00446142101A8FDF761FD694981
:102830002068884256D100BF00200090664800689A
:1028400040F48020644908600846006800F4802055
:10285000009000BF00BF00BF002000905E4810380D
:10286000006840F004005C491039086008460068C0
:1028700000F00400009000BF00BF4FF440600190E2
:10288000022002900120039003200490072005906D
:1028900001A95248FEF78CFF5148524908604FF099
:1028A0000060486000214F488160C1604FF4806142
:1028B0000161002141618161C16101624162FEF7F4
:1028C000B1FE08B1FDF716FF00BF464860638463A0
:1028D00000BF002205212720FFF720F92720FFF75E
:1028E0000DF975E040492068884271D100BF002091
:1028F00000903948001D006840F020003649091D4D
:1029000008600846006800F02000009000BF00BF8B
:1029100000BF0020009030481038006840F00400EC
:102920002D49103908600846006800F00400009046
:1029300000BF00BFC0200190022002900120039040
:10294000032004900820059001A92448FEF730FFD9
:102950002648274908608005486000212448816096
:10296000C1604FF480610161002141618161C161F9
:1029700001624162FEF756FE08B1FDF7BBFE00BFE3
:102980001B486063846300BF1848783019490860A9
:102990004FF0206048604021164881600021C160EE
:1029A000016141618161C16101624162FEF73AFEEC
:1029B00008B1FDF79FFE00BF0E482063846300BF8F
:1029C000002205214720FFF7A9F84720FFF796F8D6
:1029D00006B010BD004800404038024000080240E8
:1029E0002860024078010020001401402864024061
:1029F000D80100203802002077B581B00446154682
:102A000094F83A00202850D1029800B115B901205D
:102A100004B070BD00BF94F83800012801D1022035
:102A2000F6E7012084F8380000BF0298A062A5856F
:102A30000020E063222084F83A001D48616BC863DF
:102A40001C48616B08641C48616BC8640020616BA2
:102A5000086502AE32682368191D2B46606BFEF7CD
:102A600057FE00BF0020009020680068009020689A
:102A70004068009000BF00BF00BF002084F838000D
:102A800000BF2068C06840F480702168C86020687A
:102A9000406940F00100216848612068406940F0C9
:102AA0004000216848610020B2E70220B0E7000042
:102AB000C53000080B3100087530000870477047BA
:102AC000704700BFFEE7000010B50F480F490860CF
:102AD0000320486000210D488160C1604FF400214F
:102AE00001614FF4401141610021017601214176DD
:102AF00000218176C17601774177FEF79DF808B114
:102B0000FDF7F8FD10BD00000064004050000020FB
:102B100010B50F480F4908600320486000210D4898
:102B20008160C1604FF4002101614FF440114161A7
:102B3000002101760121417600218176C17601775D
:102B40004177FEF779F808B1FDF7D4FD10BD00001C
:102B5000006800407800002008B500BF0020009009
:102B60001A48006840F48000184908600846006868
:102B700000F48000009000BF00BF00BF0020009064
:102B80000846006840F4001008600846006800F439
:102B90000010009000BF00BF002205210C20FEF7AE
:102BA000BDFF0C20FEF7AAFF002205213920FEF709
:102BB000B5FF3920FEF7A2FF002205214520FEF7D0
:102BC000ADFF4520FEF79AFF08BD000030380240F7
:102BD00000B587B0142102A8FDF78AFB00BF0020D2
:102BE00001902E48006840F080002C49086008469B
:102BF000006800F08000019000BF00BF00BF00200F
:102C000001900846006840F001000860084600682E
:102C100000F00100019000BF00BF00BF0020019044
:102C20000846006840F0020008600846006800F0AE
:102C30000200019000BF00BF00BF002001900846C5
:102C4000006840F0040008600846006800F00400D6
:102C5000019000BF00BF002210211148FEF7A8FE1E
:102C6000002278210F48FEF7A3FE102002900120D9
:102C7000039000200490059002A90948FEF798FDF2
:102C800078200290012003900220049000200590FB
:102C900002A90448FEF78CFD07B000BD30380240A1
:102CA000000002400004024010B50E480E490860C2
:102CB0004FF48270486000210B488160C16001615F
:102CC00041614FF4007181610021C1610162416283
:102CD00081620A21C162FFF7F7FA08B1FDF70AFD28
:102CE00010BD000000300140A000002010B50C48CD
:102CF0000C4908600C4848604FF4805109488160D5
:102D00000021C1604FF4806101610C21416100210B
:102D10008161C161FFF74AFD08B1FDF7EBFC10BD11
:102D200000480040F8000020A086010010B50B48C4
:102D30000B4908604FF4E130486000210848816089
:102D4000C16001610C21416100218161C161FFF716
:102D50002DFD08B1FDF7CEFC10BD000000140140B0
:102D60003801002000BFFEE770B504460D462C4830
:102D7000007A03280ED12A48407A03280AD100227B
:102D800078212848FEF714FE012240212548FEF74D
:102D90000FFE24E02248007A03280ED12048407A12
:102DA00001280AD1002278211E48FEF701FE0122E7
:102DB00020211C48FEF7FCFD11E01948007A01288B
:102DC0000DD11748407A012809D1002278211548F1
:102DD000FEF7EEFD012210211248FEF7E9FD104832
:102DE000007A01280ED10E48407A03280AD1002229
:102DF00078210C48FEF7DCFD012208210948FEF786
:102E0000D7FD0CE00648007A022808D10448407A31
:102E1000022804D1002278210248FEF7C9FD70BDC6
:102E2000F2020020000402407047000010B500BF0D
:102E3000502080F31188BFF34F8FBFF36F8F00BF17
:102E400000F0D6FC18B14FF080500449086000BF74
:102E5000002080F3118800BF10BD000004ED00E0E9
:102E600000B593B0302107A8FDF742FA142102A85B
:102E7000FDF73EFA00BF002001902448006840F0B2
:102E80008050224908600846006800F08050019098
:102E900000BF00BF00BF002001901D48006840F443
:102EA00080401B4908600846006800F4804001909B
:102EB00000BF00BF012007900004089002200D9081
:102EC00041050E9104210F91A82110910221119129
:102ED0000421129107A8FEF7D3FF08B1FDF70AFC01
:102EE0000F20029002200390002004904FF4A05085
:102EF00005904FF480500690052102A8FEF760FE71
:102F000008B1FDF7F7FB13B000BD000040380240E8
:102F1000007000401448006840F4700012490860D6
:102F20001248006840F001001049086000200F4975
:102F3000083108600D4800680D4908400B490860D9
:102F40000C48091D0860081F006820F48020091F34
:102F50000860002005490C3108604FF0006002490C
:102F6000803908607047000088ED00E000380240BA
:102F7000FFFFF6FE1030002410B50248FFF761FA9B
:102F800010BD00009802002010B50268294B98423D
:102F90000ED0B0F1804F0BD0274B984208D0274B72
:102FA000984205D0264B984202D0264B984203D136
:102FB00022F070024B681A431E4B984220D0B0F1A9
:102FC000804F1DD01C4B98421AD01C4B984217D0F2
:102FD0001B4B984214D01B4B984211D01A4B98426D
:102FE0000ED01A4B98420BD0194B984208D0194B6F
:102FF000984205D0184B984202D0184B984203D102
:1030000022F44072CB681A4322F080034C6943EAF1
:10301000040202608B68C3620B688362054B9842AE
:1030200002D0084B984201D10B690363012343612D
:1030300010BD0000000001400004004000080040F6
:10304000000C0040000401400040014000440140E9
:103050000048014000180040001C004000200040D3
:1030600070B50546AC6B0020E085E0842046FFF794
:10307000F5FA70BD70B506460025B46B206840694E
:10308000C0F3C01594F83900212805D125B10020DE
:10309000E084204600F060F820684069C0F38015A5
:1030A00094F83A00222805D125B10020E085204679
:1030B00000F032F8E06B40F01000E0632046FFF7CC
:1030C000CDFA70BD70B50546AC6B2868006800F499
:1030D0008070B0B90020E0852068C06820F480705E
:1030E0002168C8602068406920F0010021684861BB
:1030F0002068406920F0400021684861202084F861
:103100003A002046FFF7DAFC70BD70B50446A56BA7
:103110002846FFF7D4FC70BD0168C96821F490719E
:103120000268D1600168496921F0010102685161BA
:10313000202180F83A10704710B504462068C06816
:1031400020F040002168C860202084F83900204623
:10315000FFF7B6FC002010BD0168C96821F0C0016E
:103160000268D160202180F83910704770B504469C
:1031700094F83A0022284AD1A068B0F5805F13D1B4
:10318000A56A206940B920684068C0F3080028801B
:10319000A06A801CA06219E020684068C0B2288044
:1031A000A06A401CA06211E0206938B9206840681C
:1031B000C1B2A26A501CA062117007E0206840688A
:1031C00000F07F01A26A501CA0621170E08D401EC9
:1031D00080B2E085C8B92068C06820F0200021686E
:1031E000C8602068C06820F480702168C8602068CA
:1031F000406920F0010021684861202084F83A00ED
:103200002046FFF75BFC002070BD0020FCE7022099
:10321000FAE700002DE9F04104462068006920F437
:103220004050E1680843216808612169A0680843AB
:1032300061690843E16940EA01052068C06849F214
:103240000C61884328432168C8602068406920F4E5
:103250004070A169084321684861E069B0F5004FFA
:103260007ED1C4492068884203D0C349206888427F
:103270005DD1FEF79DFD00EBC00101EB0010616820
:103280004900B0FBF1F06421B0FBF1F00601FEF75C
:103290008FFD00EBC00101EB001061684900B0FB3D
:1032A000F1F7FEF785FD00EBC00101EB001061684E
:1032B0004900B0FBF1F06421B0FBF1F000EBC0017C
:1032C00001EB0010A7EB8000322101EBC00064216C
:1032D000B0FBF1F000F0F80006EB4006FEF768FDE9
:1032E00000EBC00101EB001061684900B0FBF1F791
:1032F000FEF75EFD00EBC00101EB001061684900C4
:10330000B0FBF1F06421B0FBF1F000EBC00101EB88
:103310000010A7EB8000322101EBC0006421B0FB5C
:10332000F1F000F0070030442168886020E1FEF7EA
:103330002FFD00EBC00101EB001061684900B0FBFC
:10334000F1F06421B0FBF1F00601FEF721FD00EB86
:10335000C00101EB001061684900B0FBF1F700E02B
:1033600045E0FEF715FD00EBC00101EB00106168C0
:103370004900B0FBF1F06421B0FBF1F000EBC001BB
:1033800001EB0010A7EB8000322101EBC0006421AB
:10339000B0FBF1F000F0F80006EB4006FEF7F8FC99
:1033A00000EBC00101EB001061684900B0FBF1F7D0
:1033B000FEF7EEFC00EBC00101EB00106168490074
:1033C000B0FBF1F06421B0FBF1F000EBC00101EBC8
:1033D0000010A7EB8000322101EBC0006421B0FB9C
:1033E000F1F000F00700304421688860C0E06149D6
:1033F0002068884203D06049206888425CD1FEF78B
:10340000D7FC00EBC00101EB001061688900B0FB44
:10341000F1F6FEF7CDFC00EBC00101EB0010616896
:103420008900B0FBF1F06421B0FBF1F000EBC001CA
:1034300001EB0010A6EB8000322101EB00106421AB
:10344000B0FBF1F000F0F006FEF7B2FC00EBC001BB
:1034500001EB001061688900B0FBF1F06421B0FB62
:10346000F1F006EB0016FEF7A3FC00EBC00101EB48
:10347000001061688900B0FBF1F7FEF799FC00EBE2
:10348000C00101EB001061688900B0FBF1F064211C
:10349000B0FBF1F000EBC00101EB0010A7EB8000E6
:1034A000322101EB00106421B0FBF1F000F00F00BD
:1034B0003044216888605BE0FEF76AFC00EBC001E5
:1034C00001EB001061688900B0FBF1F6FEF760FCCB
:1034D00000EBC00101EB001061688900B0FBF1F066
:1034E0006421B0FBF1F000EBC00101EB0010A6EB92
:1034F0008000322101EB00106421B0FBF1F000F0FC
:10350000F006FEF745FC00EBC00101EB001061681E
:103510008900B0FBF1F06421B0FBF1F006EB00167E
:10352000FEF736FC00EBC00101EB0010616889007A
:10353000B0FBF1F7FEF72CFC00EBC00101EB001033
:1035400061688900B0FBF1F06421B0FBF1F000EBA1
:10355000C00101EB0010A7EB8000322101EB00104D
:103560006421B0FBF1F000F00F0030442168886066
:10357000BDE8F0810010014000140140014691F8BF
:10358000390021282CD18868B0F5805F0FD10A6AF4
:103590001088C0F308000B685860086918B9086AF9
:1035A000801C086209E0086A401C086205E00B6A9A
:1035B000581C086218780B685860C88C401E80B28E
:1035C000C88458B90868C06820F080000B68D860CB
:1035D0000868C06840F040000B68D8600020704761
:1035E0000220FCE710B5FCF7D1FE0248FFF738F8DF
:1035F00010BD0000F800002010B50248FFF730F8B9
:1036000010BD00003801002000BFFEE7024800683E
:10361000C0F30220704700000CED00E010B5002858
:1036200004DB0A07130E054A135406E00A07140EBA
:10363000034A00F00F031B1FD45410BD00E400E048
:1036400018ED00E002E008C8121F08C1002AFAD1F4
:1036500070477047002001E001C1121F002AFBD112
:103660007047000000B58BB000200A900790012041
:103670000890002001900290039004900590012092
:1036800009900020069001A90C48FDF749F80B4865
:10369000FDF709FE02210948FDF72DF80E200690DE
:1036A00001A90748FDF73CF80548FDF7FCFD02219C
:1036B0000348FDF720F80BB000BD000050000020CB
:1036C00078000020FEF78CF9FFF7CAFBFFF780FABD
:1036D000FFF742FAFFF7F8F9FFF7E6FAFFF706FB04
:1036E000FFF724FBFFF714FAFFF7BCFF00BFFEE76C
:1036F0000A490968096809B9012100E0002121B1DE
:103700004FF0FF31064A116006E004490968C968B4
:10371000C868034A41681160704700001800002023
:103720004400002001460A69D1E901309860D1E9DE
:10373000010358605068884201D1886850600020B9
:1037400008611068401E10601068704742684A6047
:1037500093688B60936859609160086103685B1C93
:10376000036070471D48006818B101201C490860BB
:1037700032E000201A4908601A480068B0FA80F068
:10378000C0F11F0101EB8100174A52F8200008B177
:10379000012000E0002050B900BF502080F31188C4
:1037A000BFF34F8FBFF36F8F00BF00BFFEE701EB8A
:1037B00081020D4B03EB820042685268426000F1C7
:1037C00008024368934202D14268526842604268EC
:1037D000D268064B1A6000BF704700004C00002002
:1037E000380000202C000020C4030020140000201A
:1037F0002DE9F0414FF0000844480068002877D1D7
:1038000043480068451C4248056015BB41480068B4
:10381000006808B9012000E0002050B900BF502026
:1038200080F31188BFF34F8FBFF36F8F00BF00BFCE
:10383000FEE7384807683848006836490860364867
:10384000076036480068401C34490860FFF750FFA5
:1038500000BF3348006885423CD300BF2D48006854
:10386000006808B9012000E0002020B14FF0FF30CF
:103870002B4908602DE027480068C068C468666866
:10388000B54202D22648066023E0201DFFF74AFF1A
:10389000A06A18B104F11800FFF744FF94F82C1047
:1038A000012088401F49096808431E490860E16AF1
:1038B00001EB81011C4A02EB8100211DFFF746FF4D
:1038C0001A49E06A0968C96A8842C7D34FF00108FB
:1038D000C4E700BF15480068C06A00EB80001249C9
:1038E00051F82000012801D94FF0010805E0FFE759
:1038F0000F480068401C0E4908600E48006808B177
:103900004FF001084046BDE8F08100004C00002067
:1039100028000020180000201C0000203C0000208F
:10392000440000202C000020C403002014000020CC
:103930003400002038000020000610160006101683
:10394000000000000000000001020304060708094F
:103950000000000001020304783900080000002084
:103960005000000044360008C8390008500000200C
:103970006808000054360008000000000000000045
:1039800010000000010000000024F400000000000E
:103990000000000000000000000000000000000027
:1039A0000000000000000000000000000000000017
:1039B0000000000000000000000000000000000007
:0839C0000000000000000000FF
:040000050800018965
:00000001FF
