:020000040800F2
:10000000907A00205D020008393F00082B35000877
:10001000ED3C00083B040008B94A0008000000005D
:100020000000000000000000000000009D0100082A
:100030006708000800000000F90100089D42000860
:1000400077020008770200087702000877020008AC
:10005000770200087702000877020008770200089C
:10006000770200087702000877020008770200088C
:100070002D070008770200087702000877020008C1
:10008000770200087702000877020008770200086C
:100090004104000877020008770200087702000890
:1000A000770200087702000877020008770200084C
:1000B000770200087702000877020008770200083C
:1000C000770200087702000877020008770200082C
:1000D000770200087702000877020008954A0008B6
:1000E000770200087702000877020008770200080C
:1000F00077020008E9430008770200087702000849
:1001000077020008770200087702000877020008EB
:1001100077020008770200087702000877020008DB
:10012000770200083D070008770200087702000800
:1001300077020008000000000000000077020008BD
:1001400077020008770200087702000877020008AB
:10015000770200084D07000877020008A94A000846
:10016000770200087702000877020008770200088B
:10017000770200087702000800000000000000007D
:100180007702000877020008DFF80CD000F0ECF8E6
:10019000004800473F500008907A00202C4B196817
:1001A0000868B0E8F04F80F30988BFF36F8F4FF015
:1001B000000080F3118870470000000008480068C4
:1001C000006880F308884FF0000080F3148862B65E
:1001D00061B6BFF34F8FBFF36F8F00DF00BF00BF6B
:1001E00008ED00E0DFF80C00016841F470010160E7
:1001F000704700BF88ED00E0EFF30980BFF36F8F19
:10020000134B1A681EF0100F08BF20ED108A20E96A
:10021000F04F106009B44FF0500080F31188BFF325
:100220004F8FBFF36F8F05F08BFC4FF0000080F312
:10023000118809BC19680868B0E8F04F1EF0100F6B
:1002400008BFB0EC108A80F30988BFF36F8F704746
:10025000C8000020EFF30580704700000648804783
:1002600006480047FEE7FEE7FEE7FEE7FEE7FEE79B
:10027000FEE7FEE7FEE7FEE7854300088901000888
:100280002DE9F05F0546002092469B4688460646CB
:10029000814640241BE0284641464746224600F05E
:1002A00053F853465A46C01A914110D31146184686
:1002B000224600F03AF82D1A67EB01084F46224615
:1002C0000120002100F031F817EB00094E41201EFB
:1002D000A4F10104DFDC484631462A464346BDE826
:1002E000F09F40EA01039B0703D009E008C9121FF1
:1002F00008C0042AFAD203E011F8013B00F8013BE0
:10030000521EF9D27047D2B201E000F8012B491E0B
:10031000FBD270470022F6E710B513460A460446A2
:100320001946FFF7F0FF204610BD202A04DB203AD3
:1003300000FA02F1002070479140C2F1200320FA38
:1003400003F3194390407047202A04DB203A21FA36
:1003500002F00021704721FA02F3D040C2F12002DE
:100360009140084319467047064C074D06E0E06887
:1003700040F0010394E8070098471034AC42F6D3EC
:10038000FFF706FF646100088461000870B58C18EF
:1003900010F8015B15F0070301D110F8013B2A1199
:1003A00006D110F8012B03E010F8016B01F8016B86
:1003B0005B1EF9D12B0705D40023521E0DD401F882
:1003C000013BFAE710F8013BCB1A921C03E013F84B
:1003D000015B01F8015B521EF9D5A142D8D3002080
:1003E00070BD70B504460E4615468C21252003F0DD
:1003F000E1FE2146262003F0DDFE05F18000C1B2BA
:10040000272003F0D7FE2A463146492003F0A8FEF4
:1004100070BD70B504460D460C21252003F0CAFEC0
:100420002146262003F0C6FE8121272003F0C2FECC
:100430002946632003F0BEFE70BD00BFFEE700004A
:1004400010B5024800F08CFD10BD00002C0100200A
:1004500010B58EB0044605F089F91C220E4907A894
:10046000FFF73FFF002107A804F00BFE0B490860CF
:100470001C2209491C316846FFF733FF00216846FA
:1004800004F0FFFD0649086005F09AF9002005F028
:100490007DFA0EB010BD0000C4600008040000200A
:1004A0000800002008B512480068006800F010003D
:1004B00010281BD10E4802F0D2FD00F04DF80D4A75
:1004C000517A107A03F014FC00BF00200090084815
:1004D000006800680090064800684068009000BF0F
:1004E00000BF19220449024802F0BAFF08BD00000B
:1004F000000400201A0600200006002010B501208C
:10050000084981F8260008480068C06840F01000DB
:1005100005490968C86019220449034802F0A0FF90
:1005200010BD00001A060020000400200006002074
:1005300010B50020074981F826000A2001F050FB81
:10054000044890F8260018B902200249087248723F
:1005500010BD00001A0600207248007871494978E1
:1005600040EA0120C0F30A00A0F580606E490880CF
:100570006C484078C0106B49897840EA4110C0F35C
:100580000A00A0F58060684948806648807880113C
:100590006449C97840EA81006249097940EA8120CA
:1005A000C0F30A00A0F580605F4988805D4800794B
:1005B00040105C49497940EAC110C0F30A00A0F537
:1005C00080605949C88057484079001180080872F6
:1005D00054484079C0F3011048725248007C514998
:1005E000497C40EA0120C0F30A004F49488108468F
:1005F0004089A0F5806000B248814A488079494925
:10060000C97940EA012000B2474988814548007A0B
:100610004449497A40EA012001B24348C181414836
:10062000807A4049C97A40EA012001B23E480182FD
:100630003C48017B3C4881743A48417B3A48C1744C
:100640003848807B3749C97B40EA01203649888297
:100650003448807B00F00101334881753148807B4C
:10066000C0F340013048C1752E48807BC0F3800143
:100670002D4801762B48807BC0F3C0012A48417683
:100680002848807BC0F30011274881762548807B6D
:10069000C0F340112448C1762248807BC0F380110A
:1006A000214801771F48807BC1091F4841771D48B9
:1006B000C07B00F001011C4881771A48C07BC0F361
:1006C00040011948C1771748C07BC0F38001164824
:1006D00080F820101348C07BC0F3C001124880F896
:1006E00021101048C07BC0F300110F4880F8221081
:1006F0000C48C07BC0F340110B4880F82310094818
:10070000C07BC0F38011084880F824100548C07BE6
:10071000C109054880F825100120034981F8260009
:1007200000207047000600201A06002010B502487D
:1007300001F070F810BD00008004002010B50248E0
:1007400001F068F810BD0000E004002010B5024878
:1007500001F060F810BD0000400500200146087857
:1007600010381823B0FBF3F20848805CC865032AF0
:1007700005D908686FF30900001D886503E0086863
:100780006FF309008865886D70470000FC60000801
:10079000014600208A6A8B69CBB932B1012A0DD09B
:1007A000022A03D0032A10D10EE000BFCB6A03F067
:1007B0008073B3F1807F00D1012007E0CB6AB3F1F1
:1007C000C07F00D1012001E000E000BF34E08B6970
:1007D000B3F5005F1AD132B1012A07D0022A03D043
:1007E000032A11D10AE000BF01200EE0CB6A03F01A
:1007F0008073B3F1807F00D1012006E0CB6AB3F1B2
:10080000C07F00D1012000E000BF15E032B1012A15
:1008100005D0022A04D0032A0CD103E000BF00BF98
:10082000012008E0CB6A03F08073B3F1807F00D130
:10083000012000E000BF00BF704730B504682468A5
:1008400024F4802405682C60046863608468402C6C
:1008500004D10468A2600468E16003E00468A16058
:100860000468E26030BD70477047000010B5002298
:1008700001B909E0012901D10A0205E0022901D1EB
:100880000A0201E04FF440720E4B1B6823F44073E0
:100890000C4C236023461B681343236023461B68CC
:1008A00023F0F803236023461B68022444EAC004B3
:1008B0002343044C236023461B6843F480332360A6
:1008C00010BD0000103C0240074A126822F440723A
:1008D000054B1A601A4612681A601A46126842F0EE
:1008E00001021A6001707047103C024010B50949BE
:1008F000096821F44071074C21602146096841F4E0
:10090000407121602146096841F0010121600260C7
:10091000436010BD103C0240084A126822F4407245
:10092000064B1A601A46126842F480721A601A4620
:10093000126842F001021A6001807047103C0240C8
:10094000084A126822F44072064B1A601A4612686E
:1009500042F400721A601A46126842F001021A60EC
:1009600001607047103C02402348006800F010000E
:1009700040B12248C06940F010002049C8611020F1
:100980001D4908601C48006800F0200040B11B4869
:10099000C06940F008001949C86120201649086064
:1009A0001548006800F0400040B11448C06940F0AC
:1009B00004001249C86140200F4908600E480068D1
:1009C00000F0800040B10D48C06940F002000B49C2
:1009D000C8618020084908600748006800F00200EC
:1009E00040B10648C06940F020000449C8610220B7
:1009F00001490860704700000C3C0240E0050020FF
:100A000070B50446002500201449C86101F072FA4F
:100A1000054609E0601C38B124B101F06BFA401BB7
:100A2000A04201D9032070BD0D48006800F4803059
:100A30000028EFD10A48006800F0010010B1012041
:100A4000074908600648006800F0F20018B1FFF797
:100A50008BFF0120E7E70020E5E70000E00500202C
:100A60000C3C024008B50146034800EB4102106807
:100A70000090BDF9000008BD00000E082DE9F04708
:100A800005460E469146134800EB450A01F012F95F
:100A900033201149086002210B20FFF7E7FE0024F4
:100AA0000FE036F91400C31707460AEB44013A4633
:100AB000012001F0B3F810B10020BDE8F087601C00
:100AC000C4B24C4502DA05488245EAD301F09CF8ED
:100AD0000120F2E700000E080C3C0240FBFF0F086B
:100AE00010B5024692F82030012B01D0022B06D11E
:100AF00010684069084314686061002010BD506AA6
:100B000040F4802050620120F8E7F0B504460D461D
:100B10001E4694F8207020688368A86800B900E039
:100B200000BF012F01D0022F7CD103F0806030B9CB
:100B300003F0006018B903F08050002873D0C3F3AD
:100B40000161022905D9606A40F400006062012059
:100B5000F0BD012088403060A86860B9B5F800C0D9
:100B6000E86840EA4C5C206800F5C07000EB0110BA
:100B7000C0F800C00FE0D5E901C040EACC00D5F8CC
:100B80000CC040EA0C00D4F800C00CF5C07C0CEBA3
:100B9000011CCCF80000D5F810C0206800F5C0702A
:100BA00000EB0110C0F804C0287D01280ED1206898
:100BB00000F5C07000EB0110406840F4807C2068B4
:100BC00000F5C07000EB0110C0F804C0D079000639
:100BD00092F806C040EA0C4092F805C040EA0C2C9E
:100BE00010794CEA000C206800F5C07000EB011091
:100BF000C0F80CC0D078000692F802C040EA0C4061
:100C000092F801C040EA0C2092F800C040EA0C00C3
:100C1000D4F800C00CF5C07C0CEB011CCCF808002B
:100C2000206801E016E00FE000F5C07000EB011055
:100C3000006840F0010C206800F5C07000EB011066
:100C4000C0F800C0002083E7606A40F400106062D2
:100C500001207DE7606A40F480206062012077E730
:100C6000F0B504460A46216894F82050012D01D0C1
:100C7000022D7ED1424901F50071086840F0010063
:100C80000860086820F47C5008600868566A40EAEA
:100C900006200860107D00F01F06012000FA06F310
:100CA000C8699843C861A1F50071D069C8B9D1F885
:100CB0000C029843C1F80C02908880B2968940EAF1
:100CC000064601F51070576940F83760108880B209
:100CD000168940EA064601F51070576900EBC70017
:100CE0004660D069012819D1D1F80C021843C1F827
:100CF0000C02908880B2168840EA064601F5107012
:100D0000576940F83760908980B2168940EA0646F4
:100D100001F51070576900EBC7004660906928B96B
:100D2000D1F804029843C1F8040204E0D1F80402A7
:100D30001843C1F80402106928B9D1F81402984385
:100D4000C1F8140204E0D1F814021843C1F81402E7
:100D5000106A012804D1D1F81C021843C1F81C0202
:100D6000D1F8000220F00100C1F800020020F0BD1F
:100D7000FFE7606A40F4802060620120F7E700002E
:100D800000640040704710B50246002092F8203001
:100D9000012B01D0022B09D121B91468E46804F0B9
:100DA000030003E01468246904F0030010BD70B56B
:100DB000044694F82050012D01D0022D7CD151B968
:100DC0002068C06800F0030080B9606A40F4001039
:100DD0006062012070BD2068006900F0030028B93E
:100DE000606A40F4001060620120F3E7206800F5BB
:100DF000D87000EB0110006800F00400906090686B
:100E000040B9206800F5D87000EB01100068400D73
:100E1000106007E0206800F5D87000EB0110006852
:100E2000C0085060206800F5D87000EB0110006821
:100E300000F002004008D060206800F5D87000EB98
:100E40000110406800F00F001061206800F5D870B4
:100E500000EB0110406800F47F40000A90612068B8
:100E600000F5D87000EB01104068000C506120685C
:100E700000F5D87000EB011080681870206800F54C
:100E8000D87000EB0110806800F47F40000A5870B1
:100E9000206800F5D87000EB0110806800F47F0036
:100EA000000C9870206800F5D87000EB0110806885
:100EB000000ED870206800E031E000F5D87000EB3B
:100EC0000110C0681871206800F5D87000EB01109F
:100ED000C06800F47F40000A5871206800F5D8709F
:100EE00000EB0110C06800F47F00000C98712068CE
:100EF00000F5D87000EB0110C068000ED87131B950
:100F00002068C06840F020002668F06005E0206896
:100F1000006940F020002668306100205AE7606ACE
:100F200040F480206062012054E70146002091F8DF
:100F30002020012A01D0022A11D10B689B6803F0FE
:100F4000806303B1401C0B689B6803F0006303B12E
:100F5000401C0B689B6803F0805303B1401C704732
:100F60002DE9F05F04460025206846692068D0F826
:100F70000490206887682068D0F80CA02068D0F81A
:100F800010B02068D0F8188006F00100002855D075
:100F900007F00100C0B101202168886007F002005D
:100FA00018B1204600F0C7FB0EE007F0040010B1B6
:100FB00045F4006508E007F0080010B145F48055DD
:100FC00002E0204600F0B6FB07F48070C8B14FF491
:100FD00080702168886007F4007018B1204600F026
:100FE000ACFB0EE007F4806010B145F4005508E05A
:100FF00007F4006010B145F4804502E0204600F09F
:101000009BFB07F48030C8B14FF4803021688860C2
:1010100007F4003018B1204600F091FB0EE007F411
:10102000802010B145F4004508E007F4002010B11D
:1010300045F4803502E0204600F080FB06F0080011
:1010400038B10AF0100020B145F400751020216875
:10105000C86006F0040040B10AF0080028B108207A
:101060002168C860204600F0A9F906F0020038B1F6
:101070002068C06800F0030010B1204600F0A0F91D
:1010800006F0400038B10BF0100020B145F4806547
:1010900010202168086106F0200040B10BF0080024
:1010A00028B1082021680861204600F011FB06F0F5
:1010B000100038B12068006900F0030010B120462C
:1010C00000F007FB06F4003040B109F0100028B131
:1010D000102021684860204600F0FCFA06F48030B9
:1010E00040B109F0080028B1082021684860204676
:1010F00000F026FB06F4004088B309F0040078B342
:1011000006F4807020B108F0010008B145F0010537
:1011100006F4007020B108F0020008B145F00205A5
:1011200006F4806020B108F0040008B145F0040521
:1011300006F40060A0B108F0700088B108F07000FB
:10114000402817D006DC10280BD020280CD03028DF
:1011500019D10CE0502810D0602814D110E01DE007
:1011600019E045F008050FE045F010050CE045F0EA
:10117000200509E045F0400506E045F0800503E064
:1011800045F4807500E000BF00BF2068806920F052
:101190007000216888610420216848602DB1606A70
:1011A000284360622046FFF7EDFDBDE8F09F70B573
:1011B00004460CB9012070BD94F8200010B92046F7
:1011C00000F0B0F82068006820F002002168086094
:1011D00000F090FE05460DE000F08CFE401B0A2852
:1011E00008D9606A40F400306062052084F820006D
:1011F0000120E0E72068406800F002000028EBD101
:101200002068006840F001002168086000F072FE6C
:1012100005460DE000F06EFE401B0A2808D9606A02
:1012200040F400306062052084F820000120C2E70D
:101230002068406800F001000028EBD0207E0128E3
:1012400006D12068006840F080002168086005E051
:101250002068006820F0800021680860607E012816
:1012600006D12068006840F040002168086005E071
:101270002068006820F0400021680860A07E0128F6
:1012800006D12068006840F020002168086005E071
:101290002068006820F0200021680860E07E0128B6
:1012A00006D12068006820F010002168086005E081
:1012B0002068006840F0100021680860207F012845
:1012C00006D12068006840F008002168086005E049
:1012D0002068006820F0080021680860607F01280D
:1012E00006D12068006840F004002168086005E02D
:1012F0002068006820F0040021680860D4E9020139
:10130000084321690843616908436168491E08432D
:101310002168C86100206062012084F8200000205C
:1013200049E7000010B586B00446142101A8FEF775
:10133000F1FF1F492068884238D100BF002000908B
:101340001C48006840F000701A49086008460068B0
:1013500000F00070009000BF00BF00BF00200090B0
:1013600014481038006840F0010012491039086034
:101370000846006800F00100009000BF00BF4FF475
:10138000C05001900220029000200390032004909E
:101390000920059001A9084800F0A6FC00220521BB
:1013A000142000F057FE142000F044FE06B010BDDB
:1013B00000640040403802400000024070470000D6
:1013C0001CB5044600212046FFF7DDFC00287DD037
:1013D0006B46BD4A00212046FFF7E9FCBA48006889
:1013E000A0F20120062872D2DFE800F0033C78B1B9
:1013F000F0EE9DF80000000200B29DF801100843D5
:1014000000EE100AB8EEC00AB04880ED010A9DF85F
:101410000200000200B29DF80310084300EE100A1B
:10142000B8EEC00AA94880ED000A9DF80400000249
:1014300000B29DF80510084300EE100AB8EEC00A8D
:10144000A24880ED020A9DF80600000200B29DF855
:101450000710084300EE100AB8EEC00A9B4880ED62
:10146000030A2EE19DF80000000200B29DF8011071
:10147000084300EE100AB8EEC00A944880ED060A50
:101480009DF80200000200B29DF80310084300EE30
:10149000100AB8EEC00A8D4880ED050A9DF80400D8
:1014A000000200B29DF80510084300EE100AB8EEE5
:1014B000C00A864880ED070A9DF80600000200B2C7
:1014C0009DF80710084300EE100A01E0FAE0F7E08B
:1014D000B8EEC00A7D4880ED080AF2E09DF80000F1
:1014E000000200B29DF80110084300EE100AB8EEA9
:1014F000C00A764880ED0B0A9DF80200000200B297
:101500009DF80310084300EE100AB8EEC00A6F48B9
:1015100080ED0A0A9DF80400000200B29DF8051053
:10152000084300EE100AB8EEC00A684880ED0C0AC5
:101530009DF80600000200B29DF80710084300EE77
:10154000100AB8EEC00A614880ED0D0AB9E0042126
:101550005E48A0F84C109DF80000000200B29DF813
:101560000110084300EE100AB8EEC00A574880ED9B
:10157000100A9DF80200000200B29DF80310084313
:1015800000EE100AB8EEC00A504880ED0F0A9DF830
:101590000400000200B29DF80510084300EE100A96
:1015A000B8EEC00A494880ED110A9DF80600000215
:1015B00000B29DF80710084300EE100AB8EEC00A0A
:1015C000424880ED120A7CE03DE0FFE705213F48FC
:1015D000A0F860109DF80000000200B29DF8011014
:1015E000084300EE100AB8EEC00A384880ED150A2C
:1015F0009DF80200000200B29DF80310084300EEBF
:10160000100AB8EEC00A314880ED140A9DF80400B3
:10161000000200B29DF80510084300EE100AB8EE73
:10162000C00A2A4880ED160A9DF80600000200B2A2
:101630009DF80710084300EE100AB8EEC00A2348D0
:1016400080ED170A3DE006212048A0F874109DF8AF
:101650000000000200B29DF80110084300EE100ADD
:10166000B8EEC00A194880ED1A0A9DF8020000027F
:1016700000B29DF80310084300EE100AB8EEC00A4D
:10168000124880ED190A9DF80400000200B29DF88E
:101690000510084300EE100AB8EEC00A0B4880EDB2
:1016A0001B0A9DF80600000200B29DF807100843CF
:1016B00000EE100AB8EEC00A044880ED1C0A00E0F3
:1016C00000BF00BF1CBD000060380020E8370020CC
:1016D00070477047704770B5044694F820000128A1
:1016E00022D1022084F820002068006820F0010048
:1016F0002168086000F0FEFB05460DE000F0FAFBF3
:10170000401B0A2808D9606A40F400306062052056
:1017100084F82000012070BD2068406800F00100BE
:101720000028EBD16062F6E7606A40F40020606256
:101730000120F0E770477047704770477047704767
:10174000704770B50446A56D00F0D4FB064694F8CA
:101750003500022808D08020606500BF002084F892
:10176000340000BF012070BD2068006820F0160022
:10177000216808602068406920F080002168486185
:10178000206C08B9A06C28B12068006820F008001F
:10179000216808602068006820F001002168086066
:1017A0000FE000F0A7FB801B05280AD92020606508
:1017B00000BF002084F8340000BF032084F8350007
:1017C000D1E72068006800F001000028E9D194F812
:1017D0005C103F208840A86000BF002084F83400DF
:1017E00000BF012084F835000020BCE7014691F8D5
:1017F0003500022803D0802048650120704705206D
:1018000081F835000868006820F001000A6810605F
:101810000020F3E7F8B50446002000908C480068EB
:101820004FF41651B0FBF1F7A56D2E6894F85C10DB
:1018300008208840304098B12068006800F004001B
:1018400070B12068006820F004002168086094F8F6
:101850005C1008208840A860606D40F00100606561
:1018600094F85C1001208840304068B120684069DD
:1018700000F0800040B194F85C1001208840A8601E
:10188000606D40F00200606594F85C1004208840B0
:10189000304068B12068006800F0020040B194F860
:1018A0005C1004208840A860606D40F00400606512
:1018B00094F85C1010208840304078B320680068AD
:1018C00000F0080050B394F85C1010208840A86025
:1018D0002068006800F4802080B12068006800F46F
:1018E000002028B9206CC8B12046216C884715E03B
:1018F000A06C98B12046A16C88470FE02068006872
:1019000000F4807028B92068006820F00800216881
:101910000860206C10B12046216C884794F85C1058
:10192000202088403040002865D02068006800F002
:10193000100000285FD094F85C1020208840A86038
:1019400094F83500052828D12068006820F016009A
:10195000216808602068406920F0800021684861A3
:10196000206C08B9A06C28B12068006820F008003D
:101970002168086094F85C103F208840A86000BF90
:10198000002084F8340000BF012084F83500206D69
:1019900010B12046216D8847F8BD2068006800F42A
:1019A000802080B12068006800F4002028B9606CB5
:1019B00010B12046616C88471DE0E06BD8B120462D
:1019C000E16B884717E02068006800F4807068B910
:1019D0002068006820F010002168086000BF002027
:1019E00084F8340000BF012084F83500E06B10B1AA
:1019F0002046E16B8847606D38B3606D00F00100F0
:101A0000F0B1052084F835002068006820F001005E
:101A10002168086000BF0098401C0090B84200D9BF
:101A200005E02068006800F001000028F3D100BF45
:101A300000BF002084F8340000BF012084F8350086
:101A4000E06C10B12046E16C884700BFA4E70000BD
:101A5000180000202DE9F0410446002500F04AFA64
:101A6000074614B90120BDE8F081606A00B100BFEB
:101A700000BF002084F8340000BF022084F8350045
:101A80002068006820F00100216808600AE000F08A
:101A900031FAC01B052805D920206065032084F891
:101AA0003500E0E72068006800F001000028EED172
:101AB0002068056821480540D4E901010843E16830
:101AC00008432169084361690843A1690843E16942
:101AD0000843216A08430543606A042803D1D4E916
:101AE0000B0108430543206805602068456925F01F
:101AF0000705606A0543606A04280DD1A06A0543A2
:101B0000E06A48B12046FEF743FE28B140206065F8
:101B1000012084F83500A6E7206845612046FEF7DD
:101B20001DFE064694F85C103F208840B0600020FF
:101B30006065012084F83500002094E73F8010F0B4
:101B40002DE9F04704460D4616461F464FF00008A3
:101B5000D4F8589000BF94F83400012802D1022034
:101B6000BDE8F087012084F8340000BF94F8350008
:101B700001282BD1022084F83500002060653B4607
:101B8000324629462046FEF758FE94F85C103F2066
:101B90008840C9F808002068006840F016002168F5
:101BA00008602068406940F0800021684861206C2E
:101BB00028B12068006840F00800216808602068AB
:101BC000006840F001002168086006E000BF0020C6
:101BD00084F8340000BF4FF002084046C0E7000020
:101BE00070B5044600F086F906462546681C10B11B
:101BF00004480078054400BF00F07CF9801BA8422F
:101C0000FAD370BD140000200348006840F0004083
:101C10000149086000207047103C02402DE9F04166
:101C200006460F4614461D464FF0010800BF1F48E8
:101C3000007E012802D10220BDE8F08101201B496D
:101C4000087600BF4CF25030FEF7DAFE8046B8F15D
:101C5000000F23D126B9E1B23846FEF735FE12E077
:101C6000012E04D1A1B23846FEF756FE0BE0022E3B
:101C700004D121463846FEF763FE04E022462B4697
:101C80003846FEF733FE4CF25030FEF7B9FE804680
:101C90000748006820F001000549086000BF0020E7
:101CA0000249087600BF4046C6E70000E005002074
:101CB000103C024000200949096801F0004159B177
:101CC0000749064A0C3A1160064911600349096840
:101CD00001F0004101B1012070470000103C0240BA
:101CE00023016745AB89EFCDF8B502460B460025C9
:101CF000002400200021DCE0012606FA01F51E6820
:101D000006EA0504AC4273D15E68022E02D05E681A
:101D1000122E13D1CF0802F1200656F827004E07E5
:101D2000F70E0F26BE40B0434F07FF0E1E69BE40A0
:101D30003043CF0802F1200646F8270010684F0014
:101D40000326BE40B0431E7906F003064F00BE4096
:101D5000304310605E68012E08D05E68022E05D008
:101D60005E68112E02D05E68122E13D190684F006B
:101D70000326BE40B0434F00DE68BE403043906053
:101D8000506801268E40B0431E79C6F300168E407F
:101D900030435060D0684F000326BE40B0434F0030
:101DA0009E68BE403043D0605E6806F08056B6F153
:101DB000805F7DD100BF00260096404E366846F415
:101DC00080463E4F3E603E46366806F480460096AA
:101DD00000BF00BF3A4E8F0856F827008E07370F16
:101DE0000F26BE40B043374EB24202D1002624E057
:101DF0005EE0354EB24201D101261EE0334EB242C2
:101E000001D1022619E0324EB24201D1032614E07C
:101E1000304EB24201D104260FE02F4EB24201D122
:101E200005260AE02D4EB24201D1062605E02C4ED1
:101E3000B24201D1072600E008268F073F0FBE40BF
:101E400030431F4E8F0846F82700264E3068A043C7
:101E50005E6806F48036B6F5803F00D12043214EFF
:101E60003060361D3068A0435E6806F40036B6F573
:101E7000003F00D120431B4E361D3060361D3068B8
:101E8000A0435E6806F48016B6F5801F00D120439B
:101E9000144E08363060361D3068A0435E6806F484
:101EA0000016B6F5001F00D120430E4E0C363060F0
:101EB000491C1029FFF420AFF8BD0000443802404F
:101EC00008380140000002400004024000080240BF
:101ED000000C0240001002400014024000180240B2
:101EE000001C0240003C01400AB1816101E00B048A
:101EF0008361704701480068704700000C000020B3
:101F0000034800680349097808440149086070479C
:101F10000C0000201400002010B50D48006840F4AB
:101F200000700B4908600846006840F48060086053
:101F30000846006840F480700860032000F0C8F88C
:101F4000002000F007F800F04BF8002010BD000062
:101F5000003C024070B588B00446002500260022EF
:101F600021462D2000F076F82D2000F063F800BF08
:101F7000002001901648006840F480701449086001
:101F80000846006800F48070019000BF00BF02A9FD
:101F900003A800F071F900F097F945000D48B5FB72
:101FA000F0F0461E0C480D49086040F2E7310B483E
:101FB000C160466000210161816000F045FF20B9E9
:101FC000064800F05CFF08B070BD0120FBE7000090
:101FD0004038024040420F0000200040A005002091
:101FE00008B500BF002000901148006840F4804010
:101FF0000F4908600846006800F48040009000BF68
:1020000000BF00BF00200090081F006840F0805013
:10201000091F08600846006800F08050009000BF6B
:1020200000BF00220F21901E00F014F808BD000030
:102030004438024001460846002809DB00F01F032F
:1020400001229A4043099B0003F1E023C3F80021D9
:1020500000BF70472DE9F05F80460D461646002709
:1020600002F040FD074639462A46334601F0070094
:10207000C0F1070ABAF1040F02D94FF0040A01E0D7
:10208000C0F1070AD14600F1040ABAF1070F02D2E3
:102090004FF0000A01E0A0F1030AD4464FF0010A14
:1020A0000AFA09FAAAF1010A0AEA020A0AFA0CFA79
:1020B0004FF0010B0BFA0CFBABF1010B0BEA030B1E
:1020C0004AEA0B042146404602F014FDBDE8F09FA9
:1020D00000BF00F00702064B19684FF6FF031940D6
:1020E000044B0B4343EA0221014B196000BF7047C8
:1020F0000CED00E00000FA0570B504460D460CB981
:10210000012070BD5848006800F00F00A84209D2B5
:1021100055490D700846006800F00F00A84201D034
:102120000120EEE7207800F0020002281DD120787F
:1021300000F00400042805D14C48006840F4E05049
:102140004A490860207800F00800082805D147486F
:10215000006840F46040454908604448006820F049
:10216000F000A168084341490860207800F00100B0
:10217000A8B36068012807D13C4808380068C0F35C
:102180004040B8B90120BCE76068022802D060680E
:10219000032807D1354808380068C0F3406048B9C3
:1021A0000120AEE7314808380068C0F3400008B9A4
:1021B0000120A6E72D48006820F00300616808436D
:1021C0002A490860FFF796FE064609E0FFF792FEEF
:1021D000801B41F28831884202D9032091E707E051
:1021E0002248006800F00C006168B0EB810FEDD16F
:1021F0001D48006800F00F00A84209D91A490D7067
:102200000846006800F00F00A84201D0012078E7DE
:10221000207800F00400042807D11448006820F456
:10222000E050E168084311490860207800F0080098
:10223000082808D10D48006820F46040216940EA70
:10224000C1000A49086000F05FF808490968C1F355
:102250000311074A515CC840064908600020FFF797
:1022600079FE00204DE70000003C024008380240A3
:1022700004610008180000200F2202600D4A126855
:1022800002F0030242600B4A126802F0F002826020
:10229000084A126802F4E052C260064A126802F468
:1022A0006042D2080261044A126802F00F020A601A
:1022B0007047000008380240003C024001480068B6
:1022C000704700001800002000B5FFF7F7FF044931
:1022D0000968C1F38221034A515CC84000BD000077
:1022E000083802401461000800B5FFF7E7FF044911
:1022F0000968C1F34231034A515CC84000BD000087
:1023000008380240146100082DE9F0470024002538
:102310000026A1462548006800F00C0020B10428E2
:1023200005D008283AD105E0DFF8849039E0DFF8DD
:10233000849036E01D48001F006800F03F041B48F1
:10234000001F006800F4800078B11A481749091F7F
:102350000968C1F38811A0FB0170014622460023E1
:102360003846FDF78DFF05460EE011480F49091F5D
:102370000968C1F38811A0FB0170014622460023C1
:102380003846FDF77DFF05460848001F0068C0F38A
:102390000140401C4600B5FBF6F902E0DFF8109062
:1023A00000BF00BF4846BDE8F08700000838024083
:1023B0000024F40000127A00F8B504460CB901209C
:1023C000F8BD207800F00100002874D0F9480068BA
:1023D00000F00C0004280DD0F648006800F00C0056
:1023E000082813D1F348001F006800F48000B0F5FE
:1023F000800F0BD1EF4808380068C0F34040002838
:1024000059D06068002856D10120D9E700BF606824
:10241000B0F5803F08D1E7480838006840F48030C4
:10242000E449083908601EE06068B0F5A02F0DD1BE
:10243000E0480838006840F48020DE490839086028
:102440000846006840F4803008600CE0D94808383D
:10245000006820F48030D7490839086008460068D1
:1024600020F48020086000BF606890B1FFF742FD53
:10247000054606E0FFF73EFD401B642801D9032016
:102480009EE7CC4808380068C0F340400028F1D0EF
:1024900011E0FFF72FFD054606E0FFF72BFD401B7F
:1024A000642801D903208BE7C24808380068C0F3CC
:1024B00040400028F1D1207800F0020002285FD1CE
:1024C000BC48006800F00C0058B1BA48006800F041
:1024D0000C0008281CD1B748001F006800F48000D9
:1024E000B0B9B44808380068C0F3400020B1E068D3
:1024F000012801D0012063E7AE480838006820F0C9
:10250000F800216940EAC100AA490839086037E0AB
:10251000E06800B30120A8490860FFF7EBFC05461E
:1025200006E0FFF7E7FC401B022801D9032047E73C
:10253000A04808380068C0F340000028F1D09D484A
:102540000838006820F0F800216940EAC100994984
:102550000839086014E0002097490860FFF7CAFCBA
:10256000054606E0FFF7C6FC401B022801D9032000
:1025700026E7904808380068C0F340000028F1D1F1
:10258000207800F0080008282CD16069A8B101204B
:102590008A490860FFF7AEFC054606E0FFF7AAFC93
:1025A000401B022801D903200AE782486C300068EA
:1025B000C0F340000028F1D014E000207F490860FB
:1025C000FFF798FC054606E0FFF794FC401B022845
:1025D00001D90320F4E677486C300068C0F340006E
:1025E0000028F1D1207800F00400042870D10026E2
:1025F00070483830006800F0805090B900BF00206B
:1026000000906C483830006840F08050694938319B
:1026100008600846006800F08050009000BF00BFCE
:1026200001266748006800F48070B0B9644800680B
:1026300040F4807062490860FFF75CFC054606E0E4
:10264000FFF758FC401B022801D90320B8E65C487C
:10265000006800F480700028F2D000BFA068012854
:1026600008D154486830006840F001005149683191
:1026700008601DE0A06805280DD14E48683000684C
:1026800040F004004B49683108600846006840F09B
:10269000010008600CE047486830006820F0010045
:1026A0004449683108600846006820F0040008606A
:1026B00000BFA068A8B1FFF71DFC054609E0FFF7C1
:1026C00019FC401B41F28831884202D9032077E689
:1026D00026E0384868300068C0F340000028EED09B
:1026E00013E0FFF707FC054608E0FFF703FC401B7B
:1026F00041F28831884201D9032061E62D486830D3
:102700000068C0F340000028EFD1012E07D129480E
:102710003830006820F0805026493831086000BF0A
:10272000A069B8B32348006800F00C0008285ED008
:10273000A069022846D100201F490866FFF7DAFB8E
:10274000054606E0FFF7D6FB401B022801D903200F
:1027500036E6184808380068C0F340600028F1D118
:10276000D4E907010843616A40EA81110122A06AA5
:10277000C2EB500041EA00412C20005D41EA0060BC
:102780000C49091F086001200B490866FFF7B2FBDE
:10279000054607E02DE0FFF7ADFB401B022801D9FD
:1027A00003200DE6034808380068C0F340600028A5
:1027B000F1D01EE00838024000004742800E474238
:1027C0000070004000200C490866FFF793FB0546A7
:1027D00006E0FFF78FFB401B022801D90320EFE53D
:1027E00006480068C0F340600028F2D101E00120F3
:1027F000E6E50020E4E50000000047420038024022
:1028000010B504460CB9012010BD606A00B900BFC4
:102810000021A16294F8510028B9002084F85000EA
:10282000204600F033F8022084F851002068006848
:1028300020F0400021680860D4E901010843E16804
:1028400008432169084361690843218B01F4007141
:102850000843E1690843216A0843A16A08432168E3
:1028600008600421A06901EA1040616A08432168F8
:1028700048602068C06920F400602168C8610020B9
:102880006065012084F851000020BDE710B586B0D6
:102890000446142101A8FDF73DFD1B49206888422C
:1028A0002FD100BF002000901848006840F48050ED
:1028B000164908600846006800F48050009000BF88
:1028C00000BF00BF0020009010481438006840F09E
:1028D00001000E49143908600846006800F0010044
:1028E000009000BF00BFE020019002200290002075
:1028F0000390032004900520059001A90448FFF7E8
:10290000F3F906B010BD0000003001404438024029
:10291000000002402DE9F8430446884616461D464D
:102920004FF000096068B0F5827F0DD1A06858B9FA
:10293000042084F851003346424641462046009523
:1029400000F06BF9BDE8F88300BF94F8500001284F
:1029500001D10220F6E7012084F8500000BFFFF704
:10296000C9FA074694F85100012802D04FF0020935
:1029700078E0B8F1000F00D016B94FF0010971E00E
:10298000042084F8510000206065C4F83880A687D0
:10299000E6872063A086E08620646064A068B0F5C6
:1029A000004F05D12068006820F48040216808604D
:1029B0002068006800F04000402805D020680068CA
:1029C00040F0400021680860E068F8B91AE020682B
:1029D000806800F0010050B12068007BA16B087096
:1029E000A06B401CA063E08F401EE0870AE0FFF769
:1029F00081FAC01BA84201D3681C00B915B94FF079
:102A000003092FE0E08F0028E1D11EE01AE02068E2
:102A1000806800F0010050B12068C068A16B088098
:102A2000A06B801CA063E08F401EE0870AE0FFF7E8
:102A300061FAC01BA84201D3681C00B915B94FF058
:102A400003090FE0E08F0028E1D13A4629462046ED
:102A500001F042FB08B120206065606D08B14FF0C5
:102A6000010900BF012084F8510000BF002084F854
:102A7000500000BF484665E72DE9F84F04468846F8
:102A800016461D464FF0000A00BF94F8500001287A
:102A900002D10220BDE8F88F012084F8500000BF69
:102AA000FFF728FA0746B14694F85100012802D0F2
:102AB0004FF0020AA7E0B8F1000F00D016B94FF0AE
:102AC000010AA0E0032084F8510000206065C4F8EA
:102AD0003080A686E686A063A087E08760642064D5
:102AE000A068B0F5004F05D12068006840F4804030
:102AF000216808602068006800F04000402805D088
:102B00002068006840F0400021680860E068B0F587
:102B1000006F2FD1606810B1B9F1010F09D1206B9E
:102B200000882168C860206B801C2063E08E401EF6
:102B3000E0861BE02068806800F0020002280AD1CD
:102B4000206B00882168C860206B801C2063E08EA9
:102B5000401EE0860AE0FFF7CDF9C01BA84201D372
:102B6000681C00B915B94FF0030A4CE0E08E00284C
:102B7000E0D12EE0606810B1B9F1010F09D1206BEE
:102B8000007821680873206B401C2063E08E401E93
:102B9000E0861BE02068806800F0020002280AD16D
:102BA000206B007821680873206B401C2063E08E46
:102BB000401EE0860AE0FFF79DF9C01BA84201D342
:102BC000681C00B915B94FF0030A1CE0E08E00281C
:102BD000E0D13A462946204601F0A4FA08B1202067
:102BE0006065A06850B900BF002000902068C068F0
:102BF000009020688068009000BF00BF606D08B141
:102C00004FF0010A00BF012084F8510000BF0020EE
:102C100084F8500000BF50463CE72DE9FF5F0446B2
:102C2000884691461D460E9E01200290002001908C
:102C300000BF94F85000012803D1022004B0BDE881
:102C4000F09F012084F8500000BFFFF753F90746BA
:102C500094F851B060680390AA46BBF1010F0BD005
:102C60000398B0F5827F04D1A06810B9BBF1040FBE
:102C700002D002200190DBE0B8F1000F03D0B9F1DF
:102C8000000F00D015B901200190D1E094F8510057
:102C9000042802D0052084F8510000206065C4F8A3
:102CA0003890E587A587C4F83080E586A58620643E
:102CB00060642068006800F04000402805D020686B
:102CC000006840F0400021680860E068B0F5006FDF
:102CD0004AD1606810B1BAF1010F09D1206B0088A8
:102CE0002168C860206B801C2063E08E401EE08657
:102CF00033E02068806800F00200022810D1E08EE6
:102D000070B1029801280BD1206B00882168C8603F
:102D1000206B801C2063E08E401EE0860020029025
:102D20002068806800F0010068B1E08F58B1206829
:102D3000C068A16B0880A06B801CA063E08F401E60
:102D4000E08701200290FFF7D5F8C01BB04204D302
:102D5000701C10B1032001906AE0E08E0028C8D1F9
:102D6000E08F0028C5D14AE0606810B1BAF1010FC8
:102D700009D1206B007821680873206B401C206308
:102D8000E08E401EE08634E02068806800F002009B
:102D9000022810D1E08E70B1029801280BD1206B6F
:102DA000007821680873206B401C2063E08E401E71
:102DB000E086002002902068806800F0010068B181
:102DC000E08F58B12068C068A16B0870A06B401CF0
:102DD000A063E08F401EE08701200290FFF78AF891
:102DE000C01BB04201D3701C00B916B9032001907A
:102DF0001EE0E08E0028C7D1E08F0028C4D13A46FB
:102E00003146204601F08EF920B1012001902020AA
:102E100060650DE0A06850B900BF002000902068F8
:102E2000C068009020688068009000BF00BF00BFAD
:102E3000012084F8510000BF002084F8500000BF3A
:102E40000198FBE67047704710B504460CB90120A5
:102E500010BD94F83D0028B9002084F83C002046BD
:102E600000F00CF8022084F83D00211D206801F0DC
:102E7000C3FA012084F83D000020E9E770470146CD
:102E80000868C06840F001000B68D8600868806876
:102E900000F00702062A05D00868006840F001002B
:102EA0000B68186000207047704710B50446206812
:102EB0000069C0F34000D8B12068C068C0F340008A
:102EC000B0B16FF00200216808610120207720680E
:102ED000806900F0030018B12046FFF7E5FF05E028
:102EE000204600F0ADF8204600F0ABF80020207737
:102EF00020680069C0F38000D8B12068C068C0F3C2
:102F00008000B0B16FF004002168086102202077D2
:102F10002068806900F4407018B12046FFF7C4FFB4
:102F200005E0204600F08CF8204600F08AF80020EA
:102F3000207720680069C0F3C000D8B12068C0685D
:102F4000C0F3C000B0B16FF0080021680861042030
:102F500020772068C06900F0030018B12046FFF711
:102F6000A3FF05E0204600F06BF8204600F069F86A
:102F70000020207720680069C0F30010D8B12068D5
:102F8000C068C0F30010B0B16FF010002168086194
:102F9000082020772068C06900F4407018B12046EE
:102FA000FFF782FF05E0204600F04AF8204600F0D7
:102FB00048F8002020772068006900F0010058B12F
:102FC0002068C06800F0010030B16FF00100216896
:102FD0000861204600F036F820680069C0F3C01090
:102FE00058B12068C068C0F3C01030B16FF08000E5
:102FF000216808612046FFF725FF20680069C0F3BB
:10300000801058B12068C068C0F3801030B16FF0F4
:10301000400021680861204600F020F8206800691F
:10302000C0F3401058B12068C068C0F3401030B100
:103030006FF02000216808612046FFF704FF10BDF3
:103040007047704710B5044603492068884201D193
:10305000FEF756FF10BD000000200040704770B51D
:103060000446002520684069C0F3C01594F8390073
:1030700021280ED16DB12068406920F080002168C0
:103080004861206B10B1206BFEF75BFB204601F01E
:10309000BCFA20684069C0F3801594F83A002228F1
:1030A0000ED16DB12068406920F040002168486170
:1030B000606B10B1606BFEF744FB204601F085FAAF
:1030C000002070BD704700002DE9F04704462068DD
:1030D00005682068C668206847694FF00008C14647
:1030E00005F00F08B8F1000F0AD105F0200038B143
:1030F00006F0200020B1204601F091FABDE8F087EB
:10310000B8F1000F6ED007F0010018B906F4907006
:10311000002867D005F0010030B106F4807018B1C6
:10312000E06B40F00100E06305F0040030B107F00F
:10313000010018B1E06B40F00200E06305F002000E
:1031400030B107F0010018B1E06B40F00400E0631B
:1031500005F0080030B107F0010018B1E06B40F055
:103160000800E063E06B70B305F0200028B106F0C2
:10317000200010B1204601F052FA20684069C0F3E7
:103180008019E06B00F0080010B9B9F1000F23D0EE
:10319000204601F01AFA2068406900F040004028FB
:1031A00016D12068406920F0400021684861606BBA
:1031B00050B11748616B0865606BFEF717FB10B1E3
:1031C000606B016D88470CE02046FFF77BFF08E04D
:1031D0002046FFF777FF04E02046FFF773FF00204B
:1031E000E0638BE705F0800030B106F0800018B195
:1031F000204601F01BFC81E705F0400030B106F0ED
:10320000400018B1204601F0F0F977E700BF75E7FC
:103210001345000810B504460CB9012010BDA06983
:1032200000B100E000BF94F8390028B9002084F80C
:103230003800204600F028F8242084F8390020685F
:10324000C06820F400502168C860204601F03AFAB6
:103250002068006920F49040216808612068406976
:1032600020F02A00216848612068C06840F40050BE
:103270002168C8600020E063202084F8390084F8C9
:103280003A000020CAE7000010B586B004461421B9
:1032900001A8FDF73FF869492068884256D100BF70
:1032A000002000906648006840F48020644908606F
:1032B0000846006800F48020009000BF00BF00BFF7
:1032C000002000905E481038006840F004005C491F
:1032D000103908600846006800F00400009000BF44
:1032E00000BF4FF440600190022002900120039043
:1032F000032004900720059001A95248FEF7F4FC32
:103300005148524908604FF00060486000214F4822
:103310008160C1604FF48061016100214161816180
:10332000C16101624162FEF795FB08B1FDF79CFAAD
:1033300000BF46486063846300BF00220521272048
:10334000FEF788FE2720FEF775FE75E040492068ED
:10335000884271D100BF002000903948001D0068EC
:1033600040F020003649091D08600846006800F05A
:103370002000009000BF00BF00BF00200090304838
:103380001038006840F004002D49103908600846E4
:10339000006800F00400009000BF00BFC020019052
:1033A0000220029001200390032004900820059041
:1033B00001A92448FEF798FC2648274908608005A3
:1033C0004860002124488160C1604FF48061016140
:1033D000002141618161C16101624162FEF73AFBF6
:1033E00008B1FDF741FA00BF1B486063846300BF6A
:1033F00018487830194908604FF020604860402133
:10340000164881600021C160016141618161C16133
:1034100001624162FEF71EFB08B1FDF725FA00BF0D
:103420000E482063846300BF002205214720FEF779
:1034300011FE4720FEF7FEFD06B010BD004800401B
:10344000403802400008024028600240800400200A
:103450000014014028640240E004002040050020E0
:1034600077B581B00446154694F83A00202850D12B
:10347000029800B115B9012004B070BD00BF94F8E6
:103480003800012801D10220F6E7012084F8380035
:1034900000BF0298A062A5850020E063222084F886
:1034A0003A001D48616BC8631C48616B08641C4886
:1034B000616BC8640020616B086502AE32682368E6
:1034C000191D2B46606BFEF73BFB00BF00200090F0
:1034D00020680068009020684068009000BF00BF2E
:1034E00000BF002084F8380000BF2068C06840F4A6
:1034F00080702168C8602068406940F00100216840
:1035000048612068406940F040002168486100201F
:10351000B2E70220B0E7000077450008BD4500088B
:103520002745000870477047704700BFFEE700005E
:1035300070B5002407E02046FDF794FAD54921F83C
:103540001400601CC4B2042CF5DBD248B0F90000B2
:10355000002806DBCF48B0F9000042F21071884223
:1035600003DD0020CB4908800AE0CA48B0F900001A
:10357000C9490978884203DBC7480078C5490880F3
:10358000002413E0C54901EB4410F1EE040A9FED5D
:10359000C40A00F0A1F9C34901EB4410DFEDC20AEF
:1035A0009FEDBF0A00F098F9601CC4B2032CE9DB60
:1035B00069E1FEF79FFC4FF47A71484300EE100A70
:1035C000B8EE400AB94880ED000A0024FDE044202E
:1035D00000F0BCFD0546432000F0B8FD45EA0020A0
:1035E00000B2B349C880462000F0B0FD0546452032
:1035F00000F0ACFD45EA002001B2AD480181482051
:1036000000F0A4FD0546472000F0A0FD45EA00209B
:1036100001B2A748418162E0442000F097FD0546D1
:10362000432000F093FD45EA002000B2A049C88085
:10363000462000F08BFD0546452000F087FD45EA59
:10364000002001B29A480181482000F07FFD054624
:10365000472000F07BFD45EA002001B294484181FB
:1036600094480088401C93490880FEF743FC4FF4BF
:103670007A71484300EE100AB8EE400A8B48D0ED4C
:10368000000A30EE600A9FED8C1AC0EE010AB1EE1E
:10369000040AF4EEC00AF1EE10FA20DD00201AE070
:1036A0007C4A411C32F9111000EE101AB8EEC00A23
:1036B000DFED820A80EE201A814901EB800181ED65
:1036C000001A01217A4ABD3211540021D13A22F860
:1036D0001010411CC8B20328E2DB002070BD744802
:1036E000B0F90600002803DD7148B0F9060003E0D8
:1036F0006F48B0F9060040427249098888428BDC65
:103700006B48B0F90800002803DD6948B0F90800EB
:1037100003E06748B0F9080040426A494988884296
:10372000EDDC6348B0F90A00002803DD6048B0F919
:103730000A0003E05E48B0F90A0040426149898806
:103740008842DCDC00203CE05949891D31F810201A
:1037500000EB4001C1EBC01359490C3101EB43119F
:10376000534B143B33F8103021F8132000EB400189
:10377000C1EBC01252490C3101EB42114C4A143AD0
:1037800032F8102031F9121000EE101AB8EEC00A0B
:103790004749203901EB8001D1ED000A30EE200AC3
:1037A0004349203901EB800181ED000A4049143979
:1037B00031F81010491C3E4A143A22F81010411CEE
:1037C000C8B20328C0DB601C84B2B4F5FA6FFFF600
:1037D000FEAE38480088B0F5967F16DD00203549EA
:1037E000088000BF0EE09FED380A3149203901EB17
:1037F000800181ED000A00212D4A143A22F81010B0
:10380000411CC8B203283EDAEDE700202CE028492D
:10381000203901EB800191ED000ADFED2C0A80EEEA
:10382000201A274901EB800181ED001A284901EB9C
:10383000800181ED001A224901EB800191ED000A1F
:10384000BDEEC00A10EE101A4FF4967211FB02F191
:103850000AB2104B411C23F811200021144A143ADB
:1038600022F81010411CC8B20328D0DB0948008898
:10387000401C00B20749088004220020FDF7FEF832
:103880000020144908701348007800287FF491AE96
:10389000012023E7440000204C00002000370020D6
:1038A00000007A44603700200000A042A8000020F9
:1038B00068350020A40000200024744900009643CD
:1038C0005C0600202C000020000000000000FA44EC
:1038D00050060020A600002010B52DED068B0446F2
:1038E000F0EE409AF0EE608A9FED330AB0EE40AA07
:1038F0009FED310AB0EE408A9FED2F0AB0EE409A5C
:1039000089EEA80AB0EE40AA9FED2C0AC0EE0A0A82
:10391000F0EE60AAB0EE6A0A01F0A8F9B0EE408AB3
:103920009FED270A01F0FAF8F0EE000A60EE200A97
:10393000B7EE000A00EE880A08EE080AB0EE409AD8
:10394000C4ED008A94ED000AB5EEC00AF1EE10FA5B
:103950002FDD28EE080AC0EE090AC4ED030A94ED33
:10396000030AF0EE000A20EE200A84ED040A94ED2A
:10397000030A84ED050AB7EE000A18EE080AF0EE15
:10398000000A20EE200AC0EE090AC4ED010A9FEDEC
:103990000C0A01F0C3F8F0EE000A60EE200AB7EE60
:1039A000000A00EEC80A08EE080AC0EE090AC4EDD3
:1039B000020ABDEC068B10BD00000000DB0F494081
:1039C000DB0F493F10B580216B2000F0F3FB012194
:1039D0006B2000F0EFFB04211A2000F0EBFB20210C
:1039E0006A2000F0E7FB0021192000F0E3FB18211A
:1039F0001B2000F0DFFB00211C2000F0DBFB062178
:103A00001D2000F0D7FB5D21242000F0D3FB012115
:103A10000B20FCF7FEFC10210A20FCF7FAFC1F210A
:103A20000A20FCF7F6FC032210491020FCF7D9FC11
:103A300010210A20FCF7EDFC8C21252000F0BAFBB8
:103A40000221262000F0B6FB8821272000F0B2FBDF
:103A500016210A20FCF7DDFC0921342000F0AAFB26
:103A60008121672000F0A6FB10BD00001E00002091
:103A700010B50F480F4908600320486000210D4829
:103A80008160C1604FF4002101614FF44011416138
:103A9000002101760121417600218176C1760177EE
:103AA0004177FDF784FB08B1FCF7DEFE10BD000096
:103AB000006400402C01002008B500BF00200090E9
:103AC0001A48006840F480001849086008460068F9
:103AD00000F48000009000BF00BF00BF00200090F5
:103AE0000846006840F4001008600846006800F4CA
:103AF0000010009000BF00BF002205210C20FEF73F
:103B0000A9FA0C20FEF796FA002205213920FEF7CB
:103B1000A1FA3920FEF78EFA002205214520FEF792
:103B200099FA4520FEF786FA08BD000030380240B9
:103B300000B587B01C2206496846FCF7D2FB00217D
:103B4000684601F09EFA0349086007B000BD000016
:103B5000A86000080000002000B587B0142102A86A
:103B6000FCF7D8FB00BF002001902E48006840F011
:103B700080002C4908600846006800F08000019031
:103B800000BF00BF00BF002001900846006840F061
:103B9000010008600846006800F00100019000BFC5
:103BA00000BF00BF002001900846006840F00400FC
:103BB00008600846006800F00400019000BF00BFE4
:103BC00000BF002001900846006840F00200086035
:103BD0000846006800F00200019000BF00BF00220C
:103BE00010211148FEF780F9002278210F48FEF7D6
:103BF0007BF9102002900120039000200490059092
:103C000002A90948FEF770F878200290012003907D
:103C1000022004900020059002A90448FEF764F8F1
:103C200007B000BD303802400000024000040240EE
:103C300010B50E480E4908604FF4827048600021AC
:103C40000B488160C160016141614FF40071816185
:103C50000021C1610162416281620A21C162FEF7F5
:103C6000CFFD08B1FCF700FE10BD000000300140A0
:103C7000A803002010B50C480C4908600C484860A7
:103C80004FF48051094881600021C1604FF4806188
:103C900001610C21416100218161C161FFF7BAFA24
:103CA00008B1FCF7E1FD10BD004800400004002011
:103CB000A086010010B50B480B4908604FF4E130B5
:103CC0004860002108488160C16001610C214161A8
:103CD00000218161C161FFF79DFA08B1FCF7C4FDC5
:103CE00010BD0000001401404004002000BFFEE7AA
:103CF00070B504460D462C48007A03280ED12A4898
:103D0000407A03280AD1002278212848FEF7ECF8EF
:103D1000012240212548FEF7E7F824E02248007AF6
:103D200003280ED12048407A01280AD100227821A8
:103D30001E48FEF7D9F8012220211C48FEF7D4F8CE
:103D400011E01948007A01280DD11748407A01285E
:103D500009D1002278211548FEF7C6F8012210216A
:103D60001248FEF7C1F81048007A01280ED10E481B
:103D7000407A03280AD1002278210C48FEF7B4F8D3
:103D8000012208210948FEF7AFF80CE00648007A46
:103D9000022808D10448407A022804D10022782160
:103DA0000248FEF7A1F870BD1A0600200004024088
:103DB00070B505460E465A48002101604160022D4B
:103DC0000AD1022E08D157480160416002462902FB
:103DD000554801F0FDF89CE0032DFCD1022E7CD16A
:103DE0005248C08800EB800080005049898801EB70
:103DF000810100EB81004D49098801EB810100EB55
:103E0000410000B2474908804848C088404200EB62
:103E1000800080004549898801EB810100EB810029
:103E20004249098801EB810100EB410000B23D49A4
:103E300048803E48C08800EB800080003B4989886C
:103E400001EB8101A0EB81003849098801EB810178
:103E500000EB410000B2334988803448C0884042BA
:103E600000EB800080003149898801EB8101A0EBE3
:103E700081002E49098801EB810100EB410000B26D
:103E80002849C8802948B0F90A00002802DA012030
:103E9000234908802548B0F90A00002802DB0020E9
:103EA0001F490880002400BF30E004EB8401204A51
:103EB00002EB810191ED001AF0EE410A194931F946
:103EC000141001EE101AB8EEC11AB0EE410A04EB5C
:103ED0004401184A02EB011000E01AE000F02EF84D
:103EE00004EB4400134901EB001090ED030ABDEE12
:103EF000C00A10EE100A00B20A4921F814000A465E
:103F00004FF40071084801F063F8641C042CCCDB0A
:103F100000BF034A40F20B21034801F059F870BD7D
:103F2000B6000020BE0000202C0100201A06002050
:103F3000E83700207C3800207047000030EE601A1F
:103F400080ED001A90ED021AD0ED051A90ED002ACE
:103F500001EE821A80ED021A90ED021AD0ED081AD5
:103F6000B4EEE11AF1EE10FA04DD90ED081A80EDDE
:103F7000021A10E090ED021AB1EE411AD0ED081AC3
:103F8000B4EEE11AF1EE10FA05DD90ED081AB1EE8B
:103F9000411A80ED021A90ED001AD0ED0B1AB4EE22
:103FA000E11AF1EE10FA0ADC90ED001AD0ED0B1ACE
:103FB000F1EE611AB4EEE11AF1EE10FA03D290EDCF
:103FC000021A80ED091A9FED211A80ED091A90ED71
:103FD000041AD0ED001A21EE211A80ED0A1A90ED94
:103FE0000A1AD0ED091A31EE211AD0ED001A90ED1F
:103FF000012A71EEC21A90ED062A02EE211A80ED16
:10400000031A90ED031AD0ED071AB4EEE11AF1EE9F
:1040100010FA04DD90ED071A80ED031A10E090ED20
:10402000031AB1EE411AD0ED071AB4EEE11AF1EE1F
:1040300010FA05DD90ED071AB1EE411A80ED031A72
:1040400090ED001A80ED011A70470000000000009A
:1040500000B5002100BF11E001EB4102094B03EB69
:1040600002109FED092ADFED091A9FED091ADFED15
:10407000080A9FED070A00F00DF8491C0429EBDB44
:1040800000BD00007C38002000007A4600401C463D
:1040900000000000DFED0F2AC0ED002ADFED0D2A41
:1040A000C0ED012ADFED0B2AC0ED022ADFED092A5F
:1040B000C0ED032AC0ED081A80ED040AC0ED050A20
:1040C00080ED061A80ED072ADFED022AC0ED032AF3
:1040D0007047000000000000F8B504460D46164683
:1040E0006068B0F5827F0DD1A068B0F5004F03D0B5
:1040F000A068B0F5806F05D12068006820F040000E
:10410000216808602B46002280212046009600F09E
:1041100071F828B1606D40F0200060650320F8BDA3
:104120000020FCE7F8B504460D4616462B46002253
:1041300080212046009600F05DF828B1606D40F0C7
:10414000200060650320F8BD0020FCE738B5044678
:1041500001226946204600F003F89DF8000038BDB2
:10416000F8B504460D46164644F080000D49087027
:10417000002210210C48FDF7B7FE052001230B4A51
:10418000084900900A48FEF748FD052332462946B3
:104190000748FEF7BFFB012210210348FDF7A4FEEC
:1041A000F8BD00001C000020000002401D0000209F
:1041B000A803002013B5002210210C48FDF794FE3F
:1041C0000523012269460A48FEF756FC0523012211
:1041D00001A90748FEF750FC012210210348FDF712
:1041E00083FE0520FDF7FCFC1CBD00000000024022
:1041F000A80300202DE9F04104460E4617461D464F
:10420000DDF818803EE0681CD8B3FDF773FEA0EB24
:104210000800A84200D2A5BB2068406820F0E0005A
:10422000216848606068B0F5827F0DD1A068B0F564
:10423000004F03D0A068B0F5806F05D120680068FA
:1042400020F0400021680860A06AB0F5005F0DD141
:1042500000BF2068006820F40050216808602068D2
:10426000006840F400502168086000BF012084F815
:10427000510000BF002084F8500000BF0320BDE8BB
:10428000F081FFE7206880683040B04201D1012012
:1042900000E00020B842B6D10020F0E710B500BF22
:1042A000502080F31188BFF34F8FBFF36F8F00BF93
:1042B00001F0D4FD18B14FF080500449086000BFF0
:1042C000002080F3118800BF10BD000004ED00E065
:1042D00000B593B0302107A8FCF71CF8142102A800
:1042E000FCF718F800BF002001902448006840F057
:1042F0008050224908600846006800F08050019014
:1043000000BF00BF00BF002001901D48006840F4BE
:1043100080401B4908600846006800F48040019016
:1043200000BF00BF012007900004089002200D90FC
:1043300041050E9104210F91A821109102211191A4
:104340000421129107A8FEF737F808B1FCF78CFAA0
:104350000F20029002200390002004904FF4A05000
:1043600005904FF480500690052102A8FDF7C4FE89
:1043700008B1FCF779FA13B000BD000040380240E4
:10438000007000401448006840F470001249086052
:104390001248006840F001001049086000200F49F1
:1043A000083108600D4800680D4908400B49086055
:1043B0000C48091D0860081F006820F48020091FB0
:1043C0000860002005490C3108604FF00060024988
:1043D000803908607047000088ED00E00038024036
:1043E000FFFFF6FE1030002410B50248FEF75DFD19
:1043F00010BD0000A005002010B50268294B9842AE
:104400000ED0B0F1804F0BD0274B984208D0274BED
:10441000984205D0264B984202D0264B984203D1B1
:1044200022F070024B681A431E4B984220D0B0F124
:10443000804F1DD01C4B98421AD01C4B984217D06D
:104440001B4B984214D01B4B984211D01A4B9842E8
:104450000ED01A4B98420BD0194B984208D0194BEA
:10446000984205D0184B984202D0184B984203D17D
:1044700022F44072CB681A4322F080034C6943EA6D
:10448000040202608B68C3620B688362054B98422A
:1044900002D0084B984201D10B69036301234361A9
:1044A00010BD000000000140000400400008004072
:1044B000000C004000040140004001400044014065
:1044C0000048014000180040001C0040002000404F
:1044D00008B501F0BDFC0090FFF774FAFFF728F86B
:1044E00000F056FDFCF70AF8FFF7B2FD00BF054AE1
:1044F000517A107AFFF75CFC0121684601F0DCF983
:10450000F5E700001A06002010B50446FCF710F885
:1045100010BD70B50546AC6B0020E085E0842046F8
:10452000FEF7D0FD70BD70B506460025B46B20685F
:104530004069C0F3C01594F83900212805D125B190
:104540000020E084204600F060F820684069C0F355
:10455000801594F83A00222805D125B10020E08585
:10456000204600F032F8E06B40F01000E063204697
:10457000FEF7A8FD70BD70B50546AC6B28680068F5
:1045800000F48070B0B90020E0852068C06820F495
:1045900080702168C8602068406920F001002168AF
:1045A00048612068406920F040002168486120206F
:1045B00084F83A002046FEF7B5FF70BD70B504469A
:1045C000A56B2846FEF7AFFF70BD0168C96821F4EE
:1045D00090710268D1600168496921F001010268A7
:1045E0005161202180F83A10704710B504462068C8
:1045F000C06820F040002168C860202084F839009D
:104600002046FEF791FF002010BD0168C96821F027
:10461000C0010268D160202180F83910704770B560
:10462000044694F83A0022284AD1A068B0F5805F89
:1046300013D1A56A206940B920684068C0F308001A
:104640002880A06A801CA06219E020684068C0B27F
:104650002880A06A401CA06211E0206938B9206857
:104660004068C1B2A26A501CA062117007E02068C5
:10467000406800F07F01A26A501CA0621170E08DBA
:10468000401E80B2E085C8B92068C06820F02000D4
:104690002168C8602068C06820F480702168C86004
:1046A0002068406920F0010021684861202084F8DA
:1046B0003A002046FEF736FF002070BD0020FCE7E0
:1046C0000220FAE72DE9F04104462068006920F451
:1046D0004050E1680843216808612169A0680843E7
:1046E00061690843E16940EA01052068C06849F250
:1046F0000C61884328432168C8602068406920F421
:104700004070A169084321684861E069B0F5004F35
:104710007ED1C4492068884203D0C34920688842BA
:104720005DD1FDF7E1FD00EBC00101EB0010616818
:104730004900B0FBF1F06421B0FBF1F00601FDF798
:10474000D3FD00EBC00101EB001061684900B0FB34
:10475000F1F7FDF7C9FD00EBC00101EB0010616846
:104760004900B0FBF1F06421B0FBF1F000EBC001B7
:1047700001EB0010A7EB8000322101EBC0006421A7
:10478000B0FBF1F000F0F80006EB4006FDF7ACFDE1
:1047900000EBC00101EB001061684900B0FBF1F7CC
:1047A000FDF7A2FD00EBC00101EB001061684900BC
:1047B000B0FBF1F06421B0FBF1F000EBC00101EBC4
:1047C0000010A7EB8000322101EBC0006421B0FB98
:1047D000F1F000F0070030442168886020E1FDF727
:1047E00073FD00EBC00101EB001061684900B0FBF4
:1047F000F1F06421B0FBF1F00601FDF765FD00EB7F
:10480000C00101EB001061684900B0FBF1F700E066
:1048100045E0FDF759FD00EBC00101EB00106168B8
:104820004900B0FBF1F06421B0FBF1F000EBC001F6
:1048300001EB0010A7EB8000322101EBC0006421E6
:10484000B0FBF1F000F0F80006EB4006FDF73CFD90
:1048500000EBC00101EB001061684900B0FBF1F70B
:10486000FDF732FD00EBC00101EB0010616849006B
:10487000B0FBF1F06421B0FBF1F000EBC00101EB03
:104880000010A7EB8000322101EBC0006421B0FBD7
:10489000F1F000F00700304421688860C0E0614911
:1048A0002068884203D06049206888425CD1FDF7C7
:1048B0001BFD00EBC00101EB001061688900B0FB3B
:1048C000F1F6FDF711FD00EBC00101EB001061688E
:1048D0008900B0FBF1F06421B0FBF1F000EBC00106
:1048E00001EB0010A6EB8000322101EB00106421E7
:1048F000B0FBF1F000F0F006FDF7F6FC00EBC001B4
:1049000001EB001061688900B0FBF1F06421B0FB9D
:10491000F1F006EB0016FDF7E7FC00EBC00101EB40
:10492000001061688900B0FBF1F7FDF7DDFC00EBDA
:10493000C00101EB001061688900B0FBF1F0642157
:10494000B0FBF1F000EBC00101EB0010A7EB800021
:10495000322101EB00106421B0FBF1F000F00F00F8
:104960003044216888605BE0FDF7AEFC00EBC001DD
:1049700001EB001061688900B0FBF1F6FDF7A4FCC3
:1049800000EBC00101EB001061688900B0FBF1F0A1
:104990006421B0FBF1F000EBC00101EB0010A6EBCD
:1049A0008000322101EB00106421B0FBF1F000F037
:1049B000F006FDF789FC00EBC00101EB0010616817
:1049C0008900B0FBF1F06421B0FBF1F006EB0016BA
:1049D000FDF77AFC00EBC00101EB00106168890073
:1049E000B0FBF1F7FDF770FC00EBC00101EB00102C
:1049F00061688900B0FBF1F06421B0FBF1F000EBDD
:104A0000C00101EB0010A7EB8000322101EB001088
:104A10006421B0FBF1F000F00F00304421688860A1
:104A2000BDE8F0810010014000140140014691F8FA
:104A3000390021282CD18868B0F5805F0FD10A6A2F
:104A40001088C0F308000B685860086918B9086A34
:104A5000801C086209E0086A401C086205E00B6AD5
:104A6000581C086218780B685860C88C401E80B2C9
:104A7000C88458B90868C06820F080000B68D86006
:104A80000868C06840F040000B68D860002070479C
:104A90000220FCE710B5FBF705FD0248FEF714FB0A
:104AA00010BD00000004002010B50248FEF70CFB0A
:104AB00010BD00004004002000BFFEE741000802D6
:104AC00018BF04200A0E18BF40F001004FF07F42CB
:104AD00032EA010108BF40F00200012808BF0520AA
:104AE0007047000002480068C0F3022070470000D1
:104AF0000CED00E010B5002804DB0A07130E054A90
:104B0000135406E00A07140E034A00F00F031B1F9C
:104B1000D45410BD00E400E018ED00E010EE101ACF
:104B200008B5444A6846B2EB410F28D94FF0E64039
:104B3000B0EB410F94BF00204FF0FF300090009881
:104B4000002861DB60EE000A10F0010F45D010F084
:104B5000020FDFED391A9FED391A00EEE11ADFED91
:104B6000381A40EE811A21EEA01AF0EE400A40EE0B
:104B7000010A08BFF1EE600AB0EE600A08BD314BD1
:104B800021F0004293423CD911F0004FDFED2E0A94
:104B900020EE201ADFED2D0A19BF31EE601A71EEFA
:104BA000200A31EE201A71EE600ABDEEE01A11EE15
:104BB000100A9FED271A00F0030000EEC10A9FEDD6
:104BC000251A009000EEC10A9FED231A00EEC10ADB
:104BD0009FED221A00EEC10AB1E79FED211A9FED69
:104BE000210A10F0020F00EE810A9FED1F1A00EE5D
:104BF000801AB7EE000A00EE810A18BFB1EE400A33
:104C000008BD00F005F99AE710EE100A4000B0F177
:104C10007F4F3CBFB7EE000A08BD07D14FF001003F
:104C200000F0B0F9BDE8084000F0E2B8BDE8084087
:104C300000F0DAB8B61F927E336D4C39DA82083C48
:104C4000A0AA2ABE490E494683F9223F0000004B24
:104C50000000C93F00A0FD390020A2331A61342CA6
:104C6000B93AB2BACA9F2A3DDDFFFFBE00B510EEC9
:104C7000101A2DED028B81B04D4A6846B2EB410F00
:104C80003CD94FF0E640B0EB410F94BF00204FF00D
:104C9000FF3000900098B0EE408A00285FDB28EEDD
:104CA000080ADFED440A9FED441A00EE201ADFEDFA
:104CB000430A40EE010A9FED421A00EE201ADFED92
:104CC000410A10F0010F40EE010A9FED3F1A00EE7D
:104CD000201A61EE000AB0EE480A08EE200A02BF70
:104CE00001B0BDEC028B00BDBFEE001A01B0C1EEF9
:104CF000000ABDEC028BB0EE600A00BD334B21F020
:104D00000042934228D911F0004FDFED310A20EE26
:104D1000201ADFED300A19BF31EE601A71EE200A59
:104D200031EE201A71EE600ABDEEE01A11EE100AA3
:104D30009FED291A00F0030000EEC10A9FED271A2B
:104D4000009000EEC10A9FED261A00EEC10A9FED09
:104D5000251A00EEC10A9DE700F05AF89AE718EE0E
:104D6000100A4000B0F17F4F0DD218EE100AFFF785
:104D7000A5FE042808BF00F043F8B0EE480A01B0D1
:104D8000BDEC028B00BD09D1012000F0FBF801B0A1
:104D9000BDEC028B5DF804EB00F02AB801B0B0EE78
:104DA000480ABDEC028B5DF804EB00F01DB8000072
:104DB000B61F927EBBE9223C0C6D063B8A76CE3C48
:104DC000ACB5593D35A1083E29AAAA3E490E49462F
:104DD00083F9223F0000004B0000C93F00A0FD39CD
:104DE0000020A2331A61342C30EE000A7047000014
:104DF000DFED020A80EEA00A70470000000000000C
:104E00009FED020A20EE000A70470000000000102B
:104E10002DE9F0014FF07F42B2EB410F9FBF4FF001
:104E2000FF310160BDE8F00170474FF0004242EAF7
:104E30000123C1F3C752783A551112F01F0C434CAD
:104E4000CCF120067C44C1F3C752A2F178024FEAAC
:104E5000621204EB820254F8254008BFD2E90156E1
:104E600012D0556804FA0CF425FA06F73C4397680B
:104E700005FA0CF527FA06F8D26807FA0CFCF2409E
:104E800045EA08054CEA0206A4FB034CA5FB0352C5
:104E9000A6FB03631D449D4234BF0126002613195F
:104EA000334416B1934202D903E0934201D2012266
:104EB00000E00022624402F1200C9206DC0C42EA7F
:104EC000443200EE102A5B03DFED210AF8EEC01A2F
:104ED00000EE103A4FEA9C1C11F0004FB8EE400A69
:104EE000C0F800C020EE201A00EE105ADFED190ABB
:104EF000B8EE400A20EE200A71EE810A70EE800AB8
:104F000010EE902A02F500626FF30B0200EE902A79
:104F100070EEE11A31EEC11ADFED101A30EE411ACF
:104F20009FED0D0A20EE800A01EE210A9FED0C1A7A
:104F300000EE810A04BFBDE8F0017047CCF180515A
:104F40000160BDE8F001B1EE400A7047D4120000E4
:104F5000000000360000802C22AAFD29DB0FC92F9B
:104F60000000C92F02E008C8121F08C1002AFAD1A8
:104F700070477047002001E001C1121F002AFBD1D9
:104F800070470000014908607047000028010020B8
:104F900000B58BB000200A900790012008900020F7
:104FA0000190029003900490059001200990002048
:104FB000069001A90548FBF753FE0448FCF78BFB5C
:104FC00002210248FBF78CFD0BB000BD2C01002034
:104FD000F0B589B006460D4614462088000A8DF8C3
:104FE000000020788DF801006088000A8DF802002A
:104FF000A0788DF80300A088000A8DF804002079BD
:105000008DF80500E088000A8DF80600A0798DF87B
:10501000070002950020059004900820069008AB38
:105020006A4602A93046FBF770FD074600BF3046CE
:10503000FBF77BFF0328FAD1384609B0F0BDFCF737
:105040006BFFFFF745F9FEF787FDFEF735FDFEF72D
:105050000FFDFEF7EDFDFEF70DFEFEF72BFEFEF752
:1050600067FD00F009F800BFFEE701460020842933
:1050700001D0CA1C1044704710B500F001FD00209B
:1050800010BD7FB504460D46606998B1A06988B12E
:10509000B4F90800FFF7E9FF0646D4E90510CDE9A9
:1050A000006102902B462269D4E9001000F074FEE2
:1050B000039013E0B4F90800FFF7D7FF064603A8F2
:1050C000CDE90060238A9AB22B46D4E9001000F0A3
:1050D00031FE012802D0002004B070BD0398FBE728
:1050E0002DE9F04105460E461C4807681C4800683B
:1050F000001D00F0E5FA50B91948006890F82C102E
:105100000120884017490968814316480160681CDE
:1051100038B936B112480168091D134800F01AFB6E
:105120001AE07C190E4800684460BC4207D20C4863
:105130000168091D0D48006800F0F2FA0CE008480B
:105140000168091D0A48006800F0EAFA0948006889
:10515000844201D207480460BDE8F081DC000020F1
:10516000C8000020E0000020783A0020D000002095
:10517000CC000020F800002010B5044600F0F6FA3C
:1051800023480068401C224908602248006840B952
:10519000204804600846006801280DD100F03AF963
:1051A0000AE01D48006838B91A480068C06AE16A18
:1051B000884201D81748046018480068401C174905
:1051C000086094F82C1001208840154909680843AC
:1051D00013490860E16A01EB8101124A02EB810088
:1051E000211D00F0B7FA00F0EBFA0B48006868B137
:1051F00008480068C06AE16A884207D24FF08050D0
:1052000009490860BFF34F8FBFF36F8F10BD0000D7
:10521000D8000020C8000020E4000020F400002096
:10522000E00000209C39002004ED00E010B516E0FD
:1052300000F09CFA0C48C068C468201D00F040FAD9
:105240000A480068401E0949086009480068401E75
:105250000749086000F0B4FA204600F00BF8044853
:1052600000680028E4D110BD643A0020D800002076
:10527000D400002010B5044694F8510030B9206BDA
:1052800000F0BCFA204600F0B9FA1AE094F8510098
:10529000012803D1204600F0B1FA12E094F8510041
:1052A000022801D1012000E0002050B900BF5020A9
:1052B00080F31188BFF34F8FBFF36F8F00BF00BF24
:1052C000FEE710BD30B54FF47053174800F00704E7
:1052D0002CB1C01D20F00700134C041B1B1B024601
:1052E000124C22600024114D6C60D018083820F058
:1052F00007000F4C206000240D4D2D686C600C4D94
:105300002D682C601146441A4C60094C24680C60CE
:10531000084D4C682C60084D4C682C604FF00044E0
:10532000064D2C6030BD00008C3A002004010020A6
:105330000C010020140100201001002018010020A1
:1053400000BFFFF773FF064800680128F9D94FF046
:10535000805004490860BFF34F8FBFF36F8FF0E7B1
:105360009C39002004ED00E02DE9FF5F81460F46E7
:105370009246DDE90E6B109CAAF10100216B01EB56
:10538000800828F0070808F0070008B9012000E0AD
:10539000002050B900BF502080F31188BFF34F8F19
:1053A000BFF36F8F00BF00BFFEE7002507E0795D08
:1053B00004F134004155785D00B902E06D1C102DF8
:1053C000F5D300BF002143200155072E00D3062648
:1053D000E66266640020A064201D00F09EF904F1DE
:1053E000180000F09AF92461C6F10700A061646218
:1053F0000020E06484F8500049464046039A00F0DB
:1054000049F92060BBF1000F01D0CBF80040BDE8A6
:10541000FF9F000010B5002407E004EB84010F4A51
:1054200002EB810000F06CF9641C072CF5D30C48EA
:1054300000F066F90B4800F063F90B4800F060F9E2
:105440000A4800F05DF90A4800F05AF90448094991
:10545000086004480849086010BD00009C3900201D
:10546000283A00203C3A0020503A0020643A0020BC
:10547000783A0020CC000020D000002010B5014672
:10548000164800E0006803688B42FBD3024643687D
:1054900013448B4204D143684C6823444360014663
:1054A0000A464B6813440468A34211D10C4C0368AC
:1054B0002468A34208D04B680468646823444B60A6
:1054C00003681B680B6005E0054B1B680B6001E07F
:1054D00003680B60884200D0016010BD0401002009
:1054E0000C0100200A490968096809B9012100E096
:1054F000002121B14FF0FF31064A116006E0044956
:105500000968C968C868034A4168116070470000AB
:10551000CC000020F80000200E480068401C08B9AC
:10552000012000E0002050B900BF502080F3118816
:10553000BFF34F8FBFF36F8F00BF00BFFEE700BF09
:10554000502080F31188BFF34F8FBFF36F8F00BFE0
:1055500000BFFEE71C0100202DE9F04104464FF09A
:10556000000800F0E5FA4648006808B9FFF7AAFE0F
:1055700044480068204000286BD1D4B1083404F0BE
:105580000700B0B104F00700C0F10800044404F0C3
:10559000070008B9012000E0002050B900BF5020EA
:1055A00080F31188BFF34F8FBFF36F8F00BF00BF31
:1055B000FEE7002C4DD034480068844249D8334E71
:1055C0003046056801E02E462D686868A04202D288
:1055D00028680028F7D12A480068854239D0306809
:1055E00000F10808286830606868001B102819D985
:1055F0002F1907F0070008B9012000E0002050B97A
:1056000000BF502080F31188BFF34F8FBFF36F8F1F
:1056100000BF00BFFEE76868001B78606C6038461A
:10562000FFF72CFF184968680968081A16490860CE
:105630000846006816490968884203D21248006883
:10564000134908600F4968680968084368600020CA
:10565000286000F0A7FC08F0070008B9012000E06E
:10566000002050B900BF502080F31188BFF34F8F46
:10567000BFF36F8F00BF00BFFEE74046BDE8F0817B
:105680000C0100201801002010010020040100205E
:1056900014010020001F4FF080730360001F21F0F1
:1056A00001030360001F054B036014380260001FF4
:1056B0006FF002030360203870470000195500089E
:1056C00001460A69D1E901309860D1E901035860C7
:1056D0005068884201D188685060002008611068D5
:1056E000401E106010687047034B0360034B0B6053
:1056F000802313607047000054010020A80100209F
:1057000000F1080141604FF0FF31816000F10801B4
:10571000C160016100210160704700210161704793
:1057200010B502460B685C1C0CB9106907E002F169
:10573000080000E04068446824689C42FAD9446844
:105740004C604C68A160886041600A611468641C08
:10575000146010BD42684A6093688B60936859601A
:105760009160086103685B1C0360704700BF5020B4
:1057700080F31188BFF34F8FBFF36F8F00BF0E48C8
:105780000068401C0C49086008460068012812D1D6
:105790000A480068C0B208B9012000E0002050B9F2
:1057A00000BF502080F31188BFF34F8FBFF36F8F7E
:1057B00000BF00BFFEE770471C01002004ED00E0C1
:1057C0000D48006850B900BF502080F31188BFF326
:1057D0004F8FBFF36F8F00BF00BFFEE70648006822
:1057E000401E054908600846006820B9002080F383
:1057F000118800BF00BF70471C01002070B506462D
:105800003546002E3FD0083D2C461F496068096888
:10581000084008B1012000E0002050B900BF50202E
:1058200080F31188BFF34F8FBFF36F8F00BF00BFAE
:10583000FEE7206808B9012000E0002050B900BF51
:10584000502080F31188BFF34F8FBFF36F8F00BFDD
:1058500000BFFEE70C4960680968084098B12068FD
:1058600088B90949606809688843606000F060F998
:105870000649606809680844044908602046FFF743
:10588000FDFD00F08FFB70BD18010020100100200D
:1058900000204FF0E02108618861064800684FF45D
:1058A0007A71B0FBF1F0401E4FF0E0214861072013
:1058B00008617047180000202DE9F04704460F46A4
:1058C0004FF0000954B900BF502080F31188BFF396
:1058D0004F8FBFF36F8F00BF00BFFEE70FB10120F6
:1058E00000E0002050B900BF502080F31188BFF3C2
:1058F0004F8FBFF36F8F00BF00BFFEE720480068E7
:1059000008B9012000E0002050B900BF502080F30A
:105910001188BFF34F8FBFF36F8F00BF00BFFEE74B
:1059200000F006F9174806682068C5192068B042DB
:1059300007D92068A8420BD9B54209D94FF001090F
:1059400006E02068A84201D8B54201D94FF001090C
:105950002560B9F1000F03D0A81B0021FFF7C0FBA1
:1059600000F020FB8046B8F1000F07D14FF08050C7
:1059700005490860BFF34F8FBFF36F8FBDE8F08715
:1059800000010020DC00002004ED00E070B50546B9
:10599000FFF7ECFE15B93048006800E028460446E1
:1059A000201DFFF78DFE78B9E06A00EB80002B49DF
:1059B00051F8200040B994F82C1001208840284963
:1059C0000968814326480160A06A18B104F11800F3
:1059D000FFF776FE23480068401C224908601E48F5
:1059E0000068844209D1211D1F48FFF7B3FE1F48FC
:1059F0000068401C1D49086009E01D480068401E01
:105A00001B4908602046FFF735FCFFF76BFDFFF7E9
:105A1000D7FE18480068E8B10F480068844219D1E1
:105A20001548006808B9012000E0002050B900BF07
:105A3000502080F31188BFF34F8FBFF36F8F00BFEB
:105A400000BFFEE74FF080500C490860BFF34F8F56
:105A5000BFF36F8F70BD0000C80000209C3900208C
:105A6000E0000020F4000020643A0020D400002070
:105A7000D8000020E40000200001002004ED00E038
:105A800010B586B000200590049003AA04A905A8CB
:105A9000FFF72AFE0022DDE904101346CDE90021BC
:105AA00002901CA11D48039A00F076F91C49086079
:105AB0000846006808B1012400E00024012C15D13B
:105AC00000BF502080F31188BFF34F8FBFF36F8F5B
:105AD00000BF4FF0FF3013490860012012490860F1
