:020000040800F2
:10000000280600205D0200082B1400087113000868
:1000100029140008690300081D15000800000000ED
:100020000000000000000000000000009D0100082A
:10003000BD03000800000000F90100082D140008AD
:1000400077020008770200087702000877020008AC
:10005000770200087702000877020008770200089C
:10006000770200087702000877020008770200088C
:10007000770200087702000877020008770200087C
:10008000770200087702000877020008770200086C
:100090006D03000877020008770200087702000865
:1000A000770200087702000877020008770200084C
:1000B000770200087702000877020008770200083C
:1000C000770200087702000877020008770200082C
:1000D000770200087702000877020008770200081C
:1000E000770200087702000877020008770200080C
:1000F00077020008770200087702000877020008FC
:1001000077020008770200087702000877020008EB
:1001100077020008770200087702000877020008DB
:1001200077020008770200087702000877020008CB
:1001300077020008000000000000000077020008BD
:1001400077020008770200087702000877020008AB
:10015000770200087702000877020008770200089B
:10016000770200087702000877020008770200088B
:10017000770200087702000800000000000000007D
:100180007702000877020008DFF80CD000F0DAF8F8
:10019000004800475D150008280600202C4B196810
:1001A0000868B0E8F04F80F30988BFF36F8F4FF015
:1001B000000080F3118870470000000008480068C4
:1001C000006880F308884FF0000080F3148862B65E
:1001D00061B6BFF34F8FBFF36F8F00DF00BF00BF6B
:1001E00008ED00E0DFF80C00016841F470010160E7
:1001F000704700BF88ED00E0EFF30980BFF36F8F19
:10020000134B1A681EF0100F08BF20ED108A20E96A
:10021000F04F106009B44FF0500080F31188BFF325
:100220004F8FBFF36F8F01F0D5F94FF0000080F3CF
:10023000118809BC19680868B0E8F04F1EF0100F6B
:1002400008BFB0EC108A80F30988BFF36F8F704746
:1002500010000020EFF3058070470000064880473B
:1002600006480047FEE7FEE7FEE7FEE7FEE7FEE79B
:10027000FEE7FEE7FEE7FEE7C91400088901000873
:100280002DE9F05F0546002092469B4688460646CB
:10029000814640241BE0284641464746224600F05E
:1002A00041F853465A46C01A914110D31146184698
:1002B000224600F028F82D1A67EB01084F46224627
:1002C0000120002100F01FF817EB00094E41201E0D
:1002D000A4F10104DFDC484631462A464346BDE826
:1002E000F09FD2B201E000F8012B491EFBD270470B
:1002F0000022F6E710B513460A4604461946FFF7F2
:10030000F0FF204610BD202A04DB203A00FA02F15B
:10031000002070479140C2F1200320FA03F31943F3
:1003200090407047202A04DB203A21FA02F0002195
:10033000704721FA02F3D040C2F1200291400843F5
:1003400019467047064C074D06E0E06840F001038F
:1003500094E8070098471034AC42F6D3FFF718FF33
:100360005017000870170008FEE70000014800F071
:1003700046B900006400002000B58BB001220021C6
:1003800041F21113CDE9061200931303CDE90131B7
:1003900003910491059108480892694600F022F8FB
:1003A00000B1FEE70221044800F00AF80BB0024851
:1003B0005DF804EB00F0BCBB6400002070477047A0
:1003C00090F82020012A07D0022A05D0416A41F482
:1003D0008021416201207047006842690A434261FE
:1003E0000020704710B590F82020012A07D0022A7B
:1003F00005D0416A41F480214162012010BD3B4893
:10040000D0F8002242F00102C0F80022D0F8002209
:1004100022F47C52C0F80022D0F800224B6A42EA53
:100420000322C0F800220A7D02F01F0301229A4035
:10043000D0F81C329343C0F81C32CB69B3B9D0F862
:100440000C329343C0F80C328C894B6864F31F4321
:100450004C6900EBC404C4F840320C890B6864F3A7
:100460001F434C6900EBC404C4F84432CB69012B30
:1004700016D1D0F80C321343C0F80C320C884B68FC
:1004800064F31F434C6900EBC404C4F840320C8988
:10049000CB6864F31F434C6900EBC404C4F84432D6
:1004A0008B69002BD0F804320ED01343C0F804320D
:1004B0000B69002BD0F8143208D01343C0F8143263
:1004C000096A012904D008E09343EFE79343F5E775
:1004D000D0F81C121143C0F81C12D0F8001221F001
:1004E0000101C0F80012002010BD000000640040AF
:1004F000704700000246002092F82030012B01D006
:10050000022B05D1106821B1D0F8100000F00300D3
:100510007047C068FAE730B590F82040012C05D04C
:10052000022C03D0416A41F480215DE00468002977
:1005300055D02469A40754D04FF4D874056804EB4F
:1005400001142D5915F00405956005682D594ED0FC
:10055000ED08556005682C59C4F34004D4604FF48D
:10056000DA74056804EB01142D5905F00F051561C7
:1005700005682D59C5F30725956105682C59240C8C
:1005800054614FF4DC72046802EB0112A4581C7031
:100590000468A458240A5C700468A458240C9C7055
:1005A0000468A258120EDA704FF4DE72046802EB8F
:1005B0000112A4581C710468A458240A5C710468D0
:1005C000A458240C9C710468A258120EDA710068B9
:1005D00081B1016941F020010161002030BDE46872
:1005E000A8E7416A41F400114162012030BD6D0D60
:1005F0001560AFE7C16841F02001C160EDE72DE96A
:10060000F05F0546006800244669D0F804908768CA
:10061000D0F80CB0D0F810A0D0F81880F10748D06E
:10062000F90714D001218160B80703D5284600F0EE
:10063000ACFA0CE0780702D54FF4006407E0380705
:1006400002D54FF4805402E0284600F09DFAF805E8
:1006500016D529684FF480708860B80503D5284600
:1006600000F095FA0CE0780502D544F4005407E058
:10067000380502D544F4804402E0284600F086FAAA
:10068000F80316D529684FF480308860B80303D585
:10069000284600F07EFA0CE0780302D544F40044CA
:1006A00007E0380302D544F4803402E0284600F025
:1006B0006FFA300707D55FEACB6004D529681020B0
:1006C00044F40074C86070074FF0080707D55FEA6C
:1006D0000B7004D52868C760284600F059F9B007A8
:1006E00006D52868C068800702D0284600F052F975
:1006F000700607D55FEACA6004D52968102044F463
:1007000080640861B00607D55FEA0A7004D52868DE
:100710000761284600F008FAF00606D52868006947
:10072000800702D0284600F000FAB00308D55FEA3F
:10073000C96005D5296810204860284600F0F6F900
:10074000F00307D55FEA097004D52868476028469A
:1007500000F020FA300446D55FEA497040D5F00534
:1007600004D55FEAC87001D044F00104B00504D597
:100770005FEA887001D544F00204700504D55FEA91
:10078000487001D544F00404300529D518F0700FE5
:1007900026D008F07000402815D006DC102809D0BB
:1007A00020280AD0302816D10AE050280ED0602820
:1007B00011D10EE044F008040DE044F010040AE00A
:1007C00044F0200407E044F0400404E044F08004D6
:1007D00001E044F480742868816921F0700181612E
:1007E000296804204860002C05D0686A20436862AC
:1007F0002846FFF77DFEBDE8F09F70B5040003D0EA
:1008000094F8200010B104E0012070BD204600F0F3
:1008100081F82068016821F00201016000F09AFA75
:100820000546052604E000F095FA401B0A2811D879
:10083000206840688007F6D42068016841F0010113
:10084000016000F087FA05460BE000F083FA401BD8
:100850000A2806D9606A40F40030606284F820609B
:10086000D2E720684068C007EFD0207E01282068CA
:1008700001683DD021F080010160607E0128206880
:10088000016838D021F040010160A07E0128206875
:10089000016833D021F020010160E07E012820684A
:1008A00001682ED041F010010160207F01282068EE
:1008B000016829D021F008010160607F01282068CB
:1008C000016824D021F004010160D4E90201084349
:1008D000D4E90412114308436168491E08432168A2
:1008E000C86100206062012084F82000002070BDF3
:1008F00041F08001C0E741F04001C5E741F020012F
:10090000CAE721F01001CFE741F00801D4E741F038
:100910000401D9E710B586B0044614216846FFF7F4
:10092000E7FC18492068884229D11748002102684D
:1009300042F000720260006800F0007005901248FA
:100940001038026842F001020260006800F0010005
:1009500005904FF4C05000900220CDE90101032022
:100960000390092004906946084800F015F9002218
:100970000521142000F060FA142000F04FFA06B0B0
:1009800010BD0000006400404038024000000240FA
:100990007047000010B500216048FFF7ABFD00284C
:1009A00020D05F4B5F4A00215C48FFF7B4FD5D48F3
:1009B0005C4902685A481C31A2F50072013A12D013
:1009C000012A43D0022A75D00A2A0BD1A0F10D01C9
:1009D00002780A7042784A7082788A70C278CA7047
:1009E0000079087110BD01220A8290F9012090F966
:1009F000003002EB032200EE102AB8EEC00A81EDAF
:100A0000010A90F9032090F9023002EB032200EE74
:100A1000102AB8EEC00A81ED000A90F9052090F97D
:100A2000043002EB032200EE102AB8EEC00A81ED7A
:100A3000020A90F9072090F9060002EB002000EE70
:100A4000100AB8EEC00A81ED030A10BD02228A84A2
:100A500090F9012090F9003002EB032200EE102AF9
:100A6000B8EEC00A81ED060A90F9032090F9023031
:100A700002EB032200EE102AB8EEC00A81ED050A4F
:100A800090F9052090F9043002EB032200EE102AC1
:100A9000B8EEC00A81ED070A90F9072090F9060028
:100AA00002EB002000EE100AB8EEC00A81ED080A41
:100AB00010BDFFE703220A8790F9012090F900306A
:100AC00002EB032200EE102AB8EEC00A81ED0B0AF9
:100AD00090F9032090F9023002EB032200EE102A75
:100AE000B8EEC00A81ED0A0A90F9052090F90430A9
:100AF00002EB032200EE102AB8EEC00A81ED0C0AC8
:100B000090F9072090F9060002EB002000EE100A91
:100B1000B8EEC00A81ED0D0ACAE7000064000020AB
:100B20005900002094010020704770477047000072
:100B300070B5044690F82000012804D0606A40F4A3
:100B40000020606218E0022084F82000206801681C
:100B500021F00101016000F0FDF805460EE000BF44
:100B600000F0F8F8401B0A2808D9606A40F4003009
:100B70006062052084F82000012070BD2068406874
:100B8000C007EDD1606270BD704770477047704715
:100B900070477047704700002DE9F84FDFF87CB1CF
:100BA00000224FF001084FF0030A4FF00F090BF13C
:100BB000040E00BF0B6808FA02F42340A3426ED172
:100BC0004D68022D01D0122D0ED1D50800EB850CF9
:100BD000DCF820505607F70E09FA07F6B5430E6900
:100BE000BE402E43CCF82060066855000F790AFA03
:100BF00005FC07F0030726EA0C06AF403743076001
:100C00004E68012E05D0022E03D0112E01D0122ED7
:100C10000ED18668CF6826EA0C06AF40374387605E
:100C20004668A6430C79C4F30014944034434460EE
:100C3000C6688C6826EA0C06AC403443C4604C6835
:100C4000E40065D5364C256845F480452560246868
:100C500022F0030504F480440094324C2E19D6F897
:100C6000084895072F0F09FA07F5AC432E4DA84207
:100C700001D1002524E02D4DA84201D101251FE01E
:100C80002B4DA84201D102251AE02A4DA84201D1DC
:100C9000032515E0284DA84202D1042510E037E0D5
:100CA000264DA84201D105250AE0254DA84201D1D3
:100CB000062505E0234DA84201D1072500E00825BF
:100CC000BD402543C6F80858DBF800405D464E6835
:100CD0009C43F60300D51C432C60DEF800407546AB
:100CE0004E689C43B60300D51C432C600B4D083561
:100CF0002C684E689C43F60200D51C432C60074DBF
:100D00000C352C684E689C43B60200D51C432C6001
:100D1000521C102AFFF44EAFBDE8F88F003C014092
:100D2000443802400030014000000240000402400C
:100D300000080240000C0240001002400014024073
:100D400000180240001C02400AB18161704709048A
:100D5000FBE70000014880687047000000000020A9
:100D600002488168027811448160704700000020C9
:100D70000B4810B5016841F400710160016841F44D
:100D800080610160016841F480710160032000F01E
:100D900073F80F2000F006F800F024F8002010BDD2
:100DA000003C024070B50D4D04464FF47A7128782E
:100DB000B1FBF0F00A490968B1FBF0F000F0C4FAA9
:100DC00048B9102C07D200222146501E00F034F8FA
:100DD00000206C6070BD012070BD0000000000208C
:100DE0000C0000200C4882B0016841F48041016091
:100DF000006800F4804000900748001F016841F03F
:100E0000805101600068002200F0805000900F21A6
:100E1000901E02B000F010B844380240002809DBF0
:100E200000F01F02012191404009800000F1E02004
:100E3000C0F8001170470000F0B40E4B1B680C4660
:100E4000C3F30223C3F10705042D00D90425191D9E
:100E5000072901D2002300E0DB1E012606FA05F176
:100E6000491E214099409E40761E16403143F0BCF9
:100E700000F055BB0CED00E0064900F007020868E1
:100E80004FF6FF03184040EA0220034A104308606F
:100E9000704700000CED00E00000FA052DE9F04776
:100EA0000E46050065D0DFF81481D8F80000F7B2CF
:100EB00000F00F00B04207D288F80070D8F80000A8
:100EC00000F00F00B04254D128683D4C810712D584
:100ED000400703D5206840F4E050206028780007E0
:100EE00003D5206840F4604020602068A96820F0A5
:100EF000F000084320602878C0072DD0304968688A
:100F00000839012812D0022813D0032811D009680B
:100F1000890700292DDA216821F0030101432160AE
:100F2000FFF718FF814641F2883A0EE0096889030D
:100F3000EFE709688901ECE7FFF70CFFA0EB090177
:100F4000514502D90320BDE8F0872068696800F0A8
:100F50000C00B0EB810FEFD1D8F80010404601F043
:100F60000F01B14207D90770006800F00F00B042CE
:100F700001D00120E7E72878400705D52068E96817
:100F800020F4E050084320602878000706D5206848
:100F9000296920F4604040EAC100206000F016F8A2
:100FA0002168084AC1F30311515CC8400649086032
:100FB0000F20FFF7F7FE0020C5E70000003C0240CD
:100FC00008380240401700080C000020154810B5F2
:100FD000006810F00C02144813D04110042A0FD0FE
:100FE000082A0ED10F4C241F2268236802F03F020A
:100FF0005B0207D52068C0F38810A0FB010106E062
:10100000084610BD2168C1F38811A1FB000100232F
:10101000FFF736F92168C1F30141491C4900B0FBD3
:10102000F1F010BD083802400024F4002DE9F84F1B
:10103000050076D02878DFF8F8B2BE4CC00749D05A
:10104000DBF800105846C1F38101012908D000687F
:10105000C0F3810002280AD1201D0068400206D595
:101060002068800336D568680028E2D032E06868DE
:10107000B0F5803F10D0B0F5A02F206810D020F43C
:1010800080302060206820F4802020606868A0B153
:10109000FFF760FE06460CE0206840F48030F4E77D
:1010A00040F480202060F7E7FFF754FE801B64289F
:1010B00073D820688003F7D50CE0FFF74BFE064697
:1010C00005E000BFFFF746FE801B6428F0D82068CB
:1010D0008003F7D42878DFF8608280074FF000099A
:1010E0003ED5DBF80010584611F00C0F09D000680F
:1010F000C0F3810002280BD18D48001F0068400218
:1011000006D42068800715D5E868012809D111E0C8
:10111000E868B8B10120C8F80000FFF71BFE0646DA
:1011200005E002E1FFF716FE801B0228C0D8206808
:101130008007F7D52068296920F0F80040EAC1004F
:1011400020600DE0C8F80090FFF704FE064604E0BA
:10115000FFF700FE801B02281FD820688007F7D405
:101160002878000722D5724E744869696C3671B1CF
:1011700001210160FFF7EEFD074604E0FFF7EAFDFD
:10118000C01B022809D830688007F7D50EE0C0F8E8
:101190000090FFF7DFFD074605E083E0FFF7DAFD8B
:1011A000C01B02287ED830688007F7D42878400713
:1011B00068D5DFF87CA100270AF1380ADAF80000C8
:1011C000C0000BD4DAF8001041F08051CAF80010CA
:1011D000DAF80000012700F080500090584E306887
:1011E000C00510D4306840F480703060FFF7B2FD65
:1011F000009005E0FFF7AEFD0099401A022851D893
:101200003068C005F6D54A4EA868683601280FD068
:101210000528306810D020F001003060306820F0E0
:1012200004003060A868B8B1FFF794FD00900FE0AB
:10123000306840F00100F4E740F004003060F7E768
:10124000FFF788FD0099411A41F28830814264D845
:1012500030688007F4D50EE0FFF77CFD009007E0D2
:10126000FFF778FD0099411A41F28830814254D845
:1012700030688007F4D42FB1DAF8001021F08051E3
:10128000CAF80010A869C0B3DBF80010C1F38101EF
:1012900002294AD00228484607D0C8F86000FFF764
:1012A00059FD00E039E005463AE04746C8F86000DD
:1012B000FFF750FD064604E0FFF74CFD801B0228B7
:1012C0002BD820688001F7D4D5E907010843A96A23
:1012D0001C4A490802EB01416A6A41EA821108434B
:1012E00095F82C1040EA01611148001F01600120AF
:1012F0003866FFF72FFD054605E014E0FFF72AFDED
:10130000401B022809D820688001F7D50BE000BFF8
:10131000FFF720FD401B022802D90320BDE8F88F0B
:1013200020688001F4D40020F8E70120F6E70000EF
:10133000083802400038024000004742800E474211
:10134000007000400000FFFF10B5401EB0F1807F2C
:1013500001D3012010BD4FF0E02460610F21601720
:1013600000F0DDF80020A06107202061002010BD02
:10137000FEE70000104810B50E49016003214160EE
:1013800000214FF400228160C0E903124FF44012A3
:1013900042610176012242768176C17601774177FA
:1013A000FFF72BFA002803D0BDE81040FFF707B87D
:1013B00010BD0000006400406400002030B587B01C
:1013C00014216846FEF794FF15480024016841F097
:1013D00080010160016801F080010591016841F020
:1013E00001010160016801F001010591016841F00E
:1013F0000201016000680B4D00F002000590002220
:10140000F8212846FFF7A0FCF82000900120CDE944
:101410000104694628460394FFF7BEFB07B030BDC0
:101420003038024000040240FEE7704710B5FFF775
:1014300097FC00F013F9012803D0BDE8104000F03C
:10144000F7B810BD30B593B030216846FEF750FFB5
:1014500014210CA8FEF74CFF19480025016841F043
:1014600080510160006800F08050119015480168BB
:1014700041F4804101600068022400F48040119032
:1014800001200090000401908001CDE9064008AAE7
:101490000420A82182E813000B906846FFF7C6FDE0
:1014A0000CA90F2081E831004FF4A0500F90E0020A
:1014B000109005210CA8FFF7F1FC13B030BD00001F
:1014C00040380240007000401048016841F470014B
:1014D00001600F48016841F0010101600C4A0021E0
:1014E0000832116002680B4B1A400260031D0A4A61
:1014F0001A60026822F48022026005480C30016004
:1015000002495806803908607047000088ED00E005
:1015100000380240FFFFF6FE10300024FEE7090706
:10152000090E002804DB00F1E02080F80014704769
:1015300000F00F0000F1E02080F8141D704702E079
:1015400008C8121F08C1002AFAD17047704700204E
:1015500001E001C1121F002AFBD17047FFF708FC10
:10156000FFF770FFFFF72AFFFFF704FFFEF704FF06
:10157000FEE7000006484168096829B14168C9686A
:10158000C9684968016370474FF0FF31FAE700000E
:1015900010000020D0E9013201699A60D0E90123EE
:1015A0005A604A68824201D182684A600022026120
:1015B0000868401E08600868704742684A6093687F
:1015C0008B6093685960916008610168491C0160F3
:1015D000704700001448816B11B1012141627047CE
:1015E000002141628169B1FA81F1C1F11F0101EB72
:1015F00081020E4951F822306BB101EB820101F1F9
:1016000008034A6852684A609A4201D152684A60A7
:10161000D16801607047502080F31188BFF34F8F6D
:10162000BFF36F8FFEE70000100000208C00002049
:1016300010B5502080F31188BFF34F8FBFF36F8F29
:1016400000F01AF818B104494FF0805008600020EB
:1016500080F3118810BD000004ED00E00548C16969
:1016600019B1806B18B1002070470120704702202B
:1016700070470000100000202DE9F0412E4C00279B
:10168000A06B40B1206A401C2062606A00B1012753
:101690003846BDE8F0816669761C666113D16068E2
:1016A000006838B1502080F31188BFF34F8FBFF32B
:1016B0006F8FFEE76068A1686160A060A06A401C4F
:1016C000A062FFF757FF206BDFF87080864209D3D6
:1016D0006068006880B16068C068C56868688642F4
:1016E0000DD220632068C06A00EB800158F8210009
:1016F0000128CAD90127C8E74FF0FF30F1E7281DBC
:10170000FFF748FFA86A18B105F11800FFF742FF7C
:10171000E86A0121A26981401143A16100EB8001C7
:1017200008EB8100291DFFF748FFE86A2168C96AB4
:101730008842CDD30127CBE7100000208C00002089
:101740000000000000000000010203040607080971
:101750007017000800000020640000003E1500081B
:10176000D417000864000020C40500004E150008CE
:101770000100000010000000000000000024F40040
:101780000000000000000000000000000000000059
:101790000000000000000000000000000000000049
:1017A0000000000000000000000000000000000039
:1017B0000000000000000000000000000000000029
:1017C0000000000000000000000000000000000019
:0417D0000000000015
:040000050800018965
:00000001FF
