:020000040800F2
:1000000010470020ED020008431D0008071C0008EF
:10001000411D0008F3050008AD1E000800000000A7
:100020000000000000000000000000002D02000899
:100030000D0600080000000089020008451D0008A8
:100040000703000807030008070300080703000868
:100050000703000807030008070300080703000858
:100060000703000807030008070300080703000848
:10007000010600080703000807030008070300083B
:100080000703000807030008070300080703000828
:10009000F505000807030008070300080703000828
:1000A0000703000807030008070300080703000808
:1000B00007030008070300080703000807030008F8
:1000C00007030008070300080703000807030008E8
:1000D000070300080703000807030008991E00082B
:1000E00007030008070300080703000807030008C8
:1000F00007030008C51D00080703000807030008E0
:1001000007030008070300080703000807030008A7
:100110000703000807030008070300080703000897
:100120000703000807030008070300080703000887
:10013000070300080000000000000000070300089B
:100140000703000807030008070300080703000867
:100150000703000807030008070300080703000857
:100160000703000807030008070300080703000847
:10017000070300080703000800000000000000005B
:10018000070300080703000800F002F800F03EF83B
:100190000AA090E8000C82448344AAF10107DA45E2
:1001A00001D100F033F8AFF2090EBAE80F0013F0F6
:1001B000010F18BFFB1A43F001031847BC3C0000B5
:1001C000DC3C0000103A24BF78C878C1FAD8520746
:1001D00024BF30C830C144BF04680C6070470000C1
:1001E0000023002400250026103A28BF78C1FBD840
:1001F000520728BF30C148BF0B6070471FB503F0DE
:10020000D4FD00F067F91FBD10B510BD00F0A2F9D4
:100210001146FFF7F3FF02F0C7FB00F0C0F903B48B
:10022000FFF7F2FF03BC00F08BF900002C4B1968BC
:100230000868B0E8F04F80F30988BFF36F8F4FF084
:10024000000080F311887047000000000848006833
:10025000006880F308884FF0000080F3148862B6CD
:1002600061B6BFF34F8FBFF36F8F00DF00BF00BFDA
:1002700008ED00E0DFF80C00016841F47001016056
:10028000704700BF88ED00E0EFF30980BFF36F8F88
:10029000134B1A681EF0100F08BF20ED108A20E9DA
:1002A000F04F106009B44FF0500080F31188BFF395
:1002B0004F8FBFF36F8F02F029FF4FF0000080F3E4
:1002C000118809BC19680868B0E8F04F1EF0100FDB
:1002D00008BFB0EC108A80F30988BFF36F8F7047B6
:1002E00024000020EFF30580704700000948804794
:1002F00009480047FEE7FEE7FEE7FEE7FEE7FEE708
:10030000FEE7FEE7FEE7FEE704480549054A064B1F
:1003100070470000711D000889010008104100208D
:1003200010470020104300201043002053EA020C25
:1003300000F069802DE9F04B4FF00006002B1FBF45
:10034000B3FA83F503FA05F424FA05F65E4012BF0A
:100350001643B2FA82F502FA05F4C5F120051EBF74
:1003600022FA05FC44EA0C04203556EA044C4FEA14
:10037000144418BF641C4FF000084FF0000990426D
:1003800071EB030C39D3002919BFB1FA81F701FAD7
:1003900007F6B0FA80F700FA07F6C7F120071EBF8C
:1003A00020FA07FC46EA0C062037B6FBF4FCA7EB64
:1003B0000507103F07F01F0BCBF120060CFA0BFBD3
:1003C0002CFA06F644BFB3460026202FA4BF5E4693
:1003D0004FF0000B5BEA060C08BF4FF0010B19EB66
:1003E0000B09ABFB027C48EB0608C01B06FB02CCEA
:1003F0000BFB03CC71EB0C01C1E70B4602464146F7
:100400004846BDE8F08B13B54FF000004FF00001F7
:10041000AFF30080BDE81C40704710B5203AC0F033
:100420000B80B1E81850203AA0E81850B1E81850F5
:10043000A0E81850BFF4F5AF5FEA027C24BFB1E832
:100440001850A0E8185044BF18C918C0BDE81040A3
:100450005FEA827C24BF51F8043B40F8043B08BFAC
:100460007047D20728BF31F8023B48BF11F8012B73
:1004700028BF20F8023B48BF00F8012B70474FF01F
:10048000000200B5134694469646203922BFA0E8E4
:100490000C50A0E80C50B1F12001BFF4F7AF0907F0
:1004A00028BFA0E80C5048BF0CC05DF804EB8900E1
:1004B00028BF40F8042B08BF704748BF20F8022B24
:1004C00011F0804F18BF00F8012B7047704770473C
:1004D0007047000070B5064C7C44064D7D4403E037
:1004E000206820448047241DAC42F9D170BD000033
:1004F000BC390000BC39000010B500F009F8BDE8B7
:100500001040AFF30080002801D000F019B8704708
:1005100010B5002102A000F04BF8012010BD000032
:100520005349475056464E3A2050757265207669B9
:10053000727475616C20666E2063616C6C6564001A
:1005400001491820ABBEFEE72600020000487047B4
:10055000AC4000207546FFF7F9FFAE46050069463E
:10056000534620F00700854618B020B5FFF7CCFEB3
:10057000BDE820404FF000064FF000074FF00008A4
:100580004FF0000B21F00701AC46ACE8C009ACE825
:10059000C009ACE8C009ACE8C0098D46704710B589
:1005A0000446AFF300802046BDE81040FFF737BE99
:1005B00070B505460C460A2000E06D1C00F011F8ED
:1005C00035B128780028F8D102E0641C00F009F861
:1005D00014B120780028F8D1BDE870400A20AFF3AC
:1005E000008008B569468DF800000320ABBE08BD49
:1005F0007047FEE7014800F092B800005401002067
:10060000014800F0D7BA0000BC01002070477047D5
:10061000704700000246002092F82030012B01D0E4
:10062000022B05D1106821B1D0F8100000F00300B2
:100630007047C068FAE730B590F82040012C05D02B
:10064000022C03D0416A41F480215DE00468002956
:1006500055D02469A40754D04FF4D874056804EB2E
:1006600001142D5915F00405956005682D594ED0DB
:10067000ED08556005682C59C4F34004D4604FF46C
:10068000DA74056804EB01142D5905F00F051561A6
:1006900005682D59C5F30725956105682C59240C6B
:1006A00054614FF4DC72046802EB0112A4581C7010
:1006B0000468A458240A5C700468A458240C9C7034
:1006C0000468A258120EDA704FF4DE72046802EB6E
:1006D0000112A4581C710468A458240A5C710468AF
:1006E000A458240C9C710468A258120EDA71006898
:1006F00081B1016941F020010161002030BDE46851
:10070000A8E7416A41F400114162012030BD6D0D3E
:100710001560AFE7C16841F02001C160EDE72DE948
:10072000F05F0546006800244669D0F804908768A9
:10073000D0F80CB0D0F810A0D0F81880F10748D04D
:10074000F90714D001218160B80703D5284600F0CD
:10075000D1F90CE0780702D54FF4006407E03807C0
:1007600002D54FF4805402E0284600F0C2F9F805A3
:1007700016D529684FF480708860B80503D52846DF
:1007800000F0BAF90CE0780502D544F4005407E013
:10079000380502D544F4804402E0284600F0ABF965
:1007A000F80316D529684FF480308860B80303D564
:1007B000284600F0A3F90CE0780302D544F4004485
:1007C00007E0380302D544F4803402E0284600F004
:1007D00094F9300707D55FEACB6004D5296810206B
:1007E00044F40074C86070074FF0080707D55FEA4B
:1007F0000B7004D52868C760284600F059F9B00787
:1008000006D52868C068800702D0284600F052F953
:10081000700607D55FEACA6004D52968102044F441
:1008200080640861B00607D55FEA0A7004D52868BD
:100830000761284600F05AF9F00606D528680069D5
:10084000800702D0284600F052F9B00308D55FEACD
:10085000C96005D5296810204860284600F048F98D
:10086000F00307D55FEA097004D528684760284679
:1008700000F045F9300446D55FEA497040D5F005EF
:1008800004D55FEAC87001D044F00104B00504D576
:100890005FEA887001D544F00204700504D55FEA70
:1008A000487001D544F00404300529D518F0700FC4
:1008B00026D008F07000402815D006DC102809D09A
:1008C00020280AD0302816D10AE050280ED06028FF
:1008D00011D10EE044F008040DE044F010040AE0E9
:1008E00044F0200407E044F0400404E044F08004B5
:1008F00001E044F480742868816921F0700181610D
:10090000296804204860002C05D0686A204368628A
:100910002846FFF77DFEBDE8F09F70B5040003D0C8
:1009200094F8200010B104E0012070BD204600F0D2
:1009300081F82068016821F00201016000F08EFB5F
:100940000546052604E000F089FB401B0A2811D863
:10095000206840688007F6D42068016841F00101F2
:10096000016000F07BFB05460BE000F077FB401BCD
:100970000A2806D9606A40F40030606284F820607A
:10098000D2E720684068C007EFD0207E01282068A9
:1009900001683DD021F080010160607E012820685F
:1009A000016838D021F040010160A07E0128206854
:1009B000016833D021F020010160E07E0128206829
:1009C00001682ED041F010010160207F01282068CD
:1009D000016829D021F008010160607F01282068AA
:1009E000016824D021F004010160D4E90201084328
:1009F000D4E90412114308436168491E0843216881
:100A0000C86100206062012084F82000002070BDD1
:100A100041F08001C0E741F04001C5E741F020010D
:100A2000CAE721F01001CFE741F00801D4E741F017
:100A30000401D9E710B586B0044614216846FFF7D3
:100A40001EFD18492068884229D1174800210268F4
:100A500042F000720260006800F0007005901248D9
:100A60001038026842F002020260006800F00200E2
:100A700005904FF4407000900220CDE90101032061
:100A80000390092004906946084800F009FA002202
:100A90000521142000F06EFB142000F05DFB06B071
:100AA00010BD0000006400404038024000040240D5
:100AB000704700001CB504460A48844210D100214A
:100AC0002046FFF7A7FD00280AD06B46064A002102
:100AD0002046FFF7B0FD6A460349204601F058FE64
:100AE0001CBD000054010020F40000207047704736
:100AF000704770477047704770477047704770473E
:100B00002DE9F0410446876D00F0A8FA064694F8F6
:100B100035000025022806D08020606584F8345016
:100B20000120BDE8F0812068016821F01601016014
:100B30002068416921F080014161206C08B9A06CF6
:100B400020B12068016821F0080101602068016877
:100B500021F0010101600BE000F080FA801B052804
:100B600006D92020606504F8345F03206070D8E760
:100B700020680068C007EFD194F85C103F208840DF
:100B8000B86004F8345F012060700020C9E790F875
:100B90003510022903D080214165012070470521CD
:100BA00080F835100068016821F001010160002023
:100BB000704700002DE9F84304464FF00009CDF8D6
:100BC000009063484FF41651A56D0068B0FBF1F733
:100BD0002E6894F85C10082000FA01F131420FD021
:100BE00021680A6852070BD50A6822F004020A60DD
:100BF00094F85C108840A860606D40F0010060656A
:100C000094F85C104FF0010808FA01F0304208D067
:100C100021684969090604D5A860606D40F00200AA
:100C2000606594F85C1004208840304208D0216848
:100C30000968890704D5A860606D40F0040060650C
:100C400094F85C1010208840304218D02168096860
:100C5000090714D5A86020680168490304D5006815
:100C6000000308D5A16C07E00168C90503D4016839
:100C700021F008010160216C09B12046884794F8F1
:100C80005C1020208840304231D021680968C906B4
:100C90002DD5A86094F8350005282068016806D095
:100CA000490347D5006800031DD4616C1CE021F0A6
:100CB000160101602068416921F080014161206CCA
:100CC00008B9A06C20B12068016821F0080101601A
:100CD00094F85C103F208840A86084F8349084F831
:100CE0003580216D1FE0E16B09B120468847606DBA
:100CF00000282BD0606DC00714D0052084F8350083
:100D00002068016821F0010101600098401C0090FA
:100D1000B84203D820680068C007F6D184F8349040
:100D200084F83580E16C002910D001B02046BDE880
:100D3000F04308470168C905D5D4016821F01001C6
:100D4000016084F8349084F83580CCE7BDE8F883FE
:100D5000200000202DE9F041044600F07FF906460E
:100D60005CB1002584F83450022084F835002068F6
:100D7000016821F0010101600DE00120BDE8F08172
:100D800000F06CF9801B052805D920206065032040
:100D900084F83500F2E720680068C007F0D12268C7
:100DA000116820480140D4E901031843D4E903360F
:100DB0003343184363691843A3691843E36918432D
:100DC000236A18430843616A042903D1D4E90B1349
:100DD00019430843106020684069666A20F00701E3
:100DE00030460E43012704280CD1A06A0643E06A6E
:100DF00040B1204601F0E8F920B14020606584F858
:100E00003570BAE720684661204601F007FA94F889
:100E10005C203F2191408160656584F83570002039
:100E2000ACE700003F8010F02DE9F0410446866DEC
:100E300090F83400002501280DD0012084F83400FA
:100E400094F835700020012F07D084F83400022573
:100E50002846BDE8F0810220FBE7022784F83570C0
:100E60006065204601F09CF994F85C103F208840B2
:100E7000B0602068016841F0160101602068416996
:100E800041F080014161206C20B12068016841F08F
:100E9000080101602068016841F001010160D7E7A5
:100EA0002DE9F84FDFF87CB100224FF001084FF038
:100EB000030A4FF00F090BF1040E00BF0B6808FA8C
:100EC00002F42340A3426ED14D68022D01D0122DB1
:100ED0000ED1D50800EB850CDCF820505607F70E34
:100EE00009FA07F6B5430E69BE402E43CCF82060E0
:100EF000066855000F790AFA05FC07F0030726EA91
:100F00000C06AF40374307604E68012E05D0022E15
:100F100003D0112E01D0122E0ED18668CF6826EA9A
:100F20000C06AF40374387604668A6430C79C4F38C
:100F30000014944034434460C6688C6826EA0C066A
:100F4000AC403443C4604C68E40065D5364C256839
:100F500045F480452560246822F0030504F48044AC
:100F60000094324C2E19D6F8084895072F0F09FA2D
:100F700007F5AC432E4DA84201D1002524E02D4DAC
:100F8000A84201D101251FE02B4DA84201D1022525
:100F90001AE02A4DA84201D1032515E0284DA842A8
:100FA00002D1042510E037E0264DA84201D10525E5
:100FB0000AE0254DA84201D1062505E0234DA842AF
:100FC00001D1072500E00825BD402543C6F8085893
:100FD000DBF800405D464E689C43F60300D51C4399
:100FE0002C60DEF8004075464E689C43B60300D581
:100FF0001C432C600B4D08352C684E689C43F60250
:1010000000D51C432C60074D0C352C684E689C4362
:10101000B60200D51C432C60521C102AFFF44EAFC0
:10102000BDE8F88F003C01404438024000300140E8
:10103000000002400004024000080240000C024090
:10104000001002400014024000180240001C024040
:101050000AB1816170470904FBE70000014880681C
:101060007047000014000020024881680278114493
:1010700081607047140000200B4810B5016841F4EE
:1010800000710160016841F480610160016841F410
:1010900080710160032000F08DF8002000F006F858
:1010A00000F03EF8002010BD003C024010B50146A3
:1010B00088B000222D2000F05DF82D2000F04CF8C3
:1010C00013480024016841F480710160006805A99B
:1010D00000F480700690684600F016F900F034F9CC
:1010E0000C494000B0FBF1F10C480B4A491E02606C
:1010F00040F2E732C0E90324C0E9011400F004FB28
:1011000010B1012008B010BD044800F019FBF9E748
:101110004038024040420F00002000401C020020E6
:101120000C4882B0016841F480410160006800F41D
:10113000804000900748001F016841F08051016025
:101140000068002200F0805000900F21901E02B035
:1011500000F010B844380240002809DB00F01F02FC
:10116000012191404009800000F1E020C0F8001109
:1011700070470000F0B40E4B1B680C46C3F302230B
:10118000C3F10705042D00D90425191D072901D233
:10119000002300E0DB1E012606FA05F1491E21406E
:1011A00099409E40761E16403143F0BC01F084BA4F
:1011B0000CED00E0064900F0070208684FF6FF0357
:1011C000184040EA0220034A1043086070470000BC
:1011D0000CED00E00000FA052DE9F0470E46050091
:1011E00065D0DFF81481D8F80000F7B200F00F00E6
:1011F000B04207D288F80070D8F8000000F00F0065
:10120000B04254D128683D4C810712D5400703D520
:10121000206840F4E05020602878000703D520685B
:1012200040F4604020602068A96820F0F000084386
:1012300020602878C0072DD0304968680839012817
:1012400012D0022813D0032811D009688907002979
:101250002DDA216821F0030101432160FFF7FEFE32
:10126000814641F2883A0EE009688903EFE7096890
:101270008901ECE7FFF7F2FEA0EB0901514502D925
:101280000320BDE8F0872068696800F00C00B0EB2F
:10129000810FEFD1D8F80010404601F00F01B142A4
:1012A00007D90770006800F00F00B04201D001209C
:1012B000E7E72878400705D52068E96820F4E05082
:1012C000084320602878000706D52068296920F4A3
:1012D000604040EAC100206000F056F82168084AEA
:1012E000C1F30311515CC840064908600020FFF7B4
:1012F000DDFE0020C5E70000003C02400838024047
:10130000DC3D0008200000200F2202600C4A136818
:1013100003F003034360136803F0F0038360136872
:1013200003F4E053C36012684FF4E05303EAD202BF
:1013300002610448006800F00F0008607047000078
:1013400008380240003C024004480549006809682A
:10135000044AC1F38221515CC8407047200000203C
:1013600008380240EC3D0008044805490068096857
:10137000044AC1F34231515CC8407047200000204C
:1013800008380240EC3D0008154810B5006810F020
:101390000C02144813D04110042A0FD0082A0ED191
:1013A0000F4C241F2268236802F03F025B0207D51E
:1013B0002068C0F38810A0FB010106E0084610BDBC
:1013C0002168C1F38811A1FB00010023FEF7AEFFE5
:1013D0002168C1F30141491C4900B0FBF1F010BD87
:1013E000083802400024F4002DE9F84F050076D0BB
:1013F0002878DFF8F8B2BE4CC00749D0DBF80010FF
:101400005846C1F38101012908D00068C0F381006A
:1014100002280AD1201D0068400206D520688003FA
:1014200036D568680028E2D032E06868B0F5803FC1
:1014300010D0B0F5A02F206810D020F480302060AC
:10144000206820F4802020606868A0B1FFF706FEC5
:1014500006460CE0206840F48030F4E740F4802039
:101460002060F7E7FFF7FAFD801B642873D8206837
:101470008003F7D50CE0FFF7F1FD064605E000BF5D
:10148000FFF7ECFD801B6428F0D820688003F7D4B8
:101490002878DFF8608280074FF000093ED5DBF83E
:1014A0000010584611F00C0F09D00068C0F38100FD
:1014B00002280BD18D48001F0068400206D4206826
:1014C000800715D5E868012809D111E0E868B8B1AE
:1014D0000120C8F80000FFF7C1FD064605E002E163
:1014E000FFF7BCFD801B0228C0D820688007F7D515
:1014F0002068296920F0F80040EAC10020600DE072
:10150000C8F80090FFF7AAFD064604E0FFF7A6FD25
:10151000801B02281FD820688007F7D4287800078E
:1015200022D5724E744869696C3671B1012101602F
:10153000FFF794FD074604E0FFF790FDC01B02286B
:1015400009D830688007F7D50EE0C0F80090FFF7A3
:1015500085FD074605E083E0FFF780FDC01B0228FC
:101560007ED830688007F7D42878400768D5DFF840
:101570007CA100270AF1380ADAF80000C0000BD479
:10158000DAF8001041F08051CAF80010DAF80000D3
:10159000012700F080500090584E3068C00510D4EC
:1015A000306840F480703060FFF758FD009005E02F
:1015B000FFF754FD0099401A022851D83068C00541
:1015C000F6D54A4EA868683601280FD0052830683D
:1015D00010D020F001003060306820F0040030604E
:1015E000A868B8B1FFF73AFD00900FE0306840F00E
:1015F0000100F4E740F004003060F7E7FFF72EFD4C
:101600000099411A41F28830814264D830688007DD
:10161000F4D50EE0FFF722FD009007E0FFF71EFD76
:101620000099411A41F28830814254D830688007CD
:10163000F4D42FB1DAF8001021F08051CAF800106C
:10164000A869C0B3DBF80010C1F3810102294AD0B8
:101650000228484607D0C8F86000FFF7FFFC00E00A
:1016600039E005463AE04746C8F86000FFF7F6FC67
:10167000064604E0FFF7F2FC801B02282BD8206806
:101680008001F7D4D5E907010843A96A1C4A490833
:1016900002EB01416A6A41EA8211084395F82C1075
:1016A00040EA01611148001F016001203866FFF720
:1016B000D5FC054605E014E0FFF7D0FC401B0228EE
:1016C00009D820688001F7D50BE000BFFFF7C6FC02
:1016D000401B022802D90320BDE8F88F2068800152
:1016E000F4D40020F8E70120F6E7000008380240B3
:1016F0000038024000004742800E47420070004020
:101700000000FFFF7047704710B5040003D094F845
:101710003D0010B107E0012010BD002084F83C001E
:10172000204600F00CF8022084F83D00211D2068BE
:1017300000F04EFB012084F83D00002010BD7047F2
:101740000168CA6842F00102CA600068816801F05D
:101750000701062903D0016841F001010160002062
:101760007047704770B50446006801694FF0000586
:10177000C943890715D4C168C943890711D4E91E33
:10178000016101202077206880698007204602D00F
:10179000FFF7E7FF04E000F098F8204600F096F825
:1017A000257720680169C943490717D4C168C9432F
:1017B000490713D46FF004010161022020772068EB
:1017C000806910F4407F204602D0FFF7CAFF04E092
:1017D00000F07BF8204600F079F825772068016951
:1017E000C943090716D4C168C943090712D46FF069
:1017F00008010161042020772068C0698007204625
:1018000002D0FFF7AEFF04E000F05FF8204600F0E2
:101810005DF8257720680169C943C90617D4C168F6
:10182000C943C90613D46FF0100101610820207765
:101830002068C06910F4407F204602D0FFF791FF76
:1018400004E000F042F8204600F040F825772068D8
:101850000169C943C90708D1C168C943C90704D18F
:10186000891E0161204600F033F820680169C943F0
:10187000090609D4C168C943090605D46FF080017F
:1018800001612046FFF73EFF20680169C943490610
:1018900009D4C168C943490605D46FF0400101610C
:1018A000204600F01FF820680169C94389060BD45F
:1018B000C168C943890607D46FF020010161204641
:1018C000BDE87040FFF71FBF70BD70477047000054
:1018D00000680349884201D1FFF7C6BB704700008A
:1018E00000200040704710B504460068416994F834
:1018F0003920C1F3C011212A0BD151B1416921F026
:1019000080014161206B08B1FFF7FAF8204600F032
:10191000A4FE2068416994F83A20C1F38011222A7C
:101920000BD151B1416921F040014161606B08B1B7
:10193000FFF7E6F8204600F082FE002010BD704759
:1019400070B5026804461068D168536910F00F0F33
:1019500050D003F0010501F4907635435DD0C20705
:1019600005D0CA0503D5E26B42F00102E2634207EB
:1019700005D5DA0703D0E26B42F00202E263820788
:1019800005D5DA0703D0E26B42F00402E2630207F6
:1019900005D5DA0703D0E26B42F00802E263E26B9E
:1019A000002A33D0800604D5880602D5204600F0F0
:1019B000C5FD20684069E16BC0F38010090700D4C1
:1019C00028B3204600F03BFE2068416949061AD53D
:1019D000416921F040014161606BA0B11B49016583
:1019E000606BFFF7D4F8002810D0606B016DBDE884
:1019F00070400847830610D58B060ED52046BDE8FB
:101A0000704000F09BBD2046FFF799FF70BD204657
:101A1000FFF795FF0020E06370BD030606D50B06B7
:101A200004D52046BDE8704000F0D3BD4006F3D594
:101A30004806F1D5D168204621F04001D16020212F
:101A400084F8391000F0DEF870BD0000A926000807
:101A500070B5040004D094F83900002510B106E0F8
:101A6000012070BD84F83850204600F023F824206F
:101A700084F839002068C16821F40051C160204613
:101A800000F006FC2068016921F4904101612068A2
:101A9000416921F02A0141612068C16841F4005187
:101AA000C160E563202084F8390084F83A00002002
:101AB00070BD000070B586B0064614216846FEF77A
:101AC000DEFC24493068884241D123480025016862
:101AD00041F480210160006800F4802005901E48D8
:101AE0001038016841F0040101600068694600F0A7
:101AF000040005904FF44060009002200190012006
:101B0000029003200390072004901448FFF7C8F9BF
:101B1000144C134820604FF00060C4E901054014E4
:101B2000C4E903506561A561E561256220466562EF
:101B3000FFF710F908B1FEF76AFD74630022052172
:101B40002720A663FFF716FB2720FFF705FB06B04B
:101B500070BD0000004800404038024000080240CC
:101B600028600240BC010020F8B5044690F83A0015
:101B700020283CD1C1B3BAB394F83800012836D03C
:101B8000012084F83800A162A2850025E5632220A7
:101B900084F83A00636B1748D863636B164818647F
:101BA000636B1648D864606B134605650846666B20
:101BB000216802463046091DFFF736F920680168A2
:101BC0004168009184F83850C16841F48071C16067
:101BD0002068416941F0010141612068416941F09B
:101BE000400141610020F8BDFFE70120FBE7022032
:101BF000F9E700006D260008352600084522000898
:101C0000704770477047FEE7104810B50E490160F5
:101C10000321416000214FF400228160C0E90312DA
:101C20004FF4401242610176012242768176C176FC
:101C300001774177FEF771FE002803D0BDE8104020
:101C4000FEF7E5BC10BD0000006400405401002018
:101C5000094808B5016841F40011016000680022DC
:101C600000F40010009005210C20FFF783FABDE876
:101C700008400C20FFF770BA3038024030B587B00A
:101C800014216846FEF7FBFB1A480024016841F066
:101C900080010160016801F080010591016841F057
:101CA00001010160016801F001010591016841F045
:101CB00004010160016801F004010591016841F02F
:101CC0000201016000680C4D00F002000590002246
:101CD000C0212846FFF7BCF9C020009001200190E8
:101CE0000220CDE9020469462846FFF7D9F807B07B
:101CF00030BD000030380240000402400E4810B5EC
:101D00000C4901600D4941604FF480518160002110
:101D10004FF48062C0E903120C22C0E90521C161C1
:101D2000FFF796FE002803D0BDE81040FEF76FBC19
:101D300010BD0000004800407C010020A08601008A
:101D4000FEE7704710B5502080F31188BFF34F8F26
:101D5000BFF36F8F01F0AEFA18B104494FF0805015
:101D60000860002080F3118810BD000004ED00E041
:101D70001048016841F4700101600F48016841F0AA
:101D8000010101600C4A00210832116002680B4B0E
:101D90001A400260031D0A4A1A60026822F4802277
:101DA000026005480C30016002495806803908601D
:101DB0007047000088ED00E000380240FFFFF6FEAB
:101DC000103000240148FFF7CDBC00001C020020A9
:101DD000F0B50268254C264D264E274F274B4FF075
:101DE000804CA04209D0604507D0A84205D0B0423F
:101DF00003D0B84201D0984204D122F0700E4A6854
:101E000042EA0E02A0421BD0604519D0A84217D06A
:101E1000B04215D0B84213D0984211D0184DA84204
:101E20000ED0184DA8420BD0174DA84208D0174D20
:101E3000A84205D0164DA84202D0164DA84203D1A3
:101E400022F44075CA682A434D6922F080022A4371
:101E500002608A68C2620A688262A04201D0984227
:101E600001D10969016301214161F0BD0000014018
:101E70000004004000080040000C00400004014045
:101E8000004001400044014000480140001800406B
:101E9000001C00400020004010B500F095F8BDE89F
:101EA00010400148FFF74CBD7C010020FEE7000018
:101EB00070B5032811D100250120084C022901D159
:101EC00025706070032901D120706070012904D150
:101ED0006570B42000F081FD257070BD8400002085
:101EE00070B50D4D0C4610B1012802D006E001225C
:101EF00000E0002280212846FFF7AAF844B1012C17
:101F000008D101222846BDE870404021FFF7A0B863
:101F10000022F7E770BD00000004024000B585B064
:101F2000142206496846FEF778FA0021684600F058
:101F300060FD0349086005B000BD0000C03D000819
:101F40001000002030B593B030216846FEF797FAB4
:101F500014210CA8FEF793FA19480025016841F0F6
:101F600080510160006800F08050119015480168B0
:101F700041F4804101600068022400F48040119027
:101F800001200090000401908001CDE9064008AADC
:101F90000420A82182E813000B906846FFF724FA7A
:101FA0000CA90F2081E831004FF4A0500F90E002FF
:101FB000109005210CA8FFF70FF913B030BD0000F9
:101FC000403802400070004038B50B4C2068006873
:101FD000C0060FD52046FFF786FC00F04FF82068BA
:101FE0000168406800902046BDE838401922034946
:101FF000FFF7BABD38BD00007C01002010010020B1
:10200000054C61782078FFF76BFF03480121001D24
:1020100000F0FAFFF5E700008400002086B01422EB
:1020200009496846FEF7F9F90021684600F0E1FC2D
:1020300000F010F8054C617A207AFFF739FF012192
:10204000034800F0E1FFF6E7F43D00082A01002014
:102050008C0000200749012081F82600064800680E
:10206000C16841F01001C160024919221A390248C1
:10207000FFF77ABD2A0100207C0100203B49088837
:10208000C0F30A0201F11A00A2F5806220F8062BC3
:102090004A78D3088A7843EA4213C3F30A03A3F5C4
:1020A000806320F8043CCB78920942EA83030A79E2
:1020B00043EA8223C3F30A03A3F5806320F8023CBA
:1020C00053084A7943EAC213C3F30A03A3F58063B2
:1020D000038093098370C2F30112C2700A8AC2F3AB
:1020E0000A02A2F580628280CA88C2800A890281BF
:1020F0004A8942810A7B02734A7B4273CA89C28140
:102100008A7B02F001030374C2F340034374C2F3F9
:1021100080038374C2F3C003C374C2F30013037556
:10212000C2F340134375C2F380138375D209C2759D
:10213000C97B01F001020276C1F340024276C1F38D
:1021400080028276C1F3C002C276C1F30012027728
:10215000C1F340124277C1F380128277C909C17777
:10216000012180F82010002070470000100100209D
:102170000023DFED0A2A0360C0ED022AC0ED032A26
:10218000C0ED052AC0ED072AC0ED082A00F12C0396
:1021900083EC050A8180C2807047000000000000C7
:1021A00030B50468256825F48025256004686360DF
:1021B0008368402B036803D099600068C26030BD1B
:1021C0009A600068C16030BD10B5014600208B697F
:1021D0008A6A4FF0C07453B1B3F5005F15D072B185
:1021E000012A0CD0022A0AD0032A09D104E01AB12C
:1021F000012A06D0022A03D1C96AC90100D50120EB
:1022000010BDC96AA142FAD010BD002AF7D0012A38
:10221000F2D0022AF3D0032AF3D010BD01681823AC
:10222000CAB2103AB2FBF3F2054B6FF30901032A6D
:102230009B5CC36500D9091D816508467047000095
:10224000D43D000870B5846B2068406994F839105B
:10225000C0F3C0100025212904D118B1E58420461F
:1022600000F0FBF92068406994F83A10C0F3801040
:10227000222904D118B1E585204600F0E0F9E06B91
:1022800040F01000E0632046FFF759FB70BD0000EE
:102290002DE9F041044600680169E26821F44051EB
:1022A000114301612169A068E26908436169114332
:1022B00022680843D16849F20C6399430143D16015
:1022C00020684169A26921F4407111434161E269CA
:1022D0006425B2F5004F9748974922684FF03208BD
:1022E0003FD08A4201D082427CD1FFF73DF800EB1B
:1022F000C00101EB001061688900B0FBF1F6FFF747
:1023000033F800EBC00101EB001061688900B0FBFD
:10231000F1F0B0FBF5F06FF01801484306EB8001D7
:1023200008EB0110B0FBF5F000F0F006FFF71CF829
:1023300000EBC00101EB001061688900B0FBF1F017
:10234000B0FBF5F006EB0016FFF70EF800EBC0014E
:1023500001EB001061688900B0FBF1F7FFF704F8AA
:10236000D2E08A4201D082423DD1FEF7FDFF00EB70
:10237000C00101EB001061684900B0FBF1F0B0FB57
:10238000F5F00601FEF7F0FF00EBC00101EB0010D5
:1023900061684900B0FBF1F7FEF7E6FF00EBC00112
:1023A00001EB001061684900B0FBF1F0B0FBF5F003
:1023B0006FF01801484307EB800108EBC100B0FB48
:1023C000F5F000F0F80006EB4006FEF7CDFF00EB5D
:1023D000C00101EB001061684900B0FBF1F7FEF7A6
:1023E000C3FF3CE055E0FEF7AFFF00EBC00101EB9F
:1023F000001061684900B0FBF1F0B0FBF5F0060198
:10240000FEF7A2FF00EBC00101EB0010616849007C
:10241000B0FBF1F7FEF798FF00EBC00101EB0010F5
:1024200061684900B0FBF1F0B0FBF5F06FF0180106
:10243000484307EB800108EBC100B0FBF5F000F06A
:10244000F80006EB4006FEF77FFF00EBC00101EB52
:10245000001061684900B0FBF1F7FEF775FF00EB73
:10246000C00101EB001061684900B0FBF1F0B0FB66
:10247000F5F06FF01801484307EB800108EBC1004D
:10248000B0FBF5F000F00700216830448860BDE83B
:10249000F081FEF759FF00EBC00101EB001061680D
:1024A0008900B0FBF1F6FEF74FFF00EBC00101EB36
:1024B000001061688900B0FBF1F0B0FBF5F06FF03F
:1024C0001801484306EB800108EB0110B0FBF5F062
:1024D00000F0F006FEF738FF00EBC00101EB001042
:1024E00061688900B0FBF1F0B0FBF5F006EB001677
:1024F000FEF72AFF00EBC00101EB001061688900C4
:10250000B0FBF1F7FEF720FF00EBC00101EB00107C
:1025100061688900B0FBF1F0B0FBF5F06FF01801D5
:10252000484307EB800108EB0110B0FBF5F000F029
:102530000F00A9E7001401400010014010B590F809
:102540003A10222901D0022010BD8168B1F5805FC8
:1025500011D00169002901681FD0496801F07F038B
:10256000816A4A1C82620B70C18D491E0904090CE4
:10257000C18518D02BE00269816A002A026852687E
:1025800005D0D2B20A80816A491C8162ECE7C2F3AD
:1025900008020A80816A891CF7E74A68816A4B1C35
:1025A00083620A70E0E70168CA6822F02002CA600C
:1025B0000168CA6822F48072CA6001684A6922F020
:1025C00001024A61202180F83A10FFF719FB002030
:1025D00010BD90F83910212901D002207047816880
:1025E000B1F5805F016A0BD04A1C0262026809786B
:1025F0005160C18C491E0904090CC1840ED017E03A
:1026000009880268C1F30801516001690029016A63
:1026100002D0491C0162ECE7891CFBE70168CA682B
:1026200022F08002CA600068C16841F04001C160C8
:102630000020704710B5806BFFF7E3FA10BD01680A
:10264000CA6822F49072CA6001684A6922F00102E5
:102650004A61202180F83A1070470168CA6822F068
:10266000C002CA60202180F83910704710B50146B9
:10267000806B09680968C90513D40021C185016808
:10268000CA6822F48072CA6001684A6922F00102B5
:102690004A6101684A6922F040024A61202180F8BB
:1026A0003A10FFF7ADFA10BD10B5806B0021C1855F
:1026B000C184FFF744F910BD0907090E002804DBA7
:1026C00000F1E02080F80014704700F00F0000F1E6
:1026D000E02080F8141D704710B50446408C6087D8
:1026E000E08B2087B4F91400E0820A8852BAE283B2
:1026F0004A8852BA6284898849BA09B2A182814261
:1027000002D0FEF7ABFCA060B4F91E00DFED090AB1
:1027100000EE100AA06AB8EEC00A008860EE200A37
:1027200000EE100AB8EE400A80EE801A84ED061A18
:1027300010BD00000000B4432DE9F0411E46DDE964
:10274000067814460D4600F05BF80F49866201607A
:10275000002100F12C02012D82E8820102D0022D1D
:1027600002D009E0094901E00849303101EB840158
:10277000A1F58051C1F8FC0705EB850104EB41018F
:10278000491E8171BDE8F081103E000894000020D0
:102790002DE9F04105460888174E84B21746706847
:1027A00085420FD1A4F2012007280BD8134800EB73
:1027B0008400A0F58050D0F8FC0718B101684A6881
:1027C00039469047B068854213D1A4F2012007280A
:1027D0000FD80A48303000EB8400A0F58050D0F8C4
:1027E000FC07002805D001684A683946BDE8F04179
:1027F0001047BDE8F0810000000000209400002098
:10280000024901600021017170470000343E000858
:1028100070B504462DED048BFFF75EFF94F84C0075
:1028200020B9E08B2087012084F84C00B4F91E0009
:10283000B4F93810411AB1F5805F02DDE16B491E31
:1028400004E011F5805F02DAE16B491CE16300EE00
:10285000100AA06AF8EEC00A8578680300EE100A34
:10286000B8EE401A80EE810ADFED120A20EE200A4F
:1028700010EE100A01F028FA41EC180B284601F07E
:1028800028F841EC190BE06B01F00CF853EC192B14
:1028900000F0B0FE9FED081B53EC112B01F02CF85B
:1028A00053EC182B00F0FEFD00F0CAFDA061BDEC5A
:1028B000048B70BD0000B44300000000008076402F
:1028C0007CB5DDE90645CDE90045FFF735FF074951
:1028D000016000219FED060AC16380ED110A9FEDA2
:1028E000050A80ED120A80F84C107CBD483E0008B5
:1028F000B743BA51B743BAD10020FDF7FDBD000080
:1029000030B532222DED028B83B09FED228A00215B
:102910009FED1E2ADFED1E1AB0EE481AF7EE000AF0
:10292000B2EE0E0A1C48FFF723FC1B48002211469A
:102930009FED1A2AF0EE481AB0EE481AF0EE480A57
:102940009FED170A6030FFF713FC16484FF4005252
:1029500013210280104C817060340F4DCDE900547A
:10296000034640F20322012104F16000FFF7A8FFB3
:10297000CDE900540B4B4FF40172012104F1B0007A
:10298000FFF79EFF03B0BDEC028B30BD00007A461E
:1029900000007A44000000004C3F002000401C462C
:1029A0008FC2F53D90000020FEF766FBFFF7CAFAE4
:1029B000FFF764F9FFF74CF9FFF726F9FFF79EF9E7
:1029C000FFF748FBFFF7AAFA00F00EF8FEE7014612
:1029D0000020842900D0C81C704710B500B9012020
:1029E00000F0ECFA002010BD10B500F053FB002001
:1029F00010BD3EB504460D46B0F90800FFF7E7FFED
:102A000002A9CDE90001208A2B4682B2D4E9001048
:102A100000F024FC012801D000203EBD02983EBDFC
:102A20002DE9F041184C0F46054666692068001DE7
:102A300000F00AFA38B9206890F82C10012088407C
:102A4000A1698143A161681C07D137B12168BDE844
:102A5000F0410E48091D00F030BA20683544B542F7
:102A60004560216805D2A068BDE8F041091D00F06D
:102A70000CBA6068091D00F008FA206B854200D28C
:102A80002563BDE8F0810000240000203803002009
:102A90002DE9F041054600F01DFA2E4C2069401C3E
:102AA000206120682C4F10B1E06940B32DE0256013
:102AB0002069012829D1002606EB860007EB80005B
:102AC00000F0D5F9761C072EF6D323488C3000F0A1
:102AD000CEF92148A03000F0CAF91F48B43000F008
:102AE000C6F91D48C83000F0C2F91B48DC3000F0C0
:102AF000BEF919488C3060601430A06005E0206891
:102B0000E96AC06A884200D82560E06A401CE06239
:102B1000E96A0120A26988401043A06101EB8100AD
:102B200007EB8000291D00F0C8F900F0F3F9E06917
:102B300000280CD02068E96AC06A884207D2074999
:102B40004FF080500860BFF34F8FBFF36F8FBDE829
:102B5000F0810000240000205C02002004ED00E071
:102B600010B50446006B00F0E9F92046BDE81040BE
:102B700000F0E4B910484FF47051420706D0C01D70
:102B80000D4920F00700411AC1F570510B4A00238E
:102B90000144C2E900030839103A21F0070111602D
:102BA0004B600B600B1AC0E9001393604FF00040BC
:102BB0005360D060704700004C030020700000207C
:102BC000144E154CA6F1C8074FF08058DFF84C9012
:102BD00012E000BF00F07EF9F068C568281D00F023
:102BE00033F92069401E2061E068401EE06000F07B
:102BF00091F92846FFF7B4FFE0680028EAD1386869
:102C00000128F9D9C9F80080BFF34F8FBFF36F8F48
:102C1000F2E70000240300202400002004ED00E07F
:102C20002DE9F0479A46DDE9098481466FF00303F8
:102C3000206B03EB82021044089D20F0070670070A
:102C400007D0502080F31188BFF34F8FBFF36F8FF1
:102C5000FEE723180A5C83F834200A5C12B1401C9A
:102C60001028F6D3002784F84370072D00D30625DB
:102C7000E562C4E91157201D00F004F904F11800C1
:102C800000F000F92461C5F107006462A061E76407
:102C900084F8507052464946304600F0BFF8206034
:102CA000B8F1000F01D0C8F80040BDE8F08700007F
:102CB00030B5114900E011460A688242FBD34B68E7
:102CC0005C18844203D14068184448600846436851
:102CD0001C18944209D1084C103C2468A24209D027
:102CE00052681A4442600A6812680260814200D049
:102CF000086030BD0460F9E77000002006484168B4
:102D0000096829B14168C968C968496801637047A1
:102D10004FF0FF31FAE70000240000200848406827
:102D2000401C4FF0500080F3118804D0BFF34F8F48
:102D3000BFF36F8FFEE7BFF34F8FBFF36F8FFEE7D9
:102D4000780000202DE9F0410546002700F0D6F973
:102D5000314E306808B9FFF70DFFF06805424BD1DE
:102D6000C5B3083568070ED005F00700C0F10800AC
:102D70000544680707D0502080F31188BFF34F8FB8
:102D8000BFF36F8FFEE72DB37068854234D82248B9
:102D9000103001460C6801E020460C466168A942EB
:102DA00002D221680029F7D131688C4224D007680B
:102DB0002168016060680837411B10290FD960192C
:102DC000420708D0502080F31188BFF34F8FBFF324
:102DD0006F8FFEE710E041606560FFF769FF616893
:102DE0007068401A7060B268904200D2B060F068BB
:102DF00001430020C4E9000100F0C0FA780707D0C1
:102E0000502080F31188BFF34F8FBFF36F8FFEE721
:102E10003846BDE8F08100006000002010B5031FB7
:102E20004FF080741C601B1F21F001011960191FF5
:102E3000044B0B6014390A60091F6FF0020244381A
:102E40000A6010BD1D2D0008D0E9013201699A60A9
:102E5000D0E901235A604A68824201D182684A60FF
:102E6000002202610868401E08600868704700F18F
:102E700008014FF0FF32C0E90112C1600161002179
:102E80000160704700210161704730B50B685A1C22
:102E900002D000F1080202E0026904E02246546810
:102EA00025689D42FAD953684B6099608A605160E9
:102EB00008610168491C016030BD42684A6093683E
:102EC0008B6093685960916008610168491C0160DA
:102ED00070470000502080F31188BFF34F8FBFF37D
:102EE0006F8F0A494868401C486001280CD1084887
:102EF000006810F0FF0F07D0502080F31188BFF357
:102F00004F8FBFF36F8FFEE77047000078000020FF
:102F100004ED00E00849486828B1401E486001D12E
:102F200080F311887047502080F31188BFF34F8FD2
:102F3000BFF36F8FFEE700007800002070B5002817
:102F400027D0144DA0F108046168E868014207D158
:102F5000502080F31188BFF34F8FBFF36F8FFEE7D0
:102F600022683AB1502080F31188BFF34F8FBFF32E
:102F70006F8FFEE78143616000F0C0F860686968A8
:102F8000084468602046FFF793FEBDE8704000F0FB
:102F9000F5B970BD600000204FF0E0200021016114
:102FA000816105494FF47A720968B1FBF2F1491E5B
:102FB00041610721016170472000002010B5020027
:102FC00014D00F48806B38B1502080F31188BFF3C4
:102FD0004F8FBFF36F8FFEE700F090F8002110468F
:102FE000FFF71EFD00F0CAF9002807D105494FF090
:102FF00080500860BFF34F8FBFF36F8F10BD00008C
:103000002400002004ED00E070B50D4604000BD054
:1030100095B11E4A906BB8B1502080F31188BFF370
:103020004F8FBFF36F8FFEE7502080F31188BFF3FF
:103030004F8FBFF36F8FFEE7502080F31188BFF3EF
:103040004F8FBFF36F8FFEE700F058F85269236887
:103050005919934204D98B420AD9914202D807E008
:103060008B42FAD9881A21600021FFF7D9FC00E0D1
:10307000216000F083F9002807D105494FF0805006
:103080000860BFF34F8FBFF36F8F70BD2400002027
:1030900004ED00E01CB515480024CDE900402346AE
:1030A000802213A1144800F0D9F8012809D0401C4F
:1030B0001AD1502080F31188BFF34F8FBFF36F8F69
:1030C000FEE7502080F31188BFF34F8FBFF36F8F5F
:1030D00006484FF0FF31343801630121C16144617A
:1030E000BDE81C4000F040B81CBD000058000020A6
:1030F00049444C4500000000C12B00080248816B88
:10310000491C816370470000240000201448816B33
:1031100011B1012141627047002141628169B1FA18
:1031200081F1C1F11F0101EB81020E4951F82230FA
:103130006BB101EB820101F108034A6852684A60F1
:103140009A4201D152684A60D168016070475020AC
:1031500080F31188BFF34F8FBFF36F8FFEE700003E
:10316000240000205C0200201CB537480168374A63
:10317000914207D1502080F31188BFF34F8FBFF3E6
:103180006F8FFEE700683149491E884207D1502001
:1031900080F31188BFF34F8FBFF36F8FFEE72C4989
:1031A00008780190FF20087008788DF800009DF8DD
:1031B00000009DF8002000F0F000904207D0502061
:1031C00080F31188BFF34F8FBFF36F8FFEE79DF839
:1031D0000000204B00F0500018700720986005E0B8
:1031E0009DF8002052008DF80020401E9DF8002020
:1031F0001206F5D49860032807D0502080F3118878
:10320000BFF34F8FBFF36F8FFEE74FF440709860AE
:10321000019808700C482030016841F47001016089
:10322000016841F070410160FFF7B6FE0020586070
:10323000FDF720F80848016841F040410160FDF7C2
:1032400005F800201CBD000000ED00E071C20F4138
:1032500000E400E07800002034EF00E02DE9FF5F9B
:103260008346DDE90E87994616468A469000FFF7A9
:1032700069FD05001AD05420FFF764FD040012D048
:1032800025630021CDE90241CDE900874B46324656
:1032900051465846FFF7C4FC2046FFF7F9FB0120D2
:1032A00004B0BDE8F09F2846FFF748FE4FF0FF301E
:1032B000F6E700002DE9F0412E4C0027A06B40B14D
:1032C000206A401C2062606A00B101273846BDE8D0
:1032D000F0816669761C666113D16068006838B158
:1032E000502080F31188BFF34F8FBFF36F8FFEE73D
:1032F0006068A1686160A060A06A401CA062FFF7DE
:10330000FDFC206BDFF87080864209D3606800689E
:1033100080B16068C068C568686886420DD2206365
:103320002068C06A00EB800158F821000128CAD942
:103330000127C8E74FF0FF30F1E7281DFFF784FDB4
:10334000A86A18B105F11800FFF77EFDE86A0121AF
:10335000A26981401143A16100EB800108EB81006B
:10336000291DFFF7AAFDE86A2168C96A8842CDD302
:103370000127CBE7240000205C0200202DE9F04764
:103380002C4D00242746A86B38B1FFF7A3FDA86B8E
:10339000401EA863A86B40B146E0502080F311881E
:1033A000BFF34F8FBFF36F8FFEE72969224E0120D5
:1033B000D1B3A6F1B40980463068E8B1F068C468BA
:1033C00004F11800FFF740FD201DFFF73DFDE06A06
:1033D000AA6908FA00F11143A96100EB800109EB29
:1033E0008100211DFFF769FDE06A2968C96A8842EA
:1033F000E2D3C5F82480DFE70CB1FFF77FFC2C6A2D
:1034000044B14646FFF756FF00B16E62641EF9D123
:1034100000202862686A38B1084901273807086027
:10342000BFF34F8FBFF36F8FFFF774FD3846BDE8D2
:10343000F0870000240000201003002004ED00E0CD
:1034400021F00042A2F16052B2F5801F01F000436A
:1034500028BFD2F17F6C0BD95FEA001C43EAC2029D
:1034600042EB507018BF704728BF20F00100704732
:10347000B2F5801FBCBF184670474FEA410C1CF5DF
:10348000001F02D2084600F095BC70B500F0DEFACD
:1034900000000089FFF7F6BF4FF00040A0F5800064
:1034A0007047000010B591EA030F48BF83F0004356
:1034B00000F12883841A71EB030C05D2121943EB37
:1034C0000C03001B61EB0C01DFF824E14FEA1154FF
:1034D000A4EB135C1EEA430F18BF9EEA445F73D04F
:1034E00023EA0E03DCF1200E21EA045143F4801399
:1034F00032D322FA0CFE10EB0E0023FA0CFE41EB45
:103500000E01CCF1200E03FA0EFE10EB0E0051F16D
:103510000001B1F5801FCCF1200E32D201EB045135
:1035200012FA0EF2BDE8104058BF7047401C38BF79
:103530005FEA420218BF7047002814BF20F0010064
:1035400041F100014FEA410313F5001F38BF7047F6
:10355000A1F1C04100F0C8BA012A43EB0302ACF16B
:10356000200CDCF11F0E32BF4FF0000E23FA0CF3DB
:1035700010EB030041EB0451B4EB115FD0D0A1EB91
:10358000045101F5801149085FEA300001EB045154
:103590000ED350F1000038BF12FA0EFE08D1BDE87C
:1035A0001040C9E7401C38BF5FEA4202CAD1C3E7F6
:1035B000BDE810404FEA410313F5001F38BF7047C4
:1035C000A1F1C04100F090BA9EEA445F08D011EA30
:1035D0005E0FBDE8104004BF01F0004100207047BD
:1035E000BDE8104070B500F031FA00BF64FBBE3E8C
:1035F0000000E0FF2DE9C04130B4DFF8A0C23CEA92
:10360000111418BF3CEA131400F0EC8081EA0305A2
:103610001CEA111444EAD57418BF1CEA131500F013
:10362000C780A4EB05044FF0004545EAC12145EAF7
:10363000C32341EA505143EA525304F17F74994243
:1036400004F500344FEAC0204FEAC22208BF90427E
:1036500000F09C804FEA13650FF24016765D4FEA4A
:10366000134506FB05F7C7F1807706FB07F74FEA1E
:10367000D737A7FB03687642C8F58038A7FB06CE8C
:1036800038BFA8F1010807FB08E64FF0000EA6FBC3
:10369000028CE6FB03CEDCF1000CCEF1004E38BF0D
:1036A000AEF1010EA6FB0C584FF000074FF00005DD
:1036B000E6FB0E87A1FB08C6A0FB07CE16EB0E06A5
:1036C00045F10005E1FB076515F1E04E7EBFA4F56D
:1036D00080345FEA46066D4116F1800745F100052A
:1036E0004FEA17274FEA066647EA0567A6F1DE4666
:1036F000B6F1805F4FEA15251FD9384624F0010C3A
:1037000005EBC471BCF1FE6F01EB0C1102D8F0BCEB
:10371000BDE8008124425CBF01F5801E9EEAC47FA3
:1037200002D4F0BCBDE80081244238D4F0BCA1F141
:10373000C041BDE8004100F0D7B94FEAD22242EAC9
:1037400043524FEAD323A7FB02864FEAD02040EA38
:10375000415007FB03661EEA0E0F4FEAD12105FB1D
:10376000026658BFA6EB0056B6EB00564FEA520E63
:103770004EEAC37E18EB0E0E56EB530EBDD518EB7A
:1037800002085E417F1C55F10005B6E74FF4801535
:103790004FF000074FF000064FF00008ADE7F0BC17
:1037A0004FF0000001F1C04101F00041BDE800818F
:1037B00011EA0C1F0CEA131500D00CE013EA0C1FE1
:1037C00000F025804FF00000F0BC81EA030101F019
:1037D0000041BDE80081F0BCBDE8004181EA030181
:1037E00000F082B9F0BCBDE8004170B500F02EF9E0
:1037F000097EFC3E00F007B881EA03014FF00000AB
:1038000001F00041704781EA030100F06DB9F0BC9E
:10381000BDE800414FF0000021497047FFFDFBF972
:10382000F7F5F4F2F0EEEDEBE9E8E6E4E3E1E0DEF3
:10383000DDDBDAD8D7D5D4D3D1D0CFCDCCCBCAC865
:10384000C7C6C5C4C2C1C0BFBEBDBCBBBAB9B8B78C
:10385000B6B5B4B3B2B1B0AFAEADACABAAA9A8A87F
:10386000A7A6A5A4A3A3A2A1A09F9F9E9D9C9C9B4D
:103870009A999998979796959594939392919190F8
:103880008F8F8E8E8D8C8C8B8B8A89898888878789
:103890008685858484838382828181800000FF07FE
:1038A0000000F87F10F0004248BF4042B0FA80F3B9
:1038B00010FA03F10AD0C3F11D0303F580634FEA48
:1038C000415002EB035202EBD12170474FF0000050
:1038D0007047B0FA80F310FA03F10AD0C3F11D0368
:1038E00003F580634FEA41504FEA035202EBD121C6
:1038F00070474FF000007047DFF848C170B51CEA10
:10390000111E1EBF1CEA13159EEA0C0F95EA0C0F40
:1039100000F06F8081EA030423EA4C134EEAD47E60
:1039200021EA4C1141F4801143F48013AE44A1FB11
:10393000024CA0FB0365AEF17F7E361955EB0C05FA
:10394000A1FB034C4CF10003A0FB021C16EB0C0680
:10395000654153F10003094218BF46F0010613F414
:10396000007F0BD14FEA03314FEA0530340341EABF
:10397000155140EA16506FF003020AE04FEAC321E6
:103980004FEAC520F40241EA555140EA56506FF023
:10399000020202EB2E4201EB025585EACE710AD0FB
:1039A0005FEA440C18BF24F0004450F1000041F1DC
:1039B000000120EAD47040F2FE7C624500D270BD66
:1039C000A84214BF4FF080444FF04044002E08BF7F
:1039D0000024BEF1806FA8BFA1F1C041BDE87040D6
:1039E00080F282804FF0000001F1C04101F00041FF
:1039F00070479EEA0C0F0CEA131518BF95EA0C0FDE
:103A000006D04FF0000081EA030E0EF0004170BDB9
:103A100000F01CF88900013E00F007B800F009B87A
:103A20004FEA430C5FEA5C5C08D081EA030100F0D6
:103A30005BB84FEA410C5FEA5C5CF6D14FF00000E6
:103A4000014970470000FF070000F87F0EF1020EE9
:103A50002EF0030E5EF8046B364205D4012A43EBC8
:103A6000030515F5001F12D8012841EB010C1CF5C8
:103A7000001F0CD80ED14FEAD17C15F5001F0CEBBE
:103A80004C0C0CF1020C08BF4CEBD37C04E04FF063
:103A9000080C01E04FEAD37C0CEB4C0526FA05F646
:103AA00006F00706B6F1040C06D20EEB860CBDE854
:103AB00070404CF0010C6047DFE80CF0090B02028B
:103AC0004FF000414FF00000A1F5002170BD1946F4
:103AD0001046012851EB010418BFD4F5001484BF2F
:103AE000002001F0004170BD0808A0F500114FEA68
:103AF0003101704710B591EA030F48BF83F00043CE
:103B00003FF5D8AC841A71EB030C07D212198CF074
:103B1000004C43EB0C03001B61EB0C01DFF8A4E14C
:103B20004FEA1154A4EB135C1EEA430F18BF9EEA40
:103B3000445F00F0B08023EA6E03524221EA045150
:103B4000C3EB6E0338BF5B1EDCF1200E25D322FAD7
:103B50000CFE10EB0E0043FA0CFE41EB0E01CCF113
:103B6000200E03FA0EFE10EB0E0051F10001CCF115
:103B7000200E29D412FA0EF201EB0451BDE81040D8
:103B800058BF7047401C1CBFB2F1004F704700285F
:103B90000CBF491C20F00100704712EB020E43EBF2
:103BA000030218BF4FF0010E4EEA4202ACF1200CA6
:103BB000DCF11E0E54D943FA0CFE10EB0E0051F14D
:103BC000FF31CCF11E0ED5D50EF1010E12FA0EFE0C
:103BD000404141EB010101EB445C5FEA5C5C10D9C0
:103BE00010EBDE7001EB045138BFBEF1004FBDE8B1
:103BF000104018BF704700280CBF491C20F001007E
:103C0000704730D24FEAD42C11F5001124F400642F
:103C10001BD0B1FA81F20B3AA41AA41ED2F12003F0
:103C2000914030FA03F31943904001EBCC71002C22
:103C300001EB0451BDE81040A8BF704701F1C0413D
:103C40004FF0000001F000417047B0FA80F310FA25
:103C500003F100D110BDE41A173C4805C90AE4E796
:103C600001EB045110BD491001EB0451BDE81040B7
:103C70004FEA300002E04FF0000170474A0008BFF1
:103C80000042F8D0B2F5001F28BF704701F0004194
:103C90004FF0000070479EEA445F07D011EA5E0FC4
:103CA000BDE8104004BF002100207047BDE810406F
:103CB00070B5FFF7CBFE00BF40DFF63E83F000415A
:103CC000104670470000E0FF43004FEAD30C4FEA74
:103CD0003C0C43401FBF40070CF1605113F0FE4FF6
:103CE00070471CF0006F03D100200CF000417047BA
:103CF0000CF0004343EA507010B540EACC0000F0ED
:103D00000EF800BF000000924FEA0001FFF7ECBE82
:103D10004FF000414FF00000A1F5002170470EF177
:103D2000020E2EF0030E5EF8044B244204D44FEA38
:103D30004102B2F17F4F11D84FEA4003B3F17F4FF8
:103D40000CD80ED14FEAD07CB2F17F4F0CEB4C0C6B
:103D50000CF1020C08BF4CEBD17C04E04FF0080CD6
:103D600001E04FEAD17C0CEB4C0324FA03F404F09D
:103D70000704B4F1040C06D20EEB840CBDE810402D
:103D80004CF0010C6047DFE80CF0070802024FF02E
:103D90000040A0F5800010BD0846420018BFD2F1D7
:103DA000807288BF00F0004010BD4FF04070E1EE1F
:103DB000100A7047FF2141EAD050C005704700004B
:103DC000643E00081D200008010000000000000003
:103DD000800000000006101600061016000000000B
:103DE00000000000010203040607080900000000AB
:103DF00001020304703E000801200008FFFF0000DC
:103E00000000000080000000000000000000000032
:103E100000000000D926000800000000000000009B
:103E20000000000000000000000000000000000092
:103E300000000000F9280008F9280008F928000807
:103E40000000000000000000000000001128000831
:103E50000000000000000000000000000000000062
:103E60000000000064656661756C745461736B00DA
:103E7000436C6177000000009C3E000800000020B9
:103E800094000000C4010008303F000894000020A6
:103E90007C460000E001000869EAFFFF0000000026
:103EA0000000000000000000000000000000000012
:103EB0000100000010000000000000000024F400D9
:103EC00000000000000000000000000000000000F2
:103ED00000000000000000000000000000000000E2
:103EE00000000000000000000000000000000000D2
:103EF00000000000000000000000000000000000C2
:103F000000000000000000000000000000000000B1
:103F10000000000000000000AAAAAAAA00000000F9
:103F20000000000000000000000000000000000091
:040000050800018965
:00000001FF
