:020000040800F2
:10000000A0480020ED020008D92C000809290008AA
:10001000D52C000837060008E92E00080000000073
:100020000000000000000000000000002D02000899
:100030007D0600080000000089020008DD2C000891
:100040000703000807030008070300080703000868
:100050000703000807030008070300080703000858
:100060000703000807030008070300080703000848
:100070005D060008070300080703000807030008DF
:100080000703000807030008070300080703000828
:100090003D060008070300080703000807030008DF
:1000A0000703000807030008070300080703000808
:1000B00007030008070300080703000807030008F8
:1000C00007030008070300080703000807030008E8
:1000D000070300080703000807030008D92E0008DB
:1000E00007030008070300080703000807030008C8
:1000F00007030008752D0008070300080703000820
:1001000007030008070300080703000807030008A7
:100110000703000807030008070300080703000897
:100120006D0600080703000807030008070300081E
:10013000070300080000000000000000070300089B
:100140004D0600080703000807030008070300081E
:100150000703000807030008070300080703000857
:100160000703000807030008070300080703000847
:10017000070300080703000800000000000000005B
:10018000070300080703000800F002F800F03EF83B
:100190000AA090E8000C82448344AAF10107DA45E2
:1001A00001D100F033F8AFF2090EBAE80F0013F0F6
:1001B000010F18BFFB1A43F001031847BC5B000096
:1001C000DC5B0000103A24BF78C878C1FAD8520727
:1001D00024BF30C830C144BF04680C6070470000C1
:1001E0000023002400250026103A28BF78C1FBD840
:1001F000520728BF30C148BF0B6070471FB505F0DC
:1002000042FD00F089F91FBD10B510BD00F0C4F922
:100210001146FFF7F3FF04F043F900F0E2F903B4ED
:10022000FFF7F2FF03BC00F0ADF900002C4B19689A
:100230000868B0E8F04F80F30988BFF36F8F4FF084
:10024000000080F311887047000000000848006833
:10025000006880F308884FF0000080F3148862B6CD
:1002600061B6BFF34F8FBFF36F8F00DF00BF00BFDA
:1002700008ED00E0DFF80C00016841F47001016056
:10028000704700BF88ED00E0EFF30980BFF36F8F88
:10029000134B1A681EF0100F08BF20ED108A20E9DA
:1002A000F04F106009B44FF0500080F31188BFF395
:1002B0004F8FBFF36F8F04F0E1FD4FF0000080F32C
:1002C000118809BC19680868B0E8F04F1EF0100FDB
:1002D00008BFB0EC108A80F30988BFF36F8F7047B6
:1002E0001C000020EFF3058070470000094880479C
:1002F00009480047FEE7FEE7FEE7FEE7FEE7FEE708
:10030000FEE7FEE7FEE7FEE704480549054A064B1F
:1003100070470000112D000889010008A04200204C
:10032000A0480020A0440020A044002053EA020C72
:1003300000F069802DE9F04B4FF00006002B1FBF45
:10034000B3FA83F503FA05F424FA05F65E4012BF0A
:100350001643B2FA82F502FA05F4C5F120051EBF74
:1003600022FA05FC44EA0C04203556EA044C4FEA14
:10037000144418BF641C4FF000084FF0000990426D
:1003800071EB030C39D3002919BFB1FA81F701FAD7
:1003900007F6B0FA80F700FA07F6C7F120071EBF8C
:1003A00020FA07FC46EA0C062037B6FBF4FCA7EB64
:1003B0000507103F07F01F0BCBF120060CFA0BFBD3
:1003C0002CFA06F644BFB3460026202FA4BF5E4693
:1003D0004FF0000B5BEA060C08BF4FF0010B19EB66
:1003E0000B09ABFB027C48EB0608C01B06FB02CCEA
:1003F0000BFB03CC71EB0C01C1E70B4602464146F7
:100400004846BDE8F08B13B54FF000004FF00001F7
:10041000AFF30080BDE81C40704710B5203AC0F033
:100420000B80B1E81850203AA0E81850B1E81850F5
:10043000A0E81850BFF4F5AF5FEA027C24BFB1E832
:100440001850A0E8185044BF18C918C0BDE81040A3
:100450005FEA827C24BF51F8043B40F8043B08BFAC
:100460007047D20728BF31F8023B48BF11F8012B73
:1004700028BF20F8023B48BF00F8012B70474FF01F
:1004800000020429C0F0128010F0030C00F01B8061
:10049000CCF1040CBCF1020F18BF00F8012BA8BF6F
:1004A00020F8022BA1EB0C0100F00DB85FEAC17C33
:1004B00024BF00F8012B00F8012B48BF00F8012BE6
:1004C00070474FF0000200B5134694469646203917
:1004D00022BFA0E80C50A0E80C50B1F12001BFF4FD
:1004E000F7AF090728BFA0E80C5048BF0CC05DF863
:1004F00004EB890028BF40F8042B08BF704748BFB1
:1005000020F8022B11F0804F18BF00F8012B704724
:10051000704770477047000070B5064C7C44064D2C
:100520007D4403E0206820448047241DAC42F9D17B
:1005300070BD0000785800007858000010B500F039
:1005400009F8BDE81040AFF30080002801D000F0AA
:1005500019B8704710B5002102A000F04BF8012037
:1005600010BD00005349475056464E3A2050757210
:1005700065207669727475616C20666E2063616CAB
:100580006C65640001491820ABBEFEE7260002003E
:10059000004870473C4200207546FFF7F9FFAE4621
:1005A00005006946534620F00700854618B020B57F
:1005B000FFF7AAFEBDE820404FF000064FF000070D
:1005C0004FF000084FF0000B21F00701AC46ACE8FB
:1005D000C009ACE8C009ACE8C009ACE8C0098D4668
:1005E000704710B50446AFF300802046BDE81040C8
:1005F000FFF715BE70B505460C460A2000E06D1CDD
:1006000000F011F835B128780028F8D102E0641C18
:1006100000F009F814B120780028F8D1BDE8704046
:100620000A20AFF3008008B569468DF8000003206A
:10063000ABBE08BD704700BFFEE7000010B5024822
:1006400000F0D4FB10BD00006001002010B502488E
:1006500000F0CCFB10BD00008801002010B502485E
:1006600000F0C2FE10BD00003002002010B50248AC
:1006700000F0BAFE10BD0000000100207047704776
:1006800038B502460020009000BF92F83C000128D7
:1006900001D1022038BD012082F83C0000BF08686B
:1006A000092816D91068C0680C780A3C04EB440588
:1006B0000724AC40A0431468E0600C780A3C04EBCB
:1006C00044048868A0401468E46820431468E0602B
:1006D00013E0106800690C7804EB44050724AC4073
:1006E000A043146820610C7804EB44048868A0409F
:1006F000146824692043146820614868072817D2C9
:100700001068406B0C79641E04EB84051F24AC4018
:10071000A04314686063088880B20C79641E04EBFF
:100720008404A0401468646B20431468606331E063
:1007300048680D2817D21068006B0C79E41F04EB91
:1007400084051F24AC40A04314682063088880B24D
:100750000C79E41F04EB8404A0401468246B20434C
:100760001468206316E01068C06A0C790D3C04EB35
:1007700084051F24AC40A0431468E062088880B25E
:100780000C790D3C04EB8404A0401468E46A204317
:100790001468E062194B1A4C1068A04206D1086830
:1007A000122803D1586840F480005860144C106837
:1007B000A0421CD10868102802D00868112816D160
:1007C000586840F400005860086810280FD10D48A0
:1007D00000680D4CB0FBF4F000EB8000400000908E
:1007E00002E00098401E009000980028F9D100BF58
:1007F000002082F83C0000BF00BF4BE7002301400F
:10080000002001401800002040420F0070B504464F
:1008100000250CB9012070BD1549A06A884200D09E
:1008200000BF206C30B9204600F024F8002060643E
:1008300084F83C00206C00F0100088B9206C20F493
:10084000885040F002002064204602F08FFD002016
:100850006064206C20F0020040F00100206400E0A1
:10086000012500BF002084F83C0000BF2846D2E7E5
:100870000100000F10B586B00446142101A8FFF74F
:1008800020FE34492068884262D100BF00200090D9
:100890003148006840F480702F49086008460068BD
:1008A00000F48070009000BF00BF00BF00200090E7
:1008B00029481438006840F00400274914390860BA
:1008C0000846006800F00400009000BF00BF00BFB1
:1008D000002000900846006840F0020008600846CA
:1008E000006800F00200009000BF00BF30200190BF
:1008F000032002900020039001A9184800F00AFF8D
:100900000320019002900020039001A9144800F0F8
:1009100001FF144814490860002048600021124873
:100920008160C1604FF480610161490041618900CB
:1009300081614911C16100210162416200F074FED0
:1009400008B1FFF79CFE00BF0748A063846300BFA7
:1009500006B010BD002001404438024000080240AB
:1009600000040240106402400001002010B502465D
:1009700092F82030012B01D0022B06D1106840697B
:10098000084314686061002010BD506A40F4802064
:1009900050620120F8E7F0B504460D461E4694F873
:1009A000207020688368A86800B900E000BF012FAC
:1009B00001D0022F7CD103F0806030B903F00060D9
:1009C00018B903F08050002873D0C3F301610229E5
:1009D00005D9606A40F4000060620120F0BD01208A
:1009E00088403060A86860B9B5F800C0E86840EA9F
:1009F0004C5C206800F5C07000EB0110C0F800C02E
:100A00000FE0D5E901C040EACC00D5F80CC040EABF
:100A10000C00D4F800C00CF5C07C0CEB011CCCF829
:100A20000000D5F810C0206800F5C07000EB011080
:100A3000C0F804C0287D01280ED1206800F5C070E0
:100A400000EB0110406840F4807C206800F5C07025
:100A500000EB0110C0F804C0D079000692F806C07F
:100A600040EA0C4092F805C040EA0C2C10794CEAA0
:100A7000000C206800F5C07000EB0110C0F80CC03D
:100A8000D078000692F802C040EA0C4092F801C00B
:100A900040EA0C2092F800C040EA0C00D4F800C0F4
:100AA0000CF5C07C0CEB011CCCF80800206801E0C0
:100AB00016E00FE000F5C07000EB0110006840F098
:100AC000010C206800F5C07000EB0110C0F800C0F8
:100AD000002083E7606A40F40010606201207DE737
:100AE000606A40F480206062012077E7F0B5044638
:100AF0000A46216894F82050012D01D0022D7ED1A4
:100B0000424901F50071086840F00100086008687A
:100B100020F47C5008600868566A40EA06200860A5
:100B2000107D00F01F06012000FA06F3C869984303
:100B3000C861A1F50071D069C8B9D1F80C02984319
:100B4000C1F80C02908880B2968940EA064601F509
:100B50001070576940F83760108880B2168940EAF3
:100B6000064601F51070576900EBC7004660D06972
:100B7000012819D1D1F80C021843C1F80C02908851
:100B800080B2168840EA064601F51070576940F8B1
:100B90003760908980B2168940EA064601F51070E8
:100BA000576900EBC7004660906928B9D1F8040284
:100BB0009843C1F8040204E0D1F804021843C1F8D4
:100BC0000402106928B9D1F814029843C1F814023C
:100BD00004E0D1F814021843C1F81402106A012885
:100BE00004D1D1F81C021843C1F81C02D1F800024C
:100BF00020F00100C1F800020020F0BDFFE7606AAC
:100C000040F4802060620120F7E7000000640040AB
:100C1000704710B50246002092F82030012B01D019
:100C2000022B09D121B91468E46804F0030003E041
:100C30001468246904F0030010BD70B5044694F8EC
:100C40002050012D01D0022D7CD151B92068C068FF
:100C500000F0030080B9606A40F400106062012077
:100C600070BD2068006900F0030028B9606A40F494
:100C7000001060620120F3E7206800F5D87000EBF7
:100C80000110006800F004009060906840B920688E
:100C900000F5D87000EB01100068400D106007E00F
:100CA000206800F5D87000EB01100068C0085060A3
:100CB000206800F5D87000EB0110006800F0020019
:100CC0004008D060206800F5D87000EB0110406843
:100CD00000F00F001061206800F5D87000EB0110E3
:100CE000406800F47F40000A9061206800F5D870E9
:100CF00000EB01104068000C5061206800F5D870CE
:100D000000EB011080681870206800F5D87000EBC7
:100D10000110806800F47F40000A5870206800F5D8
:100D2000D87000EB0110806800F47F00000C987010
:100D3000206800F5D87000EB01108068000ED870B4
:100D4000206800E031E000F5D87000EB0110C068C9
:100D50001871206800F5D87000EB0110C06800F42D
:100D60007F40000A5871206800F5D87000EB011030
:100D7000C06800F47F00000C9871206800F5D870FE
:100D800000EB0110C068000ED87131B92068C0684E
:100D900040F020002668F06005E02068006940F01F
:100DA00020002668306100205AE7606A40F4802005
:100DB0006062012054E70146002091F82020012ABA
:100DC00001D0022A11D10B689B6803F0806303B144
:100DD000401C0B689B6803F0006303B1401C0B6868
:100DE0009B6803F0805303B1401C70472DE9F05F0E
:100DF00004460025206846692068D0F804902068E1
:100E000087682068D0F80CA02068D0F810B020685F
:100E1000D0F8188006F00100002855D007F0010036
:100E2000C0B101202168886007F0020018B1204697
:100E300000F0BFFA0EE007F0040010B145F40065C1
:100E400008E007F0080010B145F4805502E02046A4
:100E500000F0AEFA07F48070C8B14FF480702168DA
:100E6000886007F4007018B1204600F0A4FA0EE084
:100E700007F4806010B145F4005508E007F4006005
:100E800010B145F4804502E0204600F093FA07F4E3
:100E90008030C8B14FF480302168886007F400309A
:100EA00018B1204600F089FA0EE007F4802010B156
:100EB00045F4004508E007F4002010B145F4803502
:100EC00002E0204600F078FA06F0080038B10AF097
:100ED000100020B145F4007510202168C86006F0AC
:100EE000040040B10AF0080028B108202168C86059
:100EF000204600F00FFA06F0020038B12068C06802
:100F000000F0030010B1204600F006FA06F04000A1
:100F100038B10BF0100020B145F480651020216835
:100F2000086106F0200040B10BF0080028B108204D
:100F300021680861204600F009FA06F0100038B177
:100F40002068006900F0030010B1204600F0FFF9AE
:100F500006F4003040B109F0100028B110202168DB
:100F60004860204600F0F4F906F4803040B109F002
:100F7000080028B1082021684860204600F01EFAC9
:100F800006F4004088B309F0040078B306F48070DA
:100F900020B108F0010008B145F0010506F4007029
:100FA00020B108F0020008B145F0020506F48060A7
:100FB00020B108F0040008B145F0040506F4006013
:100FC000A0B108F0700088B108F07000402817D078
:100FD00006DC10280BD020280CD0302819D10CE0CA
:100FE000502810D0602814D110E01DE019E045F021
:100FF00008050FE045F010050CE045F0200509E07C
:1010000045F0400506E045F0800503E045F48075B5
:1010100000E000BF00BF2068806920F070002168F8
:1010200088610420216848602DB1606A28436062AD
:101030002046FFF7EDFDBDE8F09F70B504460CB902
:10104000012070BD94F8200010B9204600F0B0F8DF
:101050002068006820F002002168086000F060FC51
:1010600005460DE000F05CFC401B0A2808D9606AC8
:1010700040F400306062052084F820000120E0E7A1
:101080002068406800F002000028EBD1206800686A
:1010900040F001002168086000F042FC05460DE0C8
:1010A00000F03EFC401B0A2808D9606A40F400307A
:1010B0006062052084F820000120C2E720684068B3
:1010C00000F001000028EBD0207E012806D1206826
:1010D000006840F080002168086005E02068006832
:1010E00020F0800021680860607E012806D1206819
:1010F000006840F040002168086005E02068006852
:1011000020F0400021680860A07E012806D12068F8
:10111000006840F020002168086005E02068006851
:1011200020F0200021680860E07E012806D12068B8
:10113000006820F010002168086005E02068006861
:1011400040F0100021680860207F012806D1206847
:10115000006840F008002168086005E02068006829
:1011600020F0080021680860607F012806D120680F
:10117000006840F004002168086005E0206800680D
:1011800020F0040021680860D4E9020108432169C5
:101190000843616908436168491E08432168C861C2
:1011A00000206062012084F82000002049E7000050
:1011B00010B586B00446142101A8FFF782F94F4903
:1011C0002068884242D14E480068401C4C49086063
:1011D0000846006801280FD100BF00200090494850
:1011E000006840F00070474908600846006800F059
:1011F0000070009000BF00BF00BF00200090414879
:101200001038006840F001003E4910390860084677
:10121000006800F00100009000BF00BF4FF4C05014
:1012200001900220029000200390032004900920E6
:10123000059001A9344800F06DFA00220521142020
:1012400000F01EFC142000F00BFC55E02F49206834
:10125000884251D100BF002000902A48006840F029
:101260008060284908600846006800F080600090AF
:1012700000BF00BF22480068401C214908600846A2
:10128000006801280FD100BF002000901D480068B1
:1012900040F000701B4908600846006800F00070CC
:1012A000009000BF00BF00BF00200090154810381C
:1012B000006840F0020013491039086008460068D1
:1012C00000F00200009000BF00BF4FF440500190BA
:1012D0000220029000200390032004900920059032
:1012E00001A90B4800F016FA00220521402000F069
:1012F000C7FB402000F0B4FB06B010BD0064004006
:101300000000002040380240000002400068004019
:1013100000040240704700001CB50446094884429E
:101320000FD100212046FFF774FC50B16B46064AEE
:1013300000212046FFF781FC6A460349204602F05F
:1013400029FF1CBD60010020C0410020704770478C
:10135000704770B5044694F82000012822D102207D
:1013600084F820002068006820F0010021680860EF
:1013700000F0D6FA05460DE000F0D2FA401B0A282C
:1013800008D9606A40F400306062052084F82000CB
:10139000012070BD2068406800F001000028EBD1FA
:1013A0006062F6E7606A40F4002060620120F0E7C6
:1013B00070477047704770477047704770470146E5
:1013C00091F83500022803D080204865012070473D
:1013D000052081F835000868006820F001000A68DF
:1013E00010600020F3E70000F8B5044600200090EC
:1013F0008C4800684FF41651B0FBF1F7A56D2E68CC
:1014000094F85C1008208840304098B1206800684B
:1014100000F0040070B12068006820F0040021682A
:10142000086094F85C1008208840A860606D40F067
:101430000100606594F85C1001208840304068B17C
:101440002068406900F0800040B194F85C100120F1
:101450008840A860606D40F00200606594F85C1000
:1014600004208840304068B12068006800F0020025
:1014700040B194F85C1004208840A860606D40F092
:101480000400606594F85C1010208840304078B308
:101490002068006800F0080050B394F85C10102039
:1014A0008840A8602068006800F4802080B120682F
:1014B000006800F4002028B9206CC8B12046216CD7
:1014C000884715E0A06C98B12046A16C88470FE0D2
:1014D0002068006800F4807028B92068006820F057
:1014E000080021680860206C10B12046216C8847F4
:1014F00094F85C10202088403040002865D0206897
:10150000006800F0100000285FD094F85C102020E4
:101510008840A86094F83500052828D12068006824
:1015200020F01600216808602068406920F08000E3
:1015300021684861206C08B9A06C28B12068006857
:1015400020F008002168086094F85C103F20884073
:10155000A86000BF002084F8340000BF012084F898
:101560003500206D10B12046216D8847F8BD2068F8
:10157000006800F4802080B12068006800F400203A
:1015800028B9606C10B12046616C88471DE0E06BA3
:10159000D8B12046E16B884717E02068006800F466
:1015A000807068B92068006820F010002168086029
:1015B00000BF002084F8340000BF012084F835000B
:1015C000E06B10B12046E16B8847606D38B3606D09
:1015D00000F00100F0B1052084F8350020680068B3
:1015E00020F001002168086000BF0098401C0090B6
:1015F000B84200D905E02068006800F0010000282A
:10160000F3D100BF00BF002084F8340000BF0120E8
:1016100084F83500E06C10B12046E16C884700BFCB
:10162000A4E70000180000202DE9F0410446002541
:1016300000F076F9074614B90120BDE8F081606A30
:1016400000B100BF00BF002084F8340000BF0220BA
:1016500084F835002068006820F0010021680860E7
:101660000AE000F05DF9C01B052805D9202060655F
:10167000032084F83500E0E72068006800F00100EE
:101680000028EED12068056821480540D4E9010111
:101690000843E16808432169084361690843A16977
:1016A0000843E1690843216A08430543606A042846
:1016B00003D1D4E90B010843054320680560206885
:1016C000456925F00705606A0543606A04280DD165
:1016D000A06A0543E06A48B1204601F0F7FE28B150
:1016E00040206065012084F83500A6E72068456148
:1016F000204601F041FF064694F85C103F208840E8
:10170000B06000206065012084F83500002094E777
:101710003F8010F0F8B502460B460025002400205B
:101720000021DCE0012606FA01F51E6806EA050440
:10173000AC4273D15E68022E02D05E68122E13D1C5
:10174000CF0802F1200656F827004E07F70E0F26A5
:10175000BE40B0434F07FF0E1E69BE403043CF0866
:1017600002F1200646F8270010684F000326BE400D
:10177000B0431E7906F003064F00BE4030431060B0
:101780005E68012E08D05E68022E05D05E68112EBC
:1017900002D05E68122E13D190684F000326BE401F
:1017A000B0434F00DE68BE40304390605068012671
:1017B0008E40B0431E79C6F300168E403043506011
:1017C000D0684F000326BE40B0434F009E68BE4025
:1017D0003043D0605E6806F08056B6F1805F7DD100
:1017E00000BF00260096404E366846F480463E4FC5
:1017F0003E603E46366806F48046009600BF00BF55
:101800003A4E8F0856F827008E07370F0F26BE4036
:10181000B043374EB24202D1002624E05EE0354E9E
:10182000B24201D101261EE0334EB24201D102265E
:1018300019E0324EB24201D1032614E0304EB242DA
:1018400001D104260FE02F4EB24201D105260AE055
:101850002D4EB24201D1062605E02C4EB24201D1F6
:10186000072600E008268F073F0FBE4030431F4E7B
:101870008F0846F82700264E3068A0435E6806F4BD
:101880008036B6F5803F00D12043214E3060361DB2
:101890003068A0435E6806F40036B6F5003F00D11C
:1018A00020431B4E361D3060361D3068A0435E68F5
:1018B00006F48016B6F5801F00D12043144E08367A
:1018C0003060361D3068A0435E6806F40016B6F539
:1018D000001F00D120430E4E0C363060491C1029E9
:1018E000FFF420AFF8BD0000443802400838014042
:1018F000000002400004024000080240000C0240C8
:10190000001002400014024000180240001C024077
:10191000003C01400AB1816101E00B048361704722
:1019200001480068704700000C0000200348006870
:101930000349097808440149086070470C000020F9
:101940001400002010B50D48006840F400700B49E9
:1019500008600846006840F4806008600846006837
:1019600040F480700860032000F0C8F8002000F008
:1019700007F800F04BF8002010BD0000003C0240CA
:1019800070B588B0044600250026002221462D208F
:1019900000F076F82D2000F063F800BF00200190E1
:1019A0001648006840F480701449086008460068D2
:1019B00000F48070019000BF00BF02A903A800F0EE
:1019C00071F900F097F945000D48B5FBF0F0461E9F
:1019D0000C480D49086040F2E7310B48C160466091
:1019E00000210161816000F04DFC20B9064800F043
:1019F00064FC08B070BD0120FBE7000040380240E5
:101A000040420F00002000409002002008B500BFB7
:101A1000002000901148006840F480400F490860A1
:101A20000846006800F48040009000BF00BF00BF7F
:101A300000200090081F006840F08050091F0860D7
:101A40000846006800F08050009000BF00BF0022F0
:101A50000F21901E00F014F808BD00004438024029
:101A600001460846002809DB00F01F0301229A40C6
:101A700043099B0003F1E023C3F8002100BF704736
:101A80002DE9F05F80460D461646002702F0A6F8C5
:101A9000074639462A46334601F00700C0F1070AD7
:101AA000BAF1040F02D94FF0040A01E0C0F1070AAD
:101AB000D14600F1040ABAF1070F02D24FF0000A32
:101AC00001E0A0F1030AD4464FF0010A0AFA09FA2C
:101AD000AAF1010A0AEA020A0AFA0CFA4FF0010B0B
:101AE0000BFA0CFBABF1010B0BEA030B4AEA0B04FC
:101AF0002146404602F05EF8BDE8F09F00BF00F0CE
:101B00000702064B19684FF6FF031940044B0B43BD
:101B100043EA0221014B196000BF70470CED00E061
:101B20000000FA0570B504460D460CB9012070BDE1
:101B30005848006800F00F00A84209D255490D70BE
:101B40000846006800F00F00A84201D00120EEE72F
:101B5000207800F0020002281DD1207800F0040057
:101B6000042805D14C48006840F4E0504A49086018
:101B7000207800F00800082805D14748006840F4A4
:101B80006040454908604448006820F0F000A168C2
:101B9000084341490860207800F00100A8B360685C
:101BA000012807D13C4808380068C0F34040B8B964
:101BB0000120BCE76068022802D06068032807D1D2
:101BC000354808380068C0F3406048B90120AEE7E6
:101BD000314808380068C0F3400008B90120A6E782
:101BE0002D48006820F00300616808432A49086016
:101BF000FFF796FE064609E0FFF792FE801B41F2D2
:101C00008831884202D9032091E707E02248006822
:101C100000F00C006168B0EB810FEDD11D48006849
:101C200000F00F00A84209D91A490D700846006853
:101C300000F00F00A84201D0012078E7207800F0E2
:101C40000400042807D11448006820F4E050E1683B
:101C5000084311490860207800F00800082808D1DE
:101C60000D48006820F46040216940EAC1000A493B
:101C7000086000F05FF808490968C1F30311074ADA
:101C8000515CC840064908600020FFF779FE00203B
:101C90004DE70000003C024008380240CC5C0008E0
:101CA000180000200F2202600D4A126802F00302A1
:101CB00042600B4A126802F0F0028260084A126821
:101CC00002F4E052C260064A126802F46042D2088E
:101CD0000261044A126802F00F020A6070470000B5
:101CE00008380240003C024001480068704700008C
:101CF0001800002000B5FFF7F7FF04490968C1F399
:101D00008221034A515CC84000BD000008380240EF
:101D1000DC5C000800B5FFF7E7FF04490968C1F380
:101D20004231034A515CC84000BD000008380240FF
:101D3000DC5C00082DE9F047002400250026A146C0
:101D40002548006800F00C0020B1042805D00828C0
:101D50003AD105E0DFF8849039E0DFF8849036E08E
:101D60001D48001F006800F03F041B48001F00686A
:101D700000F4800078B11A481749091F0968C1F3B7
:101D80008811A0FB01700146224600233846FEF769
:101D9000CDFA05460EE011480F49091F0968C1F345
:101DA0008811A0FB01700146224600233846FEF749
:101DB000BDFA05460848001F0068C0F30140401CFA
:101DC0004600B5FBF6F902E0DFF8109000BF00BF57
:101DD0004846BDE8F0870000083802400024F400BF
:101DE00000127A00F8B504460CB90120F8BD20783D
:101DF00000F00100002874D0F948006800F00C00E1
:101E000004280DD0F648006800F00C00082813D113
:101E1000F348001F006800F48000B0F5800F0BD17C
:101E2000EF4808380068C0F34040002859D0606887
:101E3000002856D10120D9E700BF6068B0F5803F87
:101E400008D1E7480838006840F48030E449083990
:101E500008601EE06068B0F5A02F0DD1E04808389A
:101E6000006840F48020DE490839086008460068B0
:101E700040F4803008600CE0D9480838006820F44D
:101E80008030D749083908600846006820F480206F
:101E9000086000BF606890B1FFF742FD054606E0AC
:101EA000FFF73EFD401B642801D903209EE7CC4884
:101EB00008380068C0F340400028F1D011E0FFF777
:101EC0002FFD054606E0FFF72BFD401B642801D9D6
:101ED00003208BE7C24808380068C0F34040002860
:101EE000F1D1207800F0020002285FD1BC480068E0
:101EF00000F00C0058B1BA48006800F00C00082847
:101F00001CD1B748001F006800F48000B0B9B44885
:101F100008380068C0F3400020B1E068012801D013
:101F2000012063E7AE480838006820F0F800216916
:101F300040EAC100AA490839086037E0E06800B308
:101F40000120A8490860FFF7EBFC054606E0FFF713
:101F5000E7FC401B022801D9032047E7A0480838C6
:101F60000068C0F340000028F1D09D4808380068A0
:101F700020F0F800216940EAC10099490839086059
:101F800014E0002097490860FFF7CAFC054606E008
:101F9000FFF7C6FC401B022801D9032026E7904822
:101FA00008380068C0F340000028F1D1207800F024
:101FB000080008282CD16069A8B101208A4908606E
:101FC000FFF7AEFC054606E0FFF7AAFC401B02281F
:101FD00001D903200AE782486C300068C0F3400052
:101FE0000028F1D014E000207F490860FFF798FC3A
:101FF000054606E0FFF794FC401B022801D90320A8
:10200000F4E677486C300068C0F340000028F1D156
:10201000207800F00400042870D100267048383081
:10202000006800F0805090B900BF002000906C481C
:102030003830006840F080506949383108600846FF
:10204000006800F08050009000BF00BF0126674884
:10205000006800F48070B0B96448006840F4807093
:1020600062490860FFF75CFC054606E0FFF758FC94
:10207000401B022801D90320B8E65C48006800F440
:1020800080700028F2D000BFA068012808D1544811
:102090006830006840F001005149683108601DE077
:1020A000A06805280DD14E486830006840F0040053
:1020B0004B49683108600846006840F0010008603C
:1020C0000CE047486830006820F00100444968315E
:1020D00008600846006820F00400086000BFA0689F
:1020E000A8B1FFF71DFC054609E0FFF719FC401BEE
:1020F00041F28831884202D9032077E626E0384849
:1021000068300068C0F340000028EED013E0FFF70D
:1021100007FC054608E0FFF703FC401B41F288314D
:10212000884201D9032061E62D4868300068C0F379
:1021300040000028EFD1012E07D12948383000682F
:1021400020F0805026493831086000BFA069B8B33C
:102150002348006800F00C0008285ED0A06902281F
:1021600046D100201F490866FFF7DAFB054606E066
:10217000FFF7D6FB401B022801D9032036E618489A
:1021800008380068C0F340600028F1D1D4E90701A5
:102190000843616A40EA81110122A06AC2EB500043
:1021A00041EA00412C20005D41EA00600C49091F12
:1021B000086001200B490866FFF7B2FB054607E0FF
:1021C0002DE0FFF7ADFB401B022801D903200DE6EF
:1021D000034808380068C0F340600028F1D01EE0D2
:1021E0000838024000004742800E4742007000401D
:1021F00000200C490866FFF793FB054606E0FFF751
:102200008FFB401B022801D90320EFE50648006838
:10221000C0F340600028F2D101E00120E6E5002093
:10222000E4E5000000004742003802407047704774
:1022300010B5024600BF92F83C00012801D10220EF
:1022400010BD012082F83C0000BF022082F83D0052
:10225000106843681068846823F0700308680343BB
:1022600024F0800448680443106843601068846068
:10227000012082F83D0000BF002082F83C0000BF32
:1022800000BFDDE710B504460CB9012010BD94F87D
:102290003D0028B9002084F83C00204600F00CF8EE
:1022A000022084F83D00211D206800F06BFD012014
:1022B00084F83D000020E9E7704701460868C068DF
:1022C00040F001000B68D8600868806800F00702E1
:1022D000062A05D00868006840F001000B68186005
:1022E00000207047704710B5044620680069C0F3AD
:1022F0004000D8B12068C068C0F34000B0B16FF0B2
:10230000020021680861012020772068806900F0C0
:10231000030018B12046FFF7E5FF05E0204600F076
:10232000DBF8204600F090F9002020772068006953
:10233000C0F38000D8B12068C068C0F38000B0B19D
:102340006FF004002168086102202077206880690E
:1023500000F4407018B12046FFF7C4FF05E02046A6
:1023600000F0BAF8204600F06FF9002020772068CE
:102370000069C0F3C000D8B12068C068C0F3C000D5
:10238000B0B16FF008002168086104202077206850
:10239000C06900F0030018B12046FFF7A3FF05E075
:1023A000204600F099F8204600F04EF900202077F2
:1023B00020680069C0F30010D8B12068C068C0F37D
:1023C0000010B0B16FF0100021680861082020777C
:1023D0002068C06900F4407018B12046FFF782FF02
:1023E00005E0204600F078F8204600F02DF90020A6
:1023F00020772068006900F0010058B12068C068AB
:1024000000F0010030B16FF0010021680861204642
:1024100000F01CF920680069C0F3C01058B12068B2
:10242000C068C0F3C01030B16FF08000216808614F
:102430002046FFF7FBFE20680069C0F3801058B10A
:102440002068C068C0F3801030B16FF04000216890
:102450000861204600F006F920680069C0F34010CA
:1024600058B12068C068C0F3401030B16FF0200050
:10247000216808612046FFF7DAFE10BD10B586B06E
:102480000446142101A8FEF71CF82068B0F1804F23
:102490001CD100BF002000900D48006840F00100F2
:1024A0000B4908600846006800F00100009000BF7A
:1024B00000BF0720019002200290002003900490AA
:1024C0000120059001A90348FFF724F906B010BDCB
:1024D0003038024000000240704770B504460D4697
:1024E000164600BF94F83C00012801D1022070BDBF
:1024F000012084F83C0000BF022084F83D0036B182
:10250000042E1BD0082E31D00C2E5ED145E029467A
:10251000206801F04BF82068806940F008002168CD
:1025200088612068806920F0040021688861206843
:102530008069296908432168886147E02946206845
:1025400000F08CFC2068806940F40060216888619C
:102550002068806920F48060216888612068806933
:10256000296940EA0120216888612FE02946206816
:1025700001F054F82068C06940F008002168C86183
:102580002068C06920F004002168C8612068C06923
:10259000296908432168C86118E02946206801F0CC
:1025A00079F82068C06940F400602168C86120683B
:1025B000C06920F480602168C8612068C069296909
:1025C00040EA01202168C86100E000BF00BF01208F
:1025D00084F83D0000BF002084F83C0000BF00BF2D
:1025E00085E710B504460CB9012010BD94F83D00F4
:1025F00028B9002084F83C00204600F00DF80220A5
:1026000084F83D00211D206800F0BCFB012084F807
:102610003D000020E9E7000008B50168B1F1804FF6
:102620000FD100BF002100910649096841F0010166
:10263000044A11601146096801F00101009100BFD0
:1026400000BF08BD403802407047000010B5044686
:1026500003492068884201D1FFF768F910BD0000E6
:1026600000200040704770472DE9F047044620687D
:1026700005682068C668206847694FF00008C146B1
:1026800005F00F08B8F1000F0AD105F0200038B1AD
:1026900006F0200020B1204601F0DAF9BDE8F0870D
:1026A000B8F1000F6ED007F0010018B906F4907071
:1026B000002867D005F0010030B106F4807018B131
:1026C000E06B40F00100E06305F0040030B107F07A
:1026D000010018B1E06B40F00200E06305F0020079
:1026E00030B107F0010018B1E06B40F00400E06386
:1026F00005F0080030B107F0010018B1E06B40F0C0
:102700000800E063E06B70B305F0200028B106F02C
:10271000200010B1204601F09BF920684069C0F309
:102720008019E06B00F0080010B9B9F1000F23D058
:10273000204601F014FA2068406900F0400040286B
:1027400016D12068406920F0400021684861606B24
:1027500050B11748616B0865606BFEF730FE10B131
:10276000606B016D88470CE02046FFF77CFF08E0B6
:102770002046FFF778FF04E02046FFF774FF0020B3
:10278000E0638BE705F0800030B106F0800018B1FF
:10279000204601F0B0F981E705F0400030B106F0C5
:1027A000400018B1204601F0EAF977E700BF75E76D
:1027B0009F3B000810B504460CB9012010BDA0696C
:1027C00000B100E000BF94F8390028B9002084F877
:1027D0003800204600F028F8242084F839002068CA
:1027E000C06820F400502168C860204600F07CFFDB
:1027F0002068006920F490402168086120684069E1
:1028000020F02A00216848612068C06840F4005028
:102810002168C8600020E063202084F8390084F833
:102820003A000020CAE7000010B586B00446142123
:1028300001A8FDF746FE2E492068884255D100BF09
:10284000002000902B48006840F48020294908604F
:102850000846006800F48020009000BF00BF00BF61
:102860000020009023481038006840F00200214901
:10287000103908600846006800F00200009000BFB0
:1028800000BF4FF4406001900220029001200390AD
:10289000032004900720059001A91748FEF73AFF8E
:1028A0001648174908604FF000604860002114483E
:1028B0008160C1604FF480610161002141618161EB
:1028C000C16101624162FEF7AFFE08B1FDF7D7FEBC
:1028D00000BF0B486063846300BF002205212720EE
:1028E000FFF7CEF82720FFF7BBF806B010BD0000B9
:1028F0000048004040380240000402402860024086
:10290000300200207047704700BFFEE71FB500206F
:1029100000900190029003902648274908604FF4E8
:1029200080304860002124488160012101610176E6
:10293000002180F82010C162204981620021C1601D
:102940000421C161012180F830104161FDF75EFF73
:1029500008B1FDF794FE08200090012001900520A9
:10296000029069461448FDF78BFE08B1FDF787FE1B
:10297000092000900220019069460F48FDF780FE73
:1029800008B1FDF77CFE0E200090032001906946FF
:102990000948FDF775FE08B1FDF771FE0F200090A4
:1029A0000420019069460448FDF76AFE08B1FDF76E
:1029B00066FE1FBD00200140B80000200100000F8E
:1029C00010B50F480F4908600320486000210D48EA
:1029D0008160C1604FF4002101614FF440114161F9
:1029E000002101760121417600218176C1760177AF
:1029F0004177FEF722FB08B1FDF741FE10BD000054
:102A0000006400406001002010B50F480F490860C5
:102A10000320486000210D488160C1604FF400210F
:102A200001614FF44011416100210176012141769D
:102A300000218176C17601774177FEF7FEFA08B171
:102A4000FDF71DFE10BD0000006800408801002059
:102A500008B500BF002000901648006840F48000D0
:102A6000144908600846006800F48000009000BF28
:102A700000BF00BF002000900846006840F400102E
:102A800008600846006800F40010009000BF00BF16
:102A9000002205210C20FEF7F3FF0C20FEF7E0FFDB
:102AA000002205213820FEF7EBFF3820FEF7D8FF83
:102AB00008BD00003038024000B587B0142102A8DC
:102AC000FDF7FFFC00BF002001904848006840F07F
:102AD0000400464908600846006800F004000190C0
:102AE00000BF00BF00BF002001900846006840F012
:102AF000800008600846006800F08000019000BF78
:102B000000BF00BF002001900846006840F00100AF
:102B100008600846006800F00100019000BF00BF97
:102B200000BF002001900846006840F002000860E5
:102B30000846006800F00200019000BF00BF00BF1F
:102B4000002001900846006840F008000860084630
:102B5000006800F00800019000BF00BF00220C21B7
:102B60002348FEF7D7FE002204212248FEF7D2FEBA
:102B70000022F8212048FEF7CDFE4FF4604002907D
:102B80001E4803900020049002A91948FEF7C2FDD8
:102B90000C2002900120039000200490059002A9CF
:102BA0001348FEF7B7FD0420029001200390002097
:102BB0000490059002A90F48FEF7ACFDF8200290A2
:102BC0000120039000200490059002A90A48FEF716
:102BD000A1FD4FF40070029008480390002004907B
:102BE00002A90548FEF796FD07B000BD3038024047
:102BF00000080240000C02400004024000001110D6
:102C000000B589B00020079008901C216846FDF7A8
:102C100058FC4FF080401E490860002048600021A9
:102C20001B488160C16001618161FFF7DAFC08B176
:102C3000FDF725FD00200790089007A91448FFF72D
:102C4000F7FA08B1FDF71BFD60200090002001900D
:102C500002900490002269460D48FFF73EFC08B13F
:102C6000FDF70DFD042269460948FFF736FC08B15F
:102C7000FDF705FD082269460548FFF72EFC08B15F
:102C8000FDF7FDFC0248FFF7F9FB09B000BD0000AD
:102C9000B001002010B50C480C4908600C48486091
:102CA0004FF48051094881600021C1604FF4806178
:102CB00001610C21416100218161C161FFF77AFD51
:102CC00008B1FDF7DCFC10BD00480040F001002019
:102CD000A086010000BFFEE77047000010B500BFEE
:102CE000502080F31188BFF34F8FBFF36F8F00BF69
:102CF00002F0EEF918B14FF080500449086000BFAF
:102D0000002080F3118800BF10BD000004ED00E03A
:102D10001448006840F470001249086012480068C6
:102D200040F001001049086000200F490831086098
:102D30000D4800680D4908400B4908600C48091D02
:102D40000860081F006820F48020091F0860002028
:102D500005490C3108604FF0006002498039086075
:102D60007047000088ED00E000380240FFFFF6FEEB
:102D70001030002410B50248FFF7B5FA10BD00006E
:102D80009002002010B50268294B98420ED0B0F195
:102D9000804F0BD0274B984208D0274B984205D044
:102DA000264B984202D0264B984203D122F0700263
:102DB0004B681A431E4B984220D0B0F1804F1DD073
:102DC0001C4B98421AD01C4B984217D01B4B984270
:102DD00014D01B4B984211D01A4B98420ED01A4B6C
:102DE00098420BD0194B984208D0194B984205D005
:102DF000184B984202D0184B984203D122F44072EB
:102E0000CB681A4322F080034C6943EA0402026053
:102E10008B68C3620B688362054B984202D0084BF3
:102E2000984201D10B6903630123436110BD000087
:102E3000000001400004004000080040000C004079
:102E400000040140004001400044014000480140AE
:102E500000180040001C00400020004030B5056A0A
:102E600025F010050562026A4368846924F4E04491
:102E700024F440740D6844EA052422F020028D6891
:102E800042EA0512124DA84200D103E0114DA842BA
:102E900007D100BF22F08002CD6842EA051222F07D
:102EA00040020B4DA84202D00A4DA84209D123F49A
:102EB000806323F400634D6943EA85038D6943EA27
:102EC0008503436084614D688563026230BD000004
:102ED000000001400004014010B50248FFF7C4FBA8
:102EE00010BD0000F001002000BFFEE710B586B065
:102EF00004461422054901A8FDF78FFA002101A814
:102F000001F0FEFA0249086006B010BDE45C00085A
:102F1000AC00002000B58BB000200A900790012083
:102F200008900020019002900390049005900120E9
:102F300009900020069001A90548FDF7D7FD044837
:102F4000FEF707FA02210248FDF710FD0BB000BDA5
:102F50006001002000B58BB014220C4906A8FDF7D3
:102F60005CFA002106A801F0CBFA09490860142296
:102F70000649143101A8FDF750FA002101A801F01B
:102F8000BFFA044908600BB000BD00009C5C00085B
:102F9000040000200800002000BF012001F09FFA7B
:102FA000FBE7000000B593B0302107A8FDF789FAD0
:102FB000142102A8FDF785FA00BF002001902448E3
:102FC000006840F08050224908600846006800F020
:102FD0008050019000BF00BF00BF002001901D483D
:102FE000006840F480401B4908600846006800F40F
:102FF0008040019000BF00BF0120079000040890AE
:1030000002200D9041050E9104210F91A8211091ED
:10301000022111910421129107A8FEF7E3FE08B1E5
:10302000FDF72DFB0F20029002200390002004905A
:103030004FF4A05005904FF480500690052102A84F
:10304000FEF770FD08B1FDF71AFB13B000BD0000DC
:103050004038024000700040F0B589B006460D4689
:1030600014462088000A8DF8000020788DF80100B1
:103070006088000A8DF80200A0788DF80300A0880F
:10308000000A8DF8040020798DF80500E088000A18
:103090008DF80600A0798DF80700029500200590B4
:1030A00004900820069008AB6A4602A93046FDF756
:1030B00072FC074600BF3046FDF77DFE0328FAD1BB
:1030C000384609B0F0BD00000021084801F058F86A
:1030D000FFF720FF00BF0648007800F065F800F019
:1030E0007FFF0121034801F013FEF4E76001002097
:1030F000B0000020B400002010B504466068B0F9AC
:103100000000002803DD6068B0F9000003E060689B
:10311000B0F900004042218A884240DD94F8200046
:1031200058B9012084F82000A06890ED000A84EDD1
:10313000030AFEF7F5FB606134E094ED030AA06832
:10314000D0ED000A30EE600AB5EEC00AF1EE10FADA
:1031500007DD94ED030AA068D0ED000A30EE600AA6
:1031600008E094ED030AA068D0ED000A30EE600A92
:10317000B1EE400AD4ED070AB4EEE00AF1EE10FA1F
:1031800009D2FEF7CDFB6169401AA169884209D9CD
:103190000120207010BD002084F8200002E00020F3
:1031A00084F8200000BFF5E700B100BF70470000C1
:1031B00010B52DED028B0446B0EE408A84ED158AE1
:1031C00094ED150AD4ED0B0A20EE200A84ED100AC6
:1031D00094ED150AB5EEC00AF1EE10FA02DD94ED99
:1031E000150A03E094ED150AB1EE400AE08800EEFE
:1031F000900AF8EE600AB4EEE00AF1EE10FA0AD294
:1032000094ED110AD4ED0C0A94ED151A00EE810A22
:1032100084ED110A03E09FED410A84ED110A206854
:1032200058B194ED130A2068D0ED000A94ED0D1A00
:1032300000EE810A84ED130A0DE094ED150AD4ED39
:10324000160A70EE600A94ED0D1A94ED130A00EE62
:10325000810A84ED130AFEF763FBE16D401AA18831
:1032600088420AD994ED130A84ED120A9FED2B0AC5
:1032700084ED130AFEF754FBE06594ED110AD4EDDA
:103280000E0AB4EEE00AF1EE10FA03DB94ED0E0A3A
:1032900084ED110A94ED110AD4ED0E0AF1EE600AE4
:1032A000B4EEE00AF1EE10FA05D894ED0E0AB1EE94
:1032B000400A84ED110A94ED100AD4ED110A30EEA3
:1032C000200AD4ED120A30EE200A84ED140A94ED9F
:1032D000140AD4ED0F0AB4EEE00AF1EE10FA03DBA3
:1032E00094ED0F0A84ED140A94ED140AD4ED0F0A3C
:1032F000F1EE600AB4EEE00AF1EE10FA05D894EDB2
:103300000F0AB1EE400A84ED140A94ED150A84ED1B
:10331000160A94ED140ABDEC028B10BD00000000EB
:1033200000230360DFED102AC0ED022ADFED0E2A34
:10333000C0ED032ADFED0C2AC0ED052ADFED0A2AD5
:10334000C0ED072ADFED082AC0ED082A80ED0B0A40
:10335000C0ED0C0A80ED0D1AC0ED0E1A80ED0F2A9B
:103360008180C280704700000000000055494A6813
:1033700022F440324A604A6843681A434A6002684D
:10338000526822F4807203685A60026853680269C6
:1033900043EA022203685A600268526822F04072CF
:1033A00003685A600268526883681A4303685A6067
:1033B0000268926822F4006203689A600268926868
:1033C000C3681A4303689A603F4B826A9A4218D0D6
:1033D0000268926822F0706203689A6002689268DC
:1033E000836A1A4303689A600268926822F0405226
:1033F00003689A6002689268C36A1A4303689A6015
:103400000BE00268926822F0706203689A600268BA
:10341000926822F0405203689A600268926822F033
:10342000020203689A6002689368027E43EA4202DD
:1034300003689A602022125CA2B10268526842F4CA
:10344000006203685A600268526822F460420368AE
:103450005A6002685368426A521E43EA4232036865
:103460005A6005E00268526822F4006203685A60FC
:103470000268D26A22F470020368DA620268D36AD0
:10348000828B521E43EA02520368DA620268926833
:1034900022F4007203689A600268936890F8302002
:1034A00043EA422203689A600268926822F48062CA
:1034B00003689A6002689368426943EA822203685B
:1034C0009A607047002301400100000F0146002070
:1034D0008A6A8B69CBB932B1012A0DD0022A03D096
:1034E000032A10D10EE000BFCB6A03F08073B3F162
:1034F000807F00D1012007E0CB6AB3F1C07F00D10B
:10350000012001E000E000BF34E08B69B3F5005F0B
:103510001AD132B1012A07D0022A03D0032A11D1CD
:103520000AE000BF01200EE0CB6A03F08073B3F124
:10353000807F00D1012006E0CB6AB3F1C07F00D1CB
:10354000012000E000BF15E032B1012A05D0022AB7
:1035500004D0032A0CD103E000BF00BF012008E023
:10356000CB6A03F08073B3F1807F00D1012000E0CB
:1035700000BF00BF704700000146087810381823CC
:10358000B0FBF3F20848805CC865032A05D90868D7
:103590006FF30900001D886503E008686FF30900F8
:1035A0008865886D70470000C45C000830B5056A06
:1035B00025F001050562026A4368846924F07004FD
:1035C00024F003040D682C4322F002028D682A4384
:1035D000104DA84200D103E00F4DA84206D100BF14
:1035E00022F00802CD682A4322F00402094DA842C5
:1035F00002D0094DA84207D123F4807323F400734D
:103600004D692B438D692B43436084614D6845634D
:10361000026230BD000001400004014030B5056A7F
:1036200025F480750562026A4368C46924F0700459
:1036300024F003040D682C4322F400728D6842EAE2
:103640000522124DA84200D103E0114DA84207D136
:1036500000BF22F40062CD6842EA052222F48062B3
:103660000A4DA84202D00A4DA84209D123F4805342
:1036700023F400534D6943EA05138D6943EA0513AA
:103680004360C4614D68C563026230BD0000014003
:103690000004014030B5056A25F480550562036ACF
:1036A0004468C26922F4E04222F440720D6842EAA2
:1036B000052223F400538D6843EA0533084DA842E0
:1036C00002D0084DA84204D124F480444D6944EA54
:1036D00085144460C2614D680564036230BD00001A
:1036E00000000140000401402DE9F041044620683B
:1036F000006920F44050E1680843216808612169AD
:10370000A068084361690843E16940EA010520684F
:10371000C06849F20C61884328432168C86020686A
:10372000406920F44070A169084321684861E0695C
:10373000B0F5004F7ED1C4492068884203D0C34908
:10374000206888425DD1FEF7E5FA00EBC00101EB8D
:10375000001061684900B0FBF1F06421B0FBF1F0AA
:103760000601FEF7D7FA00EBC00101EB001061681B
:103770004900B0FBF1F7FEF7CDFA00EBC00101EB19
:10378000001061684900B0FBF1F06421B0FBF1F07A
:1037900000EBC00101EB0010A7EB8000322101EB30
:1037A000C0006421B0FBF1F000F0F80006EB400629
:1037B000FEF7B0FA00EBC00101EB001061684900B0
:1037C000B0FBF1F7FEF7A6FA00EBC00101EB001029
:1037D00061684900B0FBF1F06421B0FBF1F000EB4F
:1037E000C00101EB0010A7EB8000322101EBC0000B
:1037F0006421B0FBF1F000F00700304421688860DC
:1038000020E1FEF777FA00EBC00101EB00106168E0
:103810004900B0FBF1F06421B0FBF1F00601FEF7C6
:1038200069FA00EBC00101EB001061684900B0FBD0
:10383000F1F700E045E0FEF75DFA00EBC00101EBB7
:10384000001061684900B0FBF1F06421B0FBF1F0B9
:1038500000EBC00101EB0010A7EB8000322101EB6F
:10386000C0006421B0FBF1F000F0F80006EB400668
:10387000FEF740FA00EBC00101EB0010616849005F
:10388000B0FBF1F7FEF736FA00EBC00101EB0010D8
:1038900061684900B0FBF1F06421B0FBF1F000EB8E
:1038A000C00101EB0010A7EB8000322101EBC0004A
:1038B0006421B0FBF1F000F007003044216888601B
:1038C000C0E061492068884203D06049206888428E
:1038D0005CD1FEF71FFA00EBC00101EB001061683C
:1038E0008900B0FBF1F6FEF715FA00EBC00101EB21
:1038F000001061688900B0FBF1F06421B0FBF1F0C9
:1039000000EBC00101EB0010A6EB8000322101EBBF
:1039100000106421B0FBF1F000F0F006FEF7FAF9B8
:1039200000EBC00101EB001061688900B0FBF1F011
:103930006421B0FBF1F006EB0016FEF7EBF900EBAB
:10394000C00101EB001061688900B0FBF1F7FEF7E0
:10395000E1F900EBC00101EB001061688900B0FBE8
:10396000F1F06421B0FBF1F000EBC00101EB0010BD
:10397000A7EB8000322101EB00106421B0FBF1F0D5
:1039800000F00F003044216888605BE0FEF7B2F978
:1039900000EBC00101EB001061688900B0FBF1F69B
:1039A000FEF7A8F900EBC00101EB00106168890087
:1039B000B0FBF1F06421B0FBF1F000EBC00101EBD2
:1039C0000010A6EB8000322101EB00106421B0FB57
:1039D000F1F000F0F006FEF78DF900EBC00101EB0D
:1039E000001061688900B0FBF1F06421B0FBF1F0D8
:1039F00006EB0016FEF77EF900EBC00101EB0010AC
:103A000061688900B0FBF1F7FEF774F900EBC001C3
:103A100001EB001061688900B0FBF1F06421B0FB9C
:103A2000F1F000EBC00101EB0010A7EB80003221A8
:103A300001EB00106421B0FBF1F000F00F00304406
:103A400021688860BDE8F081001001400014014049
:103A500070B5044694F83A0022284AD1A068B0F51F
:103A6000805F13D1A56A206940B920684068C0F31F
:103A700008002880A06A801CA06219E020684068C5
:103A8000C0B22880A06A401CA06211E0206938B949
:103A900020684068C1B2A26A501CA062117007E0A1
:103AA0002068406800F07F01A26A501CA06211707B
:103AB000E08D401E80B2E085C8B92068C06820F063
:103AC00020002168C8602068C06820F480702168E8
:103AD000C8602068406920F001002168486120200A
:103AE00084F83A002046FEF70DFF002070BD00204C
:103AF000FCE70220FAE7014691F8390021282CD191
:103B00008868B0F5805F0FD10A6A1088C0F308009A
:103B10000B685860086918B9086A801C086209E0D7
:103B2000086A401C086205E00B6A581C0862187895
:103B30000B685860C88C401E80B2C88458B90868A9
:103B4000C06820F080000B68D8600868C06840F04A
:103B500040000B68D860002070470220FCE7016835
:103B6000C96821F490710268D1600168496921F047
:103B7000010102685161202180F83A10704710B5A8
:103B800004462068C06820F040002168C8602020FA
:103B900084F839002046FEF7B6FE002010BD70B54F
:103BA0000546AC6B0020E085E0842046FEF75BFD17
:103BB00070BD000010B5002804DB0A07130E054A8B
:103BC000135406E00A07140E034A00F00F031B1FEC
:103BD000D45410BD00E400E018ED00E00248006895
:103BE000C0F30220704700000CED00E070B5044601
:103BF000606B08B900BFFEE7208CE18B401A05B26C
:103C000000EE105AB8EEC00A606BFFF7D1FABDEEB5
:103C1000C00A10EE100A05B2A5842068416920464A
:103C2000884770BD81790A2291FBF2F1012908D100
:103C3000817991FBF2F302FB13110A4A838B22F87C
:103C4000113081790A2291FBF2F1022908D18179A0
:103C500091FBF2F302FB1311034A838B22F811301C
:103C600070470000FC4100202C42002010B50446A3
:103C7000E06A20B1207910B1E06AFFF73DFA2079BF
:103C800070B1012802D002280FD104E020684169F8
:103C90002046884714E020680169204688470FE0E5
:103CA00020680168204688470AE00648007840F00E
:103CB000010004490870206801682046884700BF59
:103CC00000BF10BD9C00002070B504460D46608CFE
:103CD0006087E08B2087A08AE0826878297840EAB4
:103CE000012000B2E083E878A97840EA012000B220
:103CF00060846879297940EA012000B2A082B4F991
:103D00001400B4F91610884202D0FDF709FEA06035
:103D1000B4F91E0000EE100AB8EEC00ADFED070A83
:103D200060EE200AA06A008800EE100AB8EE400A91
:103D300080EE801A84ED061A70BD00000000B443C6
:103D400010B50446E06A10B10020E16A0870002056
:103D50002071A083206881692046884710BD00003B
:103D600010B50446B4F92410B4F92220891A00EEE3
:103D7000901AF8EEE00AB0EE600A206BFFF718FA2E
:103D8000BDEEC00A10EE100A00B2A08394ED040A42
:103D9000B5EEC00AF1EE10FA26D0B4F92200B4F95B
:103DA0003A10401A00EE100AB8EEC00ADFED110A10
:103DB00020EE200AD4ED030A9FED0F1A01EE200A2F
:103DC00084ED030AB4F91C0000EE100AB8EEC00A34
:103DD000D4ED030A94ED041A00EE810ABDEEC00A88
:103DE00010EE100A00B2A08320688169204688473F
:103DF00010BD00009A99993E3333333F2DE9F047C7
:103E000004460D4616461F46DDE90889204600F0A7
:103E100009FA04460F482060A7620020E062C4F857
:103E20003080C4F83490012D04D1A6F201200A4953
:103E300041F82040022D04D1A6F20120074941F8A3
:103E4000204005EB850006EB4000401EA071204697
:103E5000BDE8F087005D0008DC4100200C42002036
:103E600070B52DED028B05466868007908B1A86A27
:103E700010B9BDEC028B70BD9FED4F8A00242AE083
:103E80004E480068001D50F82400B0F91C000028BE
:103E900007DD4A480068001D50F82400B0F91C00F6
:103EA00007E046480068001D50F82400B0F91C00E7
:103EB000404200EE100AB8EEC00AF3EE080A60EEC7
:103EC000200A9FED3F1A80EE810A30EE080AB0EE1C
:103ED000408A601CC4B2042CD2DB9FED3A0AB4EED7
:103EE000C08AF1EE10FA1DDD002419E09FED350ABD
:103EF000C0EE080A281D50F82400B0F91C0000EE9E
:103F0000100AB8EEC00A20EE800ABDEEC00A10EE1C
:103F1000100A01B2281D50F824008183601CC4B22D
:103F2000042CE3DB0126002441E0281D50F8240086
:103F3000B0F92200002802DA4FF0FF3600E0012637
:103F4000281D50F82400B0F91C0000EE100AB8EE4D
:103F5000C00A9FED1B1AC0EE010A05F1380050F8A7
:103F60002400B0F90000704300EE100AB8EEC00A59
:103F70009FED151A10EE810AF0EE408A05F1280136
:103F800051F82400FFF714F9BDEEC00A10EE100A34
:103F900001B2281D50F8240081832A1D52F8240004
:103FA00052F82420126891698847601CC4B2042C1E
:103FB000BBDB00BF5DE7000000000000A8000020A0
:103FC000CDCC4C440000A04200007A440348C08895
:103FD000404200B20149888070470000FC41002047
:103FE00070B55E48006880B300242CE05C4850F84F
:103FF000240030B35A4850F82400407938B9584A60
:1040000052F8240052F82420126891688847FDF77E
:1040100087FC534951F824108968401A0A2808D9A6
:104020000120A0404F490978814348B24D490870AA
:1040300007E00120A0404B490978084340B24949B4
:104040000870601CC4B2082CD0DB4748006880B3FD
:1040500000242CE0454850F8240030B3434850F881
:104060002400407938B9414A52F8240052F82420FB
:10407000126891688847FDF753FC3C4951F82410B9
:104080008968401A0A2808D90120A04038490978CF
:10409000814348B23649087007E00120A040344906
:1040A0000978084340B232490870601CC4B2082C39
:1040B000D0DB3048006818B12E480068FFF7D0FE0A
:1040C000FFF784FF002600252648007800F00F0047
:1040D00038B1294A4FF4007120480068FEF7BCFF50
:1040E00006460EB145F001051E48007800F0F000CC
:1040F00038B1214A083240F2FF1118480068FEF733
:10410000ABFF0EB145F002051948007800F00F0032
:1041100030B11A4A4FF4007113480068FEF79CFF53
:104120000EB145F004051248007800F0F00038B1F7
:10413000124A083240F2FF110B480068FEF78CFF6C
:104140000EB145F0080510210B48FCF798F9102135
:104150000A48FCF794F9284670BD0000A000002032
:10416000DC4100209D000020A40000200C42002023
:104170009E000020A8000020FC4100202C420020CE
:10418000024A1060024A116070470000A00000203F
:10419000A40000202DE9F04105460E461746308860
:1041A00084B21C480068854216D1B4F5027F13DC46
:1041B000B4F5007F10DDA4F20120174951F820006A
:1041C00050B1A4F20121144B53F8210053F82110EF
:1041D00009684A683946904710480068854216D1F8
:1041E000B4F5027F13DCB4F5007F10DDA4F20120EA
:1041F0000B4951F8200050B1A4F20121084B53F8AB
:10420000210053F8211009684A6839469047BDE8F3
:10421000F0810000A0000020DC410020A40000206C
:104220000C4200200249016000210171704700002A
:10423000245D000870B50446606B08B900BFFEE756
:104240000025B4F92000B4F91E10451AD4E90F1066
:10425000401AA16A098801FB005500EE105AB8EE19
:10426000C00A606BFEF7A4FFBDEEC00A10EE100A94
:1042700000B2A084B4F92410B4F92220891A00EE07
:10428000901AF8EEE00AB0EE600A206BFEF790FF9D
:10429000BDEEC00A10EE100A00B2A083206881694A
:1042A0002046884770BD000070B52DED0E8B04468A
:1042B0000D4629462046FFF707FD94F84C0020B92B
:1042C000E08B2087012084F84C00B4F91E00B4F97B
:1042D0003810401AB0F5805F03DDE06B401EE063EC
:1042E0000AE0B4F91E00B4F93810401A10F5805FE6
:1042F00002DAE06B401CE063B4F91E0000EE100A25
:10430000B8EEC00AF7EE000A60EE200AA06A8078D4
:10431000400300EE100AB8EEC01A80EE810ADFED0D
:104320001C0A20EE200A10EE106A304601F03AFC1A
:1043300041EC190BA16A887801F039FA41EC1E0BA7
:104340009FED140B53EC102B01F044FA41EC1C0BC5
:10435000E06B01F015FA41EC1D0B53EC1C2B01F046
:10436000B7F841EC1B0B9FED0D0B53EC102B01F03C
:1043700031FA41EC1A0B53EC192B01F001F841EC26
:10438000180B00F0CBFFA061BDEC0E8B70BD0000E0
:104390000000B443000000000000F03F00000000F7
:1043A000008076402DE9FC4704460D4616461F4620
:1043B000DDE90A893B46324629462046CDE9008997
:1043C000FFF71CFD0446084820600020E0639FEDD5
:1043D000070A84ED110A9FED060A84ED120A84F89B
:1043E0004C002046BDE8FC87385D0008B743BA5151
:1043F000B743BAD10020FCF7A1B800001CB53222A7
:1044000000219FED1D2ADFED1D1A9FED1D1AF7EE0D
:10441000000AB2EE0E0A1B48FEF782FF0022114688
:104420009FED192ADFED161A9FED151ADFED140A1C
:104430009FED160A1648FEF773FF16484FF4005119
:1044400013220180827000BF11480E49114B40F2C7
:104450000322CDE9001001210F48FFF7A3FF0C480C
:1044600008490C4B4FF40172CDE9001001210B48B3
:10447000FFF798FF1CBD000000007A4600007A4458
:1044800000000000C03F002000401C468FC2F53DE8
:10449000204000209600002080400020D0400020D6
:1044A000FDF750FAFEF77EFDFEF706FBFEF7D0FAA9
:1044B000FEF72CFAFEF784FAFEF7A6FAFEF7A0FB49
:1044C000FEF7E8FBFEF746FD00F015F800BFFEE73B
:1044D00001460020842901D0CA1C1044704770B5E1
:1044E000044625460DB1294600E00121084600F0AA
:1044F000E1FB002070BD10B500F074FC002010BD81
:10450000FEB504460D46B4F90800FFF7E1FF064684
:1045100002A8CDE90060238A9AB22B46D4E90010A4
:1045200000F0A6FD012801D00020FEBD0298FCE7A6
:104530002DE9F04105460E461C4807681C480068F6
:10454000001D00F0C7FA50B91948006890F82C1007
:104550000120884017490968814316480160681C9A
:1045600038B936B112480168091D134800F0F0FA55
:104570001AE07C190E4800684460BC4207D20C481F
:104580000168091D0D48006800F0C8FA0CE00848F1
:104590000168091D0A48006800F0C0FA094800686F
:1045A000844201D207480460BDE8F0813000002059
:1045B0001C00002034000020AC0300202400002058
:1045C000200000204C00002010B5044600F0CCFA7A
:1045D00023480068401C224908602248006840B90E
:1045E000204804600846006801280DD100F01CF93D
:1045F0000AE01D48006838B91A480068C06AE16AD4
:10460000884201D81748046018480068401C1749C0
:10461000086094F82C100120884015490968084367
:1046200013490860E16A01EB8101124A02EB810043
:10463000211D00F08DFA00F0C1FA0B48006868B146
:1046400008480068C06AE16A884207D24FF080508B
:1046500009490860BFF34F8FBFF36F8F10BD000093
:104660002C0000201C000020380000204800002002
:1046700034000020D002002004ED00E010B516E068
:1046800000F072FA0C48C068C468201D00F022FADD
:104690000A480068401E0949086009480068401E31
:1046A0000749086000F08AFA204600F00BF8044839
:1046B00000680028E4D110BD980300202C000020E1
:1046C0002800002010B50446206B00F095FA204623
:1046D00000F092FA10BD000030B54FF47053174847
:1046E00000F007042CB1C01D20F00700134C041B80
:1046F0001B1B0246124C22600024114D6C60D01826
:10470000083820F007000F4C206000240D4D2D6864
:104710006C600C4D2D682C601146441A4C60094C9D
:1047200024680C60084D4C682C60084D4C682C6067
:104730004FF00044064D2C6030BD0000C003002047
:104740005800002060000020680000206400002065
:104750006C00002000BFFFF791FF064800680128A9
:10476000F9D94FF0805004490860BFF34F8FBFF371
:104770006F8FF0E7D002002004ED00E02DE9FF5F2D
:1047800081460F469246DDE90E6B109CAAF10100AE
:10479000216B01EB800828F0070808F0070008B932
:1047A000012000E0002050B900BF502080F31188A4
:1047B000BFF34F8FBFF36F8F00BF00BFFEE7002531
:1047C00007E0795D04F134004155785D00B902E0FD
:1047D0006D1C102DF5D300BF002143200155072E7D
:1047E00000D30626E66266640020A064201D00F067
:1047F00092F904F1180000F08EF92461C6F1070067
:10480000A06164620020E06484F85000494640469C
:10481000039A00F049F92060BBF1000F01D0CBF8FA
:104820000040BDE8FF9F000010B5002407E004EB46
:1048300084010F4A02EB810000F060F9641C072C30
:10484000F5D30C4800F05AF90B4800F057F90B4823
:1048500000F054F90A4800F051F90A4800F04EF906
:1048600004480949086004480849086010BD000070
:10487000D00200205C03002070030020840300208D
:1048800098030020AC03002020000020240000201A
:1048900010B50146164800E0006803688B42FBD360
:1048A0000246436813448B4204D143684C68234456
:1048B000436001460A464B6813440468A34211D181
:1048C0000C4C03682468A34208D04B6804686468F1
:1048D00023444B6003681B680B6005E0054B1B68B5
:1048E0000B6001E003680B60884200D0016010BDDE
:1048F00058000020600000200A490968096809B9C9
:10490000012100E0002121B14FF0FF31064A116082
:1049100006E004490968C968C868034A416811602B
:1049200070470000200000204C0000200E48006866
:10493000401C08B9012000E0002050B900BF502001
:1049400080F31188BFF34F8FBFF36F8F00BF00BF9D
:10495000FEE700BF502080F31188BFF34F8FBFF3F5
:104960006F8F00BF00BFFEE7700000202DE9F0410F
:1049700004464FF0000800F079FA4648006808B98C
:10498000FFF7AAFE44480068204000286BD1D4B14C
:10499000083404F00700B0B104F00700C0F10800CB
:1049A000044404F0070008B9012000E0002050B9D9
:1049B00000BF502080F31188BFF34F8FBFF36F8F7C
:1049C00000BF00BFFEE7002C4DD034480068844291
:1049D00049D8334E3046056801E02E462D68686898
:1049E000A04202D228680028F7D12A4800688542F0
:1049F00039D0306800F10808286830606868001B0A
:104A0000102819D92F1907F0070008B9012000E074
:104A1000002050B900BF502080F31188BFF34F8FA2
:104A2000BFF36F8F00BF00BFFEE76868001B7860B0
:104A30006C603846FFF72CFF184968680968081A47
:104A4000164908600846006816490968884203D27A
:104A500012480068134908600F49686809680843EC
:104A600068600020286000F0D7FB08F0070008B954
:104A7000012000E0002050B900BF502080F31188D1
:104A8000BFF34F8FBFF36F8F00BF00BFFEE74046FD
:104A9000BDE8F081600000206C0000206400002070
:104AA0005800002068000020001F4FF08073036052
:104AB000001F21F001030360001F054B0360143841
:104AC0000260001F6FF0020303602038704700008F
:104AD0002D49000801460A69D1E901309860D1E901
:104AE000010358605068884201D1886850600020F6
:104AF00008611068401E10601068704700F10801DE
:104B000041604FF0FF31816000F10801C160016137
:104B100000210160704700210161704710B5024615
:104B20000B685C1C0CB9106907E002F1080000E09A
:104B30004068446824689C42FAD944684C604C68D8
:104B4000A160886041600A611468641C146010BD33
:104B500042684A6093688B6093685960916008610D
:104B600003685B1C0360704700BF502080F311880E
:104B7000BFF34F8FBFF36F8F00BF0E480068401C1C
:104B80000C49086008460068012812D10A480068EC
:104B9000C0B208B9012000E0002050B900BF502089
:104BA00080F31188BFF34F8FBFF36F8F00BF00BF3B
:104BB000FEE770477000002004ED00E00D4800683B
:104BC00050B900BF502080F31188BFF34F8FBFF35F
:104BD0006F8F00BF00BFFEE706480068401E054912
:104BE00008600846006820B9002080F3118800BFE3
:104BF00000BF70477000002070B506463546002E95
:104C00003FD0083D2C461F4960680968084008B13C
:104C1000012000E0002050B900BF502080F311882F
:104C2000BFF34F8FBFF36F8F00BF00BFFEE7206859
:104C300008B9012000E0002050B900BF502080F3E7
:104C40001188BFF34F8FBFF36F8F00BF00BFFEE728
:104C50000C4960680968084098B1206888B909491A
:104C6000606809688843606000F000F90649606880
:104C700009680844044908602046FFF709FE00F06F
:104C8000CBFA70BD6C0000206400002000204FF0C3
:104C9000E02108618861064800684FF47A71B0FB32
:104CA000F1F0401E4FF0E021486107200861704795
:104CB0001800002070B504460025D4B112480068E1
:104CC00008B9012000E0002050B900BF502080F357
:104CD0001188BFF34F8FBFF36F8F00BF00BFFEE798
:104CE00000F0C4F800212046FFF722FC00F094FAFF
:104CF00005463DB94FF0805004490860BFF34F8F1F
:104D0000BFF36F8F70BD00005400002004ED00E081
:104D10002DE9F04704460F464FF0000954B900BF93
:104D2000502080F31188BFF34F8FBFF36F8F00BF08
:104D300000BFFEE70FB1012000E0002050B900BF26
:104D4000502080F31188BFF34F8FBFF36F8F00BFE8
:104D500000BFFEE72048006808B9012000E00020FD
:104D600050B900BF502080F31188BFF34F8FBFF3BD
:104D70006F8F00BF00BFFEE700F078F817480668A5
:104D80002068C5192068B04207D92068A8420BD90D
:104D9000B54209D94FF0010906E02068A84201D8C0
:104DA000B54201D94FF001092560B9F1000F03D0D8
:104DB000A81B0021FFF7BCFB00F02EFA8046B8F1DB
:104DC000000F07D14FF0805005490860BFF34F8FA7
:104DD000BFF36F8FBDE8F087540000203000002043
:104DE00004ED00E01CB51A4800210B468022CDE9F5
:104DF000001018A1194800F03BF90446012C15D108
:104E000000BF502080F31188BFF34F8FBFF36F8F27
:104E100000BF4FF0FF3012490860012011490860BF
:104E200000201149086000F06FF810E0601C08B124
:104E3000012000E0002050B900BF502080F311880D
:104E4000BFF34F8FBFF36F8F00BF00BFFEE71CBDE6
:104E50005000002049444C45000000005547000820
:104E60004C0000203800002030000020024800687C
:104E7000401C014908607047540000201D4800682C
:104E800018B101201C49086032E000201A4908606E
:104E90001A480068B0FA80F0C0F11F0101EB8100F0
:104EA000174A52F8200008B1012000E0002050B954
:104EB00000BF502080F31188BFF34F8FBFF36F8F77
:104EC00000BF00BFFEE701EB81020D4B03EB820048
:104ED00042685268426000F108024368934202D17E
:104EE0004268526842604268D268064B1A6000BF4E
:104EF00070470000540000204000002034000020D3
:104F0000D00200201C0000201CB552480068524905
:104F1000884201D0012000E0002050B900BF50209D
:104F200080F31188BFF34F8FBFF36F8F00BF00BFB7
:104F3000FEE7484800684849491E884201D00120E0
:104F400000E0002050B900BF502080F31188BFF36B
:104F50004F8FBFF36F8F00BF00BFFEE73F4908468A
:104F600000780190FF200A461070084600780090F3
:104F70009DF8000000F0F0009DF80020904201D163
:104F8000012000E0002050B900BF502080F31188BC
:104F9000BFF34F8FBFF36F8F00BF00BFFEE79DF8D9
:104FA000000000F050002E4A107007202D4A1060BB
:104FB00009E02C480068401E2A4A10609DF8000055
:104FC0004006000E00909DF8000000F08000802850
:104FD000EFD024480068C0F10700042801D1012067
:104FE00000E0002050B900BF502080F31188BFF3CB
:104FF0004F8FBFF36F8F00BF00BFFEE719480068F7
:105000000002184A10601046008800F4E06010604A
:10501000124A019810700F482030006840F4700068
:105020000C49203108600846006840F07040086074
:10503000FFF72CFE00200C490860FBF71BF90B481A
:10504000006840F0404009490860FBF7FFF8002085
:105050001CBD000000ED00E071C20F4100E400E063
:1050600074000020780000207000002034EF00E081
:105070002DE9FF4F85B0804689461746DDE912AB22
:10508000B800FFF773FC064656B15420FFF76EFCDC
:1050900004460CB1266304E03046FFF7ADFD00E0A6
:1050A00000247CB10020CDE900ABCDE902403A46B6
:1050B00049464046089BFFF761FB2046FFF784FA0C
:1050C000012501E04FF0FF35284609B0BDE8F08F1B
:1050D0002DE9F0414FF0000844480068002877D1DE
:1050E00043480068451C4248056015BB41480068BC
:1050F000006808B9012000E0002050B900BF50202E
:1051000080F31188BFF34F8FBFF36F8F00BF00BFD5
:10511000FEE738480768384800683649086036486E
:10512000076036480068401C34490860FFF7E4FB1C
:1051300000BF3348006885423CD300BF2D4800685B
:10514000006808B9012000E0002020B14FF0FF30D6
:105150002B4908602DE027480068C068C46866686D
:10516000B54202D22648066023E0201DFFF7B2FCBC
:10517000A06A18B104F11800FFF7ACFC94F82C10E9
:10518000012088401F49096808431E490860E16AF8
:1051900001EB81011C4A02EB8100211DFFF7D8FCC5
:1051A0001A49E06A0968C96A8842C7D34FF0010802
:1051B000C4E700BF15480068C06A00EB80001249D0
:1051C00051F82000012801D94FF0010805E0FFE760
:1051D0000F480068401C0E4908600E48006808B17E
:1051E0004FF001084046BDE8F08100005400002067
:1051F0003000002020000020240000204400002077
:105200004C00002034000020D00200201C000020B0
:105210003C0000204000002070B5002400263648E5
:10522000006850B900BF502080F31188BFF34F8F42
:10523000BFF36F8F00BF00BFFEE7FFF795FC2E485E
:105240000068401E2C4908600846006800284FD1BD
:105250002A48006800284BD024E02948C068C46868
:1052600004F11800FFF736FC201DFFF733FC94F81B
:105270002C1001208840234909680843214908600F
:10528000E16A01EB8101204A02EB8100211DFFF759
:105290005FFC1E49E06A0968C96A884202D301209E
:1052A0001B4908601648006808B9012000E000208A
:1052B0000028D2D00CB1FFF71FFB1648056865B176
:1052C00000BFFFF705FF10B10120114908606D1EF6
:1052D000002DF6D100200F4908600D48006838B154
:1052E000012630070C490860BFF34F8FBFF36F8F63
:1052F000FFF764FC304670BD540000202C000020F5
:105300008403002034000020D00200201C00002074
:10531000400000203C00002004ED00E021F00042AD
:10532000A2F16052B2F5801F01F0004328BFD2F114
:105330007F6C0BD95FEA001C43EAC20242EB50705B
:1053400018BF704728BF20F001007047B2F5801FDA
:10535000BCBF184670474FEA410C1CF5001F02D233
:10536000084600F095BC70B500F0DEFA0000008938
:10537000FFF7F6BF4FF00040A0F580007047000037
:1053800010B591EA030F48BF83F0004300F1288372
:10539000841A71EB030C05D2121943EB0C03001BAA
:1053A00061EB0C01DFF824E14FEA1154A4EB135C2C
:1053B0001EEA430F18BF9EEA445F73D023EA0E0330
:1053C000DCF1200E21EA045143F4801332D322FA97
:1053D0000CFE10EB0E0023FA0CFE41EB0E01CCF19B
:1053E000200E03FA0EFE10EB0E0051F10001B1F594
:1053F000801FCCF1200E32D201EB045112FA0EF2D2
:10540000BDE8104058BF7047401C38BF5FEA4202F9
:1054100018BF7047002814BF20F0010041F10001BF
:105420004FEA410313F5001F38BF7047A1F1C04197
:1054300000F0C8BA012A43EB0302ACF1200CDCF106
:105440001F0E32BF4FF0000E23FA0CF310EB0300D7
:1054500041EB0451B4EB115FD0D0A1EB045101F545
:10546000801149085FEA300001EB04510ED350F17E
:10547000000038BF12FA0EFE08D1BDE81040C9E79F
:10548000401C38BF5FEA4202CAD1C3E7BDE8104002
:105490004FEA410313F5001F38BF7047A1F1C04127
:1054A00000F090BA9EEA445F08D011EA5E0FBDE8B2
:1054B000104004BF01F0004100207047BDE81040DB
:1054C00070B500F031FA00BF64FBBE3E0000E0FFA3
:1054D0002DE9C04130B4DFF8A0C23CEA111418BF76
:1054E0003CEA131400F0EC8081EA03051CEA111475
:1054F00044EAD57418BF1CEA131500F0C780A4EB6A
:1055000005044FF0004545EAC12145EAC32341EABD
:10551000505143EA525304F17F74994204F5003428
:105520004FEAC0204FEAC22208BF904200F09C80A0
:105530004FEA13650FF24016765D4FEA134506FBFE
:1055400005F7C7F1807706FB07F74FEAD737A7FBC8
:1055500003687642C8F58038A7FB06CE38BFA8F1AD
:10556000010807FB08E64FF0000EA6FB028CE6FBE5
:1055700003CEDCF1000CCEF1004E38BFAEF1010ECF
:10558000A6FB0C584FF000074FF00005E6FB0E8716
:10559000A1FB08C6A0FB07CE16EB0E0645F10005E1
:1055A000E1FB076515F1E04E7EBFA4F580345FEAAC
:1055B00046066D4116F1800745F100054FEA1727B1
:1055C0004FEA066647EA0567A6F1DE46B6F1805F58
:1055D0004FEA15251FD9384624F0010C05EBC4719C
:1055E000BCF1FE6F01EB0C1102D8F0BCBDE80081EC
:1055F00024425CBF01F5801E9EEAC47F02D4F0BC49
:10560000BDE80081244238D4F0BCA1F1C041BDE81E
:10561000004100F0D7B94FEAD22242EA43524FEAA2
:10562000D323A7FB02864FEAD02040EA415007FB74
:1056300003661EEA0E0F4FEAD12105FB026658BF32
:10564000A6EB0056B6EB00564FEA520E4EEAC37E6A
:1056500018EB0E0E56EB530EBDD518EB02085E414B
:105660007F1C55F10005B6E74FF480154FF0000799
:105670004FF000064FF00008ADE7F0BC4FF000001F
:1056800001F1C04101F00041BDE8008111EA0C1FA9
:105690000CEA131500D00CE013EA0C1F00F0258073
:1056A0004FF00000F0BC81EA030101F00041BDE8C9
:1056B0000081F0BCBDE8004181EA030100F082B93D
:1056C000F0BCBDE8004170B500F02EF9097EFC3E4B
:1056D00000F007B881EA03014FF0000001F000413B
:1056E000704781EA030100F06DB9F0BCBDE80041EC
:1056F0004FF0000021497047FFFDFBF9F7F5F4F288
:10570000F0EEEDEBE9E8E6E4E3E1E0DEDDDBDAD85C
:10571000D7D5D4D3D1D0CFCDCCCBCAC8C7C6C5C4BA
:10572000C2C1C0BFBEBDBCBBBAB9B8B7B6B5B4B3D1
:10573000B2B1B0AFAEADACABAAA9A8A8A7A6A5A4BC
:10574000A3A3A2A1A09F9F9E9D9C9C9B9A99999880
:105750009797969595949393929191908F8F8E8E23
:105760008D8C8C8B8B8A89898888878786858584B0
:1057700084838382828181800000FF070000F87F9C
:1057800010F0004248BF4042B0FA80F310FA03F133
:105790000AD0C3F11D0303F580634FEA415002EBC9
:1057A000035202EBD12170474FF000007047B0FA6E
:1057B00080F310FA03F10AD0C3F11D0303F58063EF
:1057C0004FEA41504FEA035202EBD12170474FF0AC
:1057D00000007047DFF848C170B51CEA111E1EBFFB
:1057E0001CEA13159EEA0C0F95EA0C0F00F06F806F
:1057F00081EA030423EA4C134EEAD47E21EA4C11D9
:1058000041F4801143F48013AE44A1FB024CA0FB91
:105810000365AEF17F7E361955EB0C05A1FB034CF9
:105820004CF10003A0FB021C16EB0C06654153F182
:105830000003094218BF46F0010613F4007F0BD1A4
:105840004FEA03314FEA0530340341EA155140EA8B
:1058500016506FF003020AE04FEAC3214FEAC52059
:10586000F40241EA555140EA56506FF0020202EB51
:105870002E4201EB025585EACE710AD05FEA440C54
:1058800018BF24F0004450F1000041F1000120EA6B
:10589000D47040F2FE7C624500D270BDA84214BFB5
:1058A0004FF080444FF04044002E08BF0024BEF16A
:1058B000806FA8BFA1F1C041BDE8704080F2828036
:1058C0004FF0000001F1C04101F0004170479EEA35
:1058D0000C0F0CEA131518BF95EA0C0F06D04FF009
:1058E000000081EA030E0EF0004170BD00F01CF8CC
:1058F0008900013E00F007B800F009B84FEA430CF8
:105900005FEA5C5C08D081EA030100F05BB84FEA13
:10591000410C5FEA5C5CF6D14FF000000149704732
:105920000000FF070000F87F0EF1020E2EF0030EBC
:105930005EF8046B364205D4012A43EB030515F5E6
:10594000001F12D8012841EB010C1CF5001F0CD8D8
:105950000ED14FEAD17C15F5001F0CEB4C0C0CF16D
:10596000020C08BF4CEBD37C04E04FF0080C01E0C4
:105970004FEAD37C0CEB4C0526FA05F606F0070639
:10598000B6F1040C06D20EEB860CBDE870404CF06C
:10599000010C6047DFE80CF0090B02024FF00041F8
:1059A0004FF00000A1F5002170BD194610460128F6
:1059B00051EB010418BFD4F5001484BF002001F09E
:1059C000004170BD0808A0F500114FEA3101704791
:1059D00010B591EA030F48BF83F000433FF5D8AC00
:1059E000841A71EB030C07D212198CF0004C43EBB4
:1059F0000C03001B61EB0C01DFF8A4E14FEA11542A
:105A0000A4EB135C1EEA430F18BF9EEA445F00F04C
:105A1000B08023EA6E03524221EA0451C3EB6E03C5
:105A200038BF5B1EDCF1200E25D322FA0CFE10EBF2
:105A30000E0043FA0CFE41EB0E01CCF1200E03FAEE
:105A40000EFE10EB0E0051F10001CCF1200E29D416
:105A500012FA0EF201EB0451BDE8104058BF704736
:105A6000401C1CBFB2F1004F704700280CBF491CFE
:105A700020F00100704712EB020E43EB030218BF47
:105A80004FF0010E4EEA4202ACF1200CDCF11E0E8A
:105A900054D943FA0CFE10EB0E0051F1FF31CCF15A
:105AA0001E0ED5D50EF1010E12FA0EFE404141EB4D
:105AB000010101EB445C5FEA5C5C10D910EBDE7025
:105AC00001EB045138BFBEF1004FBDE8104018BFD4
:105AD000704700280CBF491C20F00100704730D2ED
